{
	"contracts/Reference.sol": {
		"Reference": {
			"abi": [
				{
					"inputs": [],
					"stateMutability": "nonpayable",
					"type": "constructor"
				},
				{
					"inputs": [
						{
							"internalType": "uint256",
							"name": "_x",
							"type": "uint256"
						},
						{
							"internalType": "uint256",
							"name": "_y",
							"type": "uint256"
						}
					],
					"name": "add",
					"outputs": [
						{
							"internalType": "uint256",
							"name": "",
							"type": "uint256"
						}
					],
					"stateMutability": "pure",
					"type": "function"
				},
				{
					"inputs": [
						{
							"internalType": "address",
							"name": "",
							"type": "address"
						}
					],
					"name": "balances",
					"outputs": [
						{
							"internalType": "uint256",
							"name": "",
							"type": "uint256"
						}
					],
					"stateMutability": "view",
					"type": "function"
				},
				{
					"inputs": [
						{
							"internalType": "string",
							"name": "_name",
							"type": "string"
						}
					],
					"name": "compereString",
					"outputs": [
						{
							"internalType": "bool",
							"name": "",
							"type": "bool"
						}
					],
					"stateMutability": "view",
					"type": "function"
				},
				{
					"inputs": [],
					"name": "deposit",
					"outputs": [],
					"stateMutability": "payable",
					"type": "function"
				},
				{
					"inputs": [],
					"name": "name",
					"outputs": [
						{
							"internalType": "string",
							"name": "",
							"type": "string"
						}
					],
					"stateMutability": "view",
					"type": "function"
				},
				{
					"inputs": [],
					"name": "owner",
					"outputs": [
						{
							"internalType": "address",
							"name": "",
							"type": "address"
						}
					],
					"stateMutability": "view",
					"type": "function"
				},
				{
					"inputs": [
						{
							"internalType": "address",
							"name": "_to",
							"type": "address"
						}
					],
					"name": "withdraw",
					"outputs": [],
					"stateMutability": "nonpayable",
					"type": "function"
				}
			],
			"devdoc": {
				"kind": "dev",
				"methods": {},
				"version": 1
			},
			"evm": {
				"assembly": "    /* \"contracts/Reference.sol\":57:1035  contract Reference {... */\n  mstore(0x40, 0x80)\n    /* \"contracts/Reference.sol\":537:580  string public name = \"Hello Kaia Developer\" */\n  mload(0x40)\n  dup1\n  0x40\n  add\n  0x40\n  mstore\n  dup1\n  0x14\n  dup2\n  mstore\n  0x20\n  add\n  0x48656c6c6f204b61696120446576656c6f706572000000000000000000000000\n  dup2\n  mstore\n  pop\n  0x02\n  swap1\n  dup2\n  tag_1\n  swap2\n  swap1\n  tag_2\n  jump\t// in\ntag_1:\n  pop\n    /* \"contracts/Reference.sol\":111:159  constructor(){... */\n  callvalue\n  dup1\n  iszero\n  tag_3\n  jumpi\n  revert(0x00, 0x00)\ntag_3:\n  pop\n    /* \"contracts/Reference.sol\":142:152  msg.sender */\n  caller\n    /* \"contracts/Reference.sol\":134:139  owner */\n  0x00\n  0x00\n    /* \"contracts/Reference.sol\":134:152  owner = msg.sender */\n  0x0100\n  exp\n  dup2\n  sload\n  dup2\n  0xffffffffffffffffffffffffffffffffffffffff\n  mul\n  not\n  and\n  swap1\n  dup4\n  0xffffffffffffffffffffffffffffffffffffffff\n  and\n  mul\n  or\n  swap1\n  sstore\n  pop\n    /* \"contracts/Reference.sol\":57:1035  contract Reference {... */\n  jump(tag_6)\n    /* \"#utility.yul\":7:106   */\ntag_7:\n    /* \"#utility.yul\":59:65   */\n  0x00\n    /* \"#utility.yul\":93:98   */\n  dup2\n    /* \"#utility.yul\":87:99   */\n  mload\n    /* \"#utility.yul\":77:99   */\n  swap1\n  pop\n    /* \"#utility.yul\":7:106   */\n  swap2\n  swap1\n  pop\n  jump\t// out\n    /* \"#utility.yul\":112:292   */\ntag_8:\n    /* \"#utility.yul\":160:237   */\n  0x4e487b7100000000000000000000000000000000000000000000000000000000\n    /* \"#utility.yul\":157:158   */\n  0x00\n    /* \"#utility.yul\":150:238   */\n  mstore\n    /* \"#utility.yul\":257:261   */\n  0x41\n    /* \"#utility.yul\":254:255   */\n  0x04\n    /* \"#utility.yul\":247:262   */\n  mstore\n    /* \"#utility.yul\":281:285   */\n  0x24\n    /* \"#utility.yul\":278:279   */\n  0x00\n    /* \"#utility.yul\":271:286   */\n  revert\n    /* \"#utility.yul\":298:478   */\ntag_9:\n    /* \"#utility.yul\":346:423   */\n  0x4e487b7100000000000000000000000000000000000000000000000000000000\n    /* \"#utility.yul\":343:344   */\n  0x00\n    /* \"#utility.yul\":336:424   */\n  mstore\n    /* \"#utility.yul\":443:447   */\n  0x22\n    /* \"#utility.yul\":440:441   */\n  0x04\n    /* \"#utility.yul\":433:448   */\n  mstore\n    /* \"#utility.yul\":467:471   */\n  0x24\n    /* \"#utility.yul\":464:465   */\n  0x00\n    /* \"#utility.yul\":457:472   */\n  revert\n    /* \"#utility.yul\":484:804   */\ntag_10:\n    /* \"#utility.yul\":528:534   */\n  0x00\n    /* \"#utility.yul\":565:566   */\n  0x02\n    /* \"#utility.yul\":559:563   */\n  dup3\n    /* \"#utility.yul\":555:567   */\n  div\n    /* \"#utility.yul\":545:567   */\n  swap1\n  pop\n    /* \"#utility.yul\":612:613   */\n  0x01\n    /* \"#utility.yul\":606:610   */\n  dup3\n    /* \"#utility.yul\":602:614   */\n  and\n    /* \"#utility.yul\":633:651   */\n  dup1\n    /* \"#utility.yul\":623:704   */\n  tag_32\n  jumpi\n    /* \"#utility.yul\":689:693   */\n  0x7f\n    /* \"#utility.yul\":681:687   */\n  dup3\n    /* \"#utility.yul\":677:694   */\n  and\n    /* \"#utility.yul\":667:694   */\n  swap2\n  pop\n    /* \"#utility.yul\":623:704   */\ntag_32:\n    /* \"#utility.yul\":751:753   */\n  0x20\n    /* \"#utility.yul\":743:749   */\n  dup3\n    /* \"#utility.yul\":740:754   */\n  lt\n    /* \"#utility.yul\":720:738   */\n  dup2\n    /* \"#utility.yul\":717:755   */\n  sub\n    /* \"#utility.yul\":714:798   */\n  tag_33\n  jumpi\n    /* \"#utility.yul\":770:788   */\n  tag_34\n  tag_9\n  jump\t// in\ntag_34:\n    /* \"#utility.yul\":714:798   */\ntag_33:\n    /* \"#utility.yul\":535:804   */\n  pop\n    /* \"#utility.yul\":484:804   */\n  swap2\n  swap1\n  pop\n  jump\t// out\n    /* \"#utility.yul\":810:951   */\ntag_11:\n    /* \"#utility.yul\":859:863   */\n  0x00\n    /* \"#utility.yul\":882:885   */\n  dup2\n    /* \"#utility.yul\":874:885   */\n  swap1\n  pop\n    /* \"#utility.yul\":905:908   */\n  dup2\n    /* \"#utility.yul\":902:903   */\n  0x00\n    /* \"#utility.yul\":895:909   */\n  mstore\n    /* \"#utility.yul\":939:943   */\n  0x20\n    /* \"#utility.yul\":936:937   */\n  0x00\n    /* \"#utility.yul\":926:944   */\n  keccak256\n    /* \"#utility.yul\":918:944   */\n  swap1\n  pop\n    /* \"#utility.yul\":810:951   */\n  swap2\n  swap1\n  pop\n  jump\t// out\n    /* \"#utility.yul\":957:1050   */\ntag_12:\n    /* \"#utility.yul\":994:1000   */\n  0x00\n    /* \"#utility.yul\":1041:1043   */\n  0x20\n    /* \"#utility.yul\":1036:1038   */\n  0x1f\n    /* \"#utility.yul\":1029:1034   */\n  dup4\n    /* \"#utility.yul\":1025:1039   */\n  add\n    /* \"#utility.yul\":1021:1044   */\n  div\n    /* \"#utility.yul\":1011:1044   */\n  swap1\n  pop\n    /* \"#utility.yul\":957:1050   */\n  swap2\n  swap1\n  pop\n  jump\t// out\n    /* \"#utility.yul\":1056:1163   */\ntag_13:\n    /* \"#utility.yul\":1100:1108   */\n  0x00\n    /* \"#utility.yul\":1150:1155   */\n  dup3\n    /* \"#utility.yul\":1144:1148   */\n  dup3\n    /* \"#utility.yul\":1140:1156   */\n  shl\n    /* \"#utility.yul\":1119:1156   */\n  swap1\n  pop\n    /* \"#utility.yul\":1056:1163   */\n  swap3\n  swap2\n  pop\n  pop\n  jump\t// out\n    /* \"#utility.yul\":1169:1562   */\ntag_14:\n    /* \"#utility.yul\":1238:1244   */\n  0x00\n    /* \"#utility.yul\":1288:1289   */\n  0x08\n    /* \"#utility.yul\":1276:1286   */\n  dup4\n    /* \"#utility.yul\":1272:1290   */\n  mul\n    /* \"#utility.yul\":1311:1408   */\n  tag_39\n    /* \"#utility.yul\":1341:1407   */\n  0xffffffffffffffffffffffffffffffffffffffffffffffffffffffffffffffff\n    /* \"#utility.yul\":1330:1339   */\n  dup3\n    /* \"#utility.yul\":1311:1408   */\n  tag_13\n  jump\t// in\ntag_39:\n    /* \"#utility.yul\":1429:1468   */\n  tag_40\n    /* \"#utility.yul\":1459:1467   */\n  dup7\n    /* \"#utility.yul\":1448:1457   */\n  dup4\n    /* \"#utility.yul\":1429:1468   */\n  tag_13\n  jump\t// in\ntag_40:\n    /* \"#utility.yul\":1417:1468   */\n  swap6\n  pop\n    /* \"#utility.yul\":1501:1505   */\n  dup1\n    /* \"#utility.yul\":1497:1506   */\n  not\n    /* \"#utility.yul\":1490:1495   */\n  dup5\n    /* \"#utility.yul\":1486:1507   */\n  and\n    /* \"#utility.yul\":1477:1507   */\n  swap4\n  pop\n    /* \"#utility.yul\":1550:1554   */\n  dup1\n    /* \"#utility.yul\":1540:1548   */\n  dup7\n    /* \"#utility.yul\":1536:1555   */\n  and\n    /* \"#utility.yul\":1529:1534   */\n  dup5\n    /* \"#utility.yul\":1526:1556   */\n  or\n    /* \"#utility.yul\":1516:1556   */\n  swap3\n  pop\n    /* \"#utility.yul\":1245:1562   */\n  pop\n  pop\n    /* \"#utility.yul\":1169:1562   */\n  swap4\n  swap3\n  pop\n  pop\n  pop\n  jump\t// out\n    /* \"#utility.yul\":1568:1645   */\ntag_15:\n    /* \"#utility.yul\":1605:1612   */\n  0x00\n    /* \"#utility.yul\":1634:1639   */\n  dup2\n    /* \"#utility.yul\":1623:1639   */\n  swap1\n  pop\n    /* \"#utility.yul\":1568:1645   */\n  swap2\n  swap1\n  pop\n  jump\t// out\n    /* \"#utility.yul\":1651:1711   */\ntag_16:\n    /* \"#utility.yul\":1679:1682   */\n  0x00\n    /* \"#utility.yul\":1700:1705   */\n  dup2\n    /* \"#utility.yul\":1693:1705   */\n  swap1\n  pop\n    /* \"#utility.yul\":1651:1711   */\n  swap2\n  swap1\n  pop\n  jump\t// out\n    /* \"#utility.yul\":1717:1859   */\ntag_17:\n    /* \"#utility.yul\":1767:1776   */\n  0x00\n    /* \"#utility.yul\":1800:1853   */\n  tag_44\n    /* \"#utility.yul\":1818:1852   */\n  tag_45\n    /* \"#utility.yul\":1827:1851   */\n  tag_46\n    /* \"#utility.yul\":1845:1850   */\n  dup5\n    /* \"#utility.yul\":1827:1851   */\n  tag_15\n  jump\t// in\ntag_46:\n    /* \"#utility.yul\":1818:1852   */\n  tag_16\n  jump\t// in\ntag_45:\n    /* \"#utility.yul\":1800:1853   */\n  tag_15\n  jump\t// in\ntag_44:\n    /* \"#utility.yul\":1787:1853   */\n  swap1\n  pop\n    /* \"#utility.yul\":1717:1859   */\n  swap2\n  swap1\n  pop\n  jump\t// out\n    /* \"#utility.yul\":1865:1940   */\ntag_18:\n    /* \"#utility.yul\":1908:1911   */\n  0x00\n    /* \"#utility.yul\":1929:1934   */\n  dup2\n    /* \"#utility.yul\":1922:1934   */\n  swap1\n  pop\n    /* \"#utility.yul\":1865:1940   */\n  swap2\n  swap1\n  pop\n  jump\t// out\n    /* \"#utility.yul\":1946:2215   */\ntag_19:\n    /* \"#utility.yul\":2056:2095   */\n  tag_49\n    /* \"#utility.yul\":2087:2094   */\n  dup4\n    /* \"#utility.yul\":2056:2095   */\n  tag_17\n  jump\t// in\ntag_49:\n    /* \"#utility.yul\":2117:2208   */\n  tag_50\n    /* \"#utility.yul\":2166:2207   */\n  tag_51\n    /* \"#utility.yul\":2190:2206   */\n  dup3\n    /* \"#utility.yul\":2166:2207   */\n  tag_18\n  jump\t// in\ntag_51:\n    /* \"#utility.yul\":2158:2164   */\n  dup5\n    /* \"#utility.yul\":2151:2155   */\n  dup5\n    /* \"#utility.yul\":2145:2156   */\n  sload\n    /* \"#utility.yul\":2117:2208   */\n  tag_14\n  jump\t// in\ntag_50:\n    /* \"#utility.yul\":2111:2115   */\n  dup3\n    /* \"#utility.yul\":2104:2209   */\n  sstore\n    /* \"#utility.yul\":2022:2215   */\n  pop\n    /* \"#utility.yul\":1946:2215   */\n  pop\n  pop\n  pop\n  jump\t// out\n    /* \"#utility.yul\":2221:2294   */\ntag_20:\n    /* \"#utility.yul\":2266:2269   */\n  0x00\n    /* \"#utility.yul\":2287:2288   */\n  0x00\n    /* \"#utility.yul\":2280:2288   */\n  swap1\n  pop\n    /* \"#utility.yul\":2221:2294   */\n  swap1\n  jump\t// out\n    /* \"#utility.yul\":2300:2489   */\ntag_21:\n    /* \"#utility.yul\":2377:2409   */\n  tag_54\n  tag_20\n  jump\t// in\ntag_54:\n    /* \"#utility.yul\":2418:2483   */\n  tag_55\n    /* \"#utility.yul\":2476:2482   */\n  dup2\n    /* \"#utility.yul\":2468:2474   */\n  dup5\n    /* \"#utility.yul\":2462:2466   */\n  dup5\n    /* \"#utility.yul\":2418:2483   */\n  tag_19\n  jump\t// in\ntag_55:\n    /* \"#utility.yul\":2353:2489   */\n  pop\n    /* \"#utility.yul\":2300:2489   */\n  pop\n  pop\n  jump\t// out\n    /* \"#utility.yul\":2495:2681   */\ntag_22:\n    /* \"#utility.yul\":2555:2675   */\ntag_57:\n    /* \"#utility.yul\":2572:2575   */\n  dup2\n    /* \"#utility.yul\":2565:2570   */\n  dup2\n    /* \"#utility.yul\":2562:2576   */\n  lt\n    /* \"#utility.yul\":2555:2675   */\n  iszero\n  tag_59\n  jumpi\n    /* \"#utility.yul\":2626:2665   */\n  tag_60\n    /* \"#utility.yul\":2663:2664   */\n  0x00\n    /* \"#utility.yul\":2656:2661   */\n  dup3\n    /* \"#utility.yul\":2626:2665   */\n  tag_21\n  jump\t// in\ntag_60:\n    /* \"#utility.yul\":2599:2600   */\n  0x01\n    /* \"#utility.yul\":2592:2597   */\n  dup2\n    /* \"#utility.yul\":2588:2601   */\n  add\n    /* \"#utility.yul\":2579:2601   */\n  swap1\n  pop\n    /* \"#utility.yul\":2555:2675   */\n  jump(tag_57)\ntag_59:\n    /* \"#utility.yul\":2495:2681   */\n  pop\n  pop\n  jump\t// out\n    /* \"#utility.yul\":2687:3230   */\ntag_23:\n    /* \"#utility.yul\":2788:2790   */\n  0x1f\n    /* \"#utility.yul\":2783:2786   */\n  dup3\n    /* \"#utility.yul\":2780:2791   */\n  gt\n    /* \"#utility.yul\":2777:3223   */\n  iszero\n  tag_62\n  jumpi\n    /* \"#utility.yul\":2822:2860   */\n  tag_63\n    /* \"#utility.yul\":2854:2859   */\n  dup2\n    /* \"#utility.yul\":2822:2860   */\n  tag_11\n  jump\t// in\ntag_63:\n    /* \"#utility.yul\":2906:2935   */\n  tag_64\n    /* \"#utility.yul\":2924:2934   */\n  dup5\n    /* \"#utility.yul\":2906:2935   */\n  tag_12\n  jump\t// in\ntag_64:\n    /* \"#utility.yul\":2896:2904   */\n  dup2\n    /* \"#utility.yul\":2892:2936   */\n  add\n    /* \"#utility.yul\":3089:3091   */\n  0x20\n    /* \"#utility.yul\":3077:3087   */\n  dup6\n    /* \"#utility.yul\":3074:3092   */\n  lt\n    /* \"#utility.yul\":3071:3120   */\n  iszero\n  tag_65\n  jumpi\n    /* \"#utility.yul\":3110:3118   */\n  dup2\n    /* \"#utility.yul\":3095:3118   */\n  swap1\n  pop\n    /* \"#utility.yul\":3071:3120   */\ntag_65:\n    /* \"#utility.yul\":3133:3213   */\n  tag_66\n    /* \"#utility.yul\":3189:3211   */\n  tag_67\n    /* \"#utility.yul\":3207:3210   */\n  dup6\n    /* \"#utility.yul\":3189:3211   */\n  tag_12\n  jump\t// in\ntag_67:\n    /* \"#utility.yul\":3179:3187   */\n  dup4\n    /* \"#utility.yul\":3175:3212   */\n  add\n    /* \"#utility.yul\":3162:3173   */\n  dup3\n    /* \"#utility.yul\":3133:3213   */\n  tag_22\n  jump\t// in\ntag_66:\n    /* \"#utility.yul\":2792:3223   */\n  pop\n  pop\n    /* \"#utility.yul\":2777:3223   */\ntag_62:\n    /* \"#utility.yul\":2687:3230   */\n  pop\n  pop\n  pop\n  jump\t// out\n    /* \"#utility.yul\":3236:3353   */\ntag_24:\n    /* \"#utility.yul\":3290:3298   */\n  0x00\n    /* \"#utility.yul\":3340:3345   */\n  dup3\n    /* \"#utility.yul\":3334:3338   */\n  dup3\n    /* \"#utility.yul\":3330:3346   */\n  shr\n    /* \"#utility.yul\":3309:3346   */\n  swap1\n  pop\n    /* \"#utility.yul\":3236:3353   */\n  swap3\n  swap2\n  pop\n  pop\n  jump\t// out\n    /* \"#utility.yul\":3359:3528   */\ntag_25:\n    /* \"#utility.yul\":3403:3409   */\n  0x00\n    /* \"#utility.yul\":3436:3487   */\n  tag_70\n    /* \"#utility.yul\":3484:3485   */\n  0x00\n    /* \"#utility.yul\":3480:3486   */\n  not\n    /* \"#utility.yul\":3472:3477   */\n  dup5\n    /* \"#utility.yul\":3469:3470   */\n  0x08\n    /* \"#utility.yul\":3465:3478   */\n  mul\n    /* \"#utility.yul\":3436:3487   */\n  tag_24\n  jump\t// in\ntag_70:\n    /* \"#utility.yul\":3432:3488   */\n  not\n    /* \"#utility.yul\":3517:3521   */\n  dup1\n    /* \"#utility.yul\":3511:3515   */\n  dup4\n    /* \"#utility.yul\":3507:3522   */\n  and\n    /* \"#utility.yul\":3497:3522   */\n  swap2\n  pop\n    /* \"#utility.yul\":3410:3528   */\n  pop\n    /* \"#utility.yul\":3359:3528   */\n  swap3\n  swap2\n  pop\n  pop\n  jump\t// out\n    /* \"#utility.yul\":3533:3828   */\ntag_26:\n    /* \"#utility.yul\":3609:3613   */\n  0x00\n    /* \"#utility.yul\":3755:3784   */\n  tag_72\n    /* \"#utility.yul\":3780:3783   */\n  dup4\n    /* \"#utility.yul\":3774:3778   */\n  dup4\n    /* \"#utility.yul\":3755:3784   */\n  tag_25\n  jump\t// in\ntag_72:\n    /* \"#utility.yul\":3747:3784   */\n  swap2\n  pop\n    /* \"#utility.yul\":3817:3820   */\n  dup3\n    /* \"#utility.yul\":3814:3815   */\n  0x02\n    /* \"#utility.yul\":3810:3821   */\n  mul\n    /* \"#utility.yul\":3804:3808   */\n  dup3\n    /* \"#utility.yul\":3801:3822   */\n  or\n    /* \"#utility.yul\":3793:3822   */\n  swap1\n  pop\n    /* \"#utility.yul\":3533:3828   */\n  swap3\n  swap2\n  pop\n  pop\n  jump\t// out\n    /* \"#utility.yul\":3833:5228   */\ntag_2:\n    /* \"#utility.yul\":3950:3987   */\n  tag_74\n    /* \"#utility.yul\":3983:3986   */\n  dup3\n    /* \"#utility.yul\":3950:3987   */\n  tag_7\n  jump\t// in\ntag_74:\n    /* \"#utility.yul\":4052:4070   */\n  0xffffffffffffffff\n    /* \"#utility.yul\":4044:4050   */\n  dup2\n    /* \"#utility.yul\":4041:4071   */\n  gt\n    /* \"#utility.yul\":4038:4094   */\n  iszero\n  tag_75\n  jumpi\n    /* \"#utility.yul\":4074:4092   */\n  tag_76\n  tag_8\n  jump\t// in\ntag_76:\n    /* \"#utility.yul\":4038:4094   */\ntag_75:\n    /* \"#utility.yul\":4118:4156   */\n  tag_77\n    /* \"#utility.yul\":4150:4154   */\n  dup3\n    /* \"#utility.yul\":4144:4155   */\n  sload\n    /* \"#utility.yul\":4118:4156   */\n  tag_10\n  jump\t// in\ntag_77:\n    /* \"#utility.yul\":4203:4270   */\n  tag_78\n    /* \"#utility.yul\":4263:4269   */\n  dup3\n    /* \"#utility.yul\":4255:4261   */\n  dup3\n    /* \"#utility.yul\":4249:4253   */\n  dup6\n    /* \"#utility.yul\":4203:4270   */\n  tag_23\n  jump\t// in\ntag_78:\n    /* \"#utility.yul\":4297:4298   */\n  0x00\n    /* \"#utility.yul\":4321:4325   */\n  0x20\n    /* \"#utility.yul\":4308:4325   */\n  swap1\n  pop\n    /* \"#utility.yul\":4353:4355   */\n  0x1f\n    /* \"#utility.yul\":4345:4351   */\n  dup4\n    /* \"#utility.yul\":4342:4356   */\n  gt\n    /* \"#utility.yul\":4370:4371   */\n  0x01\n    /* \"#utility.yul\":4365:4983   */\n  dup2\n  eq\n  tag_80\n  jumpi\n    /* \"#utility.yul\":5027:5028   */\n  0x00\n    /* \"#utility.yul\":5044:5050   */\n  dup5\n    /* \"#utility.yul\":5041:5118   */\n  iszero\n  tag_81\n  jumpi\n    /* \"#utility.yul\":5093:5102   */\n  dup3\n    /* \"#utility.yul\":5088:5091   */\n  dup8\n    /* \"#utility.yul\":5084:5103   */\n  add\n    /* \"#utility.yul\":5078:5104   */\n  mload\n    /* \"#utility.yul\":5069:5104   */\n  swap1\n  pop\n    /* \"#utility.yul\":5041:5118   */\ntag_81:\n    /* \"#utility.yul\":5144:5211   */\n  tag_82\n    /* \"#utility.yul\":5204:5210   */\n  dup6\n    /* \"#utility.yul\":5197:5202   */\n  dup3\n    /* \"#utility.yul\":5144:5211   */\n  tag_26\n  jump\t// in\ntag_82:\n    /* \"#utility.yul\":5138:5142   */\n  dup7\n    /* \"#utility.yul\":5131:5212   */\n  sstore\n    /* \"#utility.yul\":5000:5222   */\n  pop\n    /* \"#utility.yul\":4335:5222   */\n  jump(tag_79)\n    /* \"#utility.yul\":4365:4983   */\ntag_80:\n    /* \"#utility.yul\":4417:4421   */\n  0x1f\n    /* \"#utility.yul\":4413:4422   */\n  not\n    /* \"#utility.yul\":4405:4411   */\n  dup5\n    /* \"#utility.yul\":4401:4423   */\n  and\n    /* \"#utility.yul\":4451:4488   */\n  tag_83\n    /* \"#utility.yul\":4483:4487   */\n  dup7\n    /* \"#utility.yul\":4451:4488   */\n  tag_11\n  jump\t// in\ntag_83:\n    /* \"#utility.yul\":4510:4511   */\n  0x00\n    /* \"#utility.yul\":4524:4732   */\ntag_84:\n    /* \"#utility.yul\":4538:4545   */\n  dup3\n    /* \"#utility.yul\":4535:4536   */\n  dup2\n    /* \"#utility.yul\":4532:4546   */\n  lt\n    /* \"#utility.yul\":4524:4732   */\n  iszero\n  tag_86\n  jumpi\n    /* \"#utility.yul\":4617:4626   */\n  dup5\n    /* \"#utility.yul\":4612:4615   */\n  dup10\n    /* \"#utility.yul\":4608:4627   */\n  add\n    /* \"#utility.yul\":4602:4628   */\n  mload\n    /* \"#utility.yul\":4594:4600   */\n  dup3\n    /* \"#utility.yul\":4587:4629   */\n  sstore\n    /* \"#utility.yul\":4668:4669   */\n  0x01\n    /* \"#utility.yul\":4660:4666   */\n  dup3\n    /* \"#utility.yul\":4656:4670   */\n  add\n    /* \"#utility.yul\":4646:4670   */\n  swap2\n  pop\n    /* \"#utility.yul\":4715:4717   */\n  0x20\n    /* \"#utility.yul\":4704:4713   */\n  dup6\n    /* \"#utility.yul\":4700:4718   */\n  add\n    /* \"#utility.yul\":4687:4718   */\n  swap5\n  pop\n    /* \"#utility.yul\":4561:4565   */\n  0x20\n    /* \"#utility.yul\":4558:4559   */\n  dup2\n    /* \"#utility.yul\":4554:4566   */\n  add\n    /* \"#utility.yul\":4549:4566   */\n  swap1\n  pop\n    /* \"#utility.yul\":4524:4732   */\n  jump(tag_84)\ntag_86:\n    /* \"#utility.yul\":4760:4766   */\n  dup7\n    /* \"#utility.yul\":4751:4758   */\n  dup4\n    /* \"#utility.yul\":4748:4767   */\n  lt\n    /* \"#utility.yul\":4745:4924   */\n  iszero\n  tag_87\n  jumpi\n    /* \"#utility.yul\":4818:4827   */\n  dup5\n    /* \"#utility.yul\":4813:4816   */\n  dup10\n    /* \"#utility.yul\":4809:4828   */\n  add\n    /* \"#utility.yul\":4803:4829   */\n  mload\n    /* \"#utility.yul\":4861:4909   */\n  tag_88\n    /* \"#utility.yul\":4903:4907   */\n  0x1f\n    /* \"#utility.yul\":4895:4901   */\n  dup10\n    /* \"#utility.yul\":4891:4908   */\n  and\n    /* \"#utility.yul\":4880:4889   */\n  dup3\n    /* \"#utility.yul\":4861:4909   */\n  tag_25\n  jump\t// in\ntag_88:\n    /* \"#utility.yul\":4853:4859   */\n  dup4\n    /* \"#utility.yul\":4846:4910   */\n  sstore\n    /* \"#utility.yul\":4768:4924   */\n  pop\n    /* \"#utility.yul\":4745:4924   */\ntag_87:\n    /* \"#utility.yul\":4970:4971   */\n  0x01\n    /* \"#utility.yul\":4966:4967   */\n  0x02\n    /* \"#utility.yul\":4958:4964   */\n  dup9\n    /* \"#utility.yul\":4954:4968   */\n  mul\n    /* \"#utility.yul\":4950:4972   */\n  add\n    /* \"#utility.yul\":4944:4948   */\n  dup9\n    /* \"#utility.yul\":4937:4973   */\n  sstore\n    /* \"#utility.yul\":4372:4983   */\n  pop\n  pop\n  pop\n    /* \"#utility.yul\":4335:5222   */\ntag_79:\n  pop\n    /* \"#utility.yul\":3925:5228   */\n  pop\n  pop\n  pop\n    /* \"#utility.yul\":3833:5228   */\n  pop\n  pop\n  jump\t// out\n    /* \"contracts/Reference.sol\":57:1035  contract Reference {... */\ntag_6:\n  dataSize(sub_0)\n  dup1\n  dataOffset(sub_0)\n  0x00\n  codecopy\n  0x00\n  return\nstop\n\nsub_0: assembly {\n        /* \"contracts/Reference.sol\":57:1035  contract Reference {... */\n      mstore(0x40, 0x80)\n      jumpi(tag_1, lt(calldatasize, 0x04))\n      shr(0xe0, calldataload(0x00))\n      dup1\n      0x51cff8d9\n      gt\n      tag_9\n      jumpi\n      dup1\n      0x51cff8d9\n      eq\n      tag_5\n      jumpi\n      dup1\n      0x771602f7\n      eq\n      tag_6\n      jumpi\n      dup1\n      0x8da5cb5b\n      eq\n      tag_7\n      jumpi\n      dup1\n      0xd0e30db0\n      eq\n      tag_8\n      jumpi\n      jump(tag_1)\n    tag_9:\n      dup1\n      0x06fdde03\n      eq\n      tag_2\n      jumpi\n      dup1\n      0x27e235e3\n      eq\n      tag_3\n      jumpi\n      dup1\n      0x3c18e7ca\n      eq\n      tag_4\n      jumpi\n    tag_1:\n      revert(0x00, 0x00)\n        /* \"contracts/Reference.sol\":537:580  string public name = \"Hello Kaia Developer\" */\n    tag_2:\n      callvalue\n      dup1\n      iszero\n      tag_10\n      jumpi\n      revert(0x00, 0x00)\n    tag_10:\n      pop\n      tag_11\n      tag_12\n      jump\t// in\n    tag_11:\n      mload(0x40)\n      tag_13\n      swap2\n      swap1\n      tag_14\n      jump\t// in\n    tag_13:\n      mload(0x40)\n      dup1\n      swap2\n      sub\n      swap1\n      return\n        /* \"contracts/Reference.sol\":289:332  mapping(address => uint256) public balances */\n    tag_3:\n      callvalue\n      dup1\n      iszero\n      tag_15\n      jumpi\n      revert(0x00, 0x00)\n    tag_15:\n      pop\n      tag_16\n      0x04\n      dup1\n      calldatasize\n      sub\n      dup2\n      add\n      swap1\n      tag_17\n      swap2\n      swap1\n      tag_18\n      jump\t// in\n    tag_17:\n      tag_19\n      jump\t// in\n    tag_16:\n      mload(0x40)\n      tag_20\n      swap2\n      swap1\n      tag_21\n      jump\t// in\n    tag_20:\n      mload(0x40)\n      dup1\n      swap2\n      sub\n      swap1\n      return\n        /* \"contracts/Reference.sol\":628:795  function compereString(string memory _name) public view  returns (bool) {... */\n    tag_4:\n      callvalue\n      dup1\n      iszero\n      tag_22\n      jumpi\n      revert(0x00, 0x00)\n    tag_22:\n      pop\n      tag_23\n      0x04\n      dup1\n      calldatasize\n      sub\n      dup2\n      add\n      swap1\n      tag_24\n      swap2\n      swap1\n      tag_25\n      jump\t// in\n    tag_24:\n      tag_26\n      jump\t// in\n    tag_23:\n      mload(0x40)\n      tag_27\n      swap2\n      swap1\n      tag_28\n      jump\t// in\n    tag_27:\n      mload(0x40)\n      dup1\n      swap2\n      sub\n      swap1\n      return\n        /* \"contracts/Reference.sol\":339:531  function withdraw(address _to) public onlyOwner {... */\n    tag_5:\n      callvalue\n      dup1\n      iszero\n      tag_29\n      jumpi\n      revert(0x00, 0x00)\n    tag_29:\n      pop\n      tag_30\n      0x04\n      dup1\n      calldatasize\n      sub\n      dup2\n      add\n      swap1\n      tag_31\n      swap2\n      swap1\n      tag_18\n      jump\t// in\n    tag_31:\n      tag_32\n      jump\t// in\n    tag_30:\n      stop\n        /* \"contracts/Reference.sol\":801:889  function add(uint _x, uint _y) public pure returns (uint) {... */\n    tag_6:\n      callvalue\n      dup1\n      iszero\n      tag_33\n      jumpi\n      revert(0x00, 0x00)\n    tag_33:\n      pop\n      tag_34\n      0x04\n      dup1\n      calldatasize\n      sub\n      dup2\n      add\n      swap1\n      tag_35\n      swap2\n      swap1\n      tag_36\n      jump\t// in\n    tag_35:\n      tag_37\n      jump\t// in\n    tag_34:\n      mload(0x40)\n      tag_38\n      swap2\n      swap1\n      tag_21\n      jump\t// in\n    tag_38:\n      mload(0x40)\n      dup1\n      swap2\n      sub\n      swap1\n      return\n        /* \"contracts/Reference.sol\":83:104  address public  owner */\n    tag_7:\n      callvalue\n      dup1\n      iszero\n      tag_39\n      jumpi\n      revert(0x00, 0x00)\n    tag_39:\n      pop\n      tag_40\n      tag_41\n      jump\t// in\n    tag_40:\n      mload(0x40)\n      tag_42\n      swap2\n      swap1\n      tag_43\n      jump\t// in\n    tag_42:\n      mload(0x40)\n      dup1\n      swap2\n      sub\n      swap1\n      return\n        /* \"contracts/Reference.sol\":948:1032  function deposit() public payable {... */\n    tag_8:\n      tag_44\n      tag_45\n      jump\t// in\n    tag_44:\n      stop\n        /* \"contracts/Reference.sol\":537:580  string public name = \"Hello Kaia Developer\" */\n    tag_12:\n      0x02\n      dup1\n      sload\n      tag_46\n      swap1\n      tag_47\n      jump\t// in\n    tag_46:\n      dup1\n      0x1f\n      add\n      0x20\n      dup1\n      swap2\n      div\n      mul\n      0x20\n      add\n      mload(0x40)\n      swap1\n      dup2\n      add\n      0x40\n      mstore\n      dup1\n      swap3\n      swap2\n      swap1\n      dup2\n      dup2\n      mstore\n      0x20\n      add\n      dup3\n      dup1\n      sload\n      tag_48\n      swap1\n      tag_47\n      jump\t// in\n    tag_48:\n      dup1\n      iszero\n      tag_49\n      jumpi\n      dup1\n      0x1f\n      lt\n      tag_50\n      jumpi\n      0x0100\n      dup1\n      dup4\n      sload\n      div\n      mul\n      dup4\n      mstore\n      swap2\n      0x20\n      add\n      swap2\n      jump(tag_49)\n    tag_50:\n      dup3\n      add\n      swap2\n      swap1\n      0x00\n      mstore\n      keccak256(0x00, 0x20)\n      swap1\n    tag_51:\n      dup2\n      sload\n      dup2\n      mstore\n      swap1\n      0x01\n      add\n      swap1\n      0x20\n      add\n      dup1\n      dup4\n      gt\n      tag_51\n      jumpi\n      dup3\n      swap1\n      sub\n      0x1f\n      and\n      dup3\n      add\n      swap2\n    tag_49:\n      pop\n      pop\n      pop\n      pop\n      pop\n      dup2\n      jump\t// out\n        /* \"contracts/Reference.sol\":289:332  mapping(address => uint256) public balances */\n    tag_19:\n      mstore(0x20, 0x01)\n      dup1\n      0x00\n      mstore\n      keccak256(0x00, 0x40)\n      0x00\n      swap2\n      pop\n      swap1\n      pop\n      sload\n      dup2\n      jump\t// out\n        /* \"contracts/Reference.sol\":628:795  function compereString(string memory _name) public view  returns (bool) {... */\n    tag_26:\n        /* \"contracts/Reference.sol\":694:698  bool */\n      0x00\n        /* \"contracts/Reference.sol\":782:786  name */\n      0x02\n        /* \"contracts/Reference.sol\":765:787  abi.encodePacked(name) */\n      add(0x20, mload(0x40))\n      tag_53\n      swap2\n      swap1\n      tag_54\n      jump\t// in\n    tag_53:\n      mload(0x40)\n      0x20\n      dup2\n      dup4\n      sub\n      sub\n      dup2\n      mstore\n      swap1\n      0x40\n      mstore\n        /* \"contracts/Reference.sol\":755:788  keccak256(abi.encodePacked(name)) */\n      dup1\n      mload\n      swap1\n      0x20\n      add\n      keccak256\n        /* \"contracts/Reference.sol\":744:749  _name */\n      dup3\n        /* \"contracts/Reference.sol\":727:750  abi.encodePacked(_name) */\n      add(0x20, mload(0x40))\n      tag_55\n      swap2\n      swap1\n      tag_56\n      jump\t// in\n    tag_55:\n      mload(0x40)\n      0x20\n      dup2\n      dup4\n      sub\n      sub\n      dup2\n      mstore\n      swap1\n      0x40\n      mstore\n        /* \"contracts/Reference.sol\":717:751  keccak256(abi.encodePacked(_name)) */\n      dup1\n      mload\n      swap1\n      0x20\n      add\n      keccak256\n        /* \"contracts/Reference.sol\":717:788  keccak256(abi.encodePacked(_name)) == keccak256(abi.encodePacked(name)) */\n      eq\n        /* \"contracts/Reference.sol\":710:788  return keccak256(abi.encodePacked(_name)) == keccak256(abi.encodePacked(name)) */\n      swap1\n      pop\n        /* \"contracts/Reference.sol\":628:795  function compereString(string memory _name) public view  returns (bool) {... */\n      swap2\n      swap1\n      pop\n      jump\t// out\n        /* \"contracts/Reference.sol\":339:531  function withdraw(address _to) public onlyOwner {... */\n    tag_32:\n        /* \"contracts/Reference.sol\":216:221  owner */\n      0x00\n      0x00\n      swap1\n      sload\n      swap1\n      0x0100\n      exp\n      swap1\n      div\n      0xffffffffffffffffffffffffffffffffffffffff\n      and\n        /* \"contracts/Reference.sol\":202:221  msg.sender == owner */\n      0xffffffffffffffffffffffffffffffffffffffff\n      and\n        /* \"contracts/Reference.sol\":202:212  msg.sender */\n      caller\n        /* \"contracts/Reference.sol\":202:221  msg.sender == owner */\n      0xffffffffffffffffffffffffffffffffffffffff\n      and\n      eq\n        /* \"contracts/Reference.sol\":194:239  require(msg.sender == owner, \"Not the Owner\") */\n      tag_58\n      jumpi\n      mload(0x40)\n      0x08c379a000000000000000000000000000000000000000000000000000000000\n      dup2\n      mstore\n      0x04\n      add\n      tag_59\n      swap1\n      tag_60\n      jump\t// in\n    tag_59:\n      mload(0x40)\n      dup1\n      swap2\n      sub\n      swap1\n      revert\n    tag_58:\n        /* \"contracts/Reference.sol\":397:405  uint bal */\n      0x00\n        /* \"contracts/Reference.sol\":408:429  address(this).balance */\n      selfbalance\n        /* \"contracts/Reference.sol\":397:429  uint bal = address(this).balance */\n      swap1\n      pop\n        /* \"contracts/Reference.sol\":440:449  bool sent */\n      0x00\n        /* \"contracts/Reference.sol\":454:457  _to */\n      dup3\n        /* \"contracts/Reference.sol\":454:462  _to.call */\n      0xffffffffffffffffffffffffffffffffffffffff\n      and\n        /* \"contracts/Reference.sol\":469:472  bal */\n      dup3\n        /* \"contracts/Reference.sol\":454:477  _to.call{value:bal}(\"\") */\n      mload(0x40)\n      tag_62\n      swap1\n      tag_63\n      jump\t// in\n    tag_62:\n      0x00\n      mload(0x40)\n      dup1\n      dup4\n      sub\n      dup2\n      dup6\n      dup8\n      gas\n      call\n      swap3\n      pop\n      pop\n      pop\n      returndatasize\n      dup1\n      0x00\n      dup2\n      eq\n      tag_66\n      jumpi\n      mload(0x40)\n      swap2\n      pop\n      and(add(returndatasize, 0x3f), not(0x1f))\n      dup3\n      add\n      0x40\n      mstore\n      returndatasize\n      dup3\n      mstore\n      returndatasize\n      0x00\n      0x20\n      dup5\n      add\n      returndatacopy\n      jump(tag_65)\n    tag_66:\n      0x60\n      swap2\n      pop\n    tag_65:\n      pop\n        /* \"contracts/Reference.sol\":439:477  (bool sent,) = _to.call{value:bal}(\"\") */\n      pop\n      swap1\n      pop\n        /* \"contracts/Reference.sol\":495:499  sent */\n      dup1\n        /* \"contracts/Reference.sol\":487:524  require(sent, \"Failed to send Ether\") */\n      tag_67\n      jumpi\n      mload(0x40)\n      0x08c379a000000000000000000000000000000000000000000000000000000000\n      dup2\n      mstore\n      0x04\n      add\n      tag_68\n      swap1\n      tag_69\n      jump\t// in\n    tag_68:\n      mload(0x40)\n      dup1\n      swap2\n      sub\n      swap1\n      revert\n    tag_67:\n        /* \"contracts/Reference.sol\":387:531  {... */\n      pop\n      pop\n        /* \"contracts/Reference.sol\":339:531  function withdraw(address _to) public onlyOwner {... */\n      pop\n      jump\t// out\n        /* \"contracts/Reference.sol\":801:889  function add(uint _x, uint _y) public pure returns (uint) {... */\n    tag_37:\n        /* \"contracts/Reference.sol\":853:857  uint */\n      0x00\n        /* \"contracts/Reference.sol\":880:882  _y */\n      dup2\n        /* \"contracts/Reference.sol\":876:878  _x */\n      dup4\n        /* \"contracts/Reference.sol\":876:882  _x +_y */\n      tag_71\n      swap2\n      swap1\n      tag_72\n      jump\t// in\n    tag_71:\n        /* \"contracts/Reference.sol\":869:882  return _x +_y */\n      swap1\n      pop\n        /* \"contracts/Reference.sol\":801:889  function add(uint _x, uint _y) public pure returns (uint) {... */\n      swap3\n      swap2\n      pop\n      pop\n      jump\t// out\n        /* \"contracts/Reference.sol\":83:104  address public  owner */\n    tag_41:\n      0x00\n      0x00\n      swap1\n      sload\n      swap1\n      0x0100\n      exp\n      swap1\n      div\n      0xffffffffffffffffffffffffffffffffffffffff\n      and\n      dup2\n      jump\t// out\n        /* \"contracts/Reference.sol\":948:1032  function deposit() public payable {... */\n    tag_45:\n        /* \"contracts/Reference.sol\":1016:1025  msg.value */\n      callvalue\n        /* \"contracts/Reference.sol\":992:1000  balances */\n      0x01\n        /* \"contracts/Reference.sol\":992:1012  balances[msg.sender] */\n      0x00\n        /* \"contracts/Reference.sol\":1001:1011  msg.sender */\n      caller\n        /* \"contracts/Reference.sol\":992:1012  balances[msg.sender] */\n      0xffffffffffffffffffffffffffffffffffffffff\n      and\n      0xffffffffffffffffffffffffffffffffffffffff\n      and\n      dup2\n      mstore\n      0x20\n      add\n      swap1\n      dup2\n      mstore\n      0x20\n      add\n      0x00\n      keccak256\n      0x00\n        /* \"contracts/Reference.sol\":992:1025  balances[msg.sender] += msg.value */\n      dup3\n      dup3\n      sload\n      tag_74\n      swap2\n      swap1\n      tag_72\n      jump\t// in\n    tag_74:\n      swap3\n      pop\n      pop\n      dup2\n      swap1\n      sstore\n      pop\n        /* \"contracts/Reference.sol\":948:1032  function deposit() public payable {... */\n      jump\t// out\n        /* \"#utility.yul\":7:106   */\n    tag_75:\n        /* \"#utility.yul\":59:65   */\n      0x00\n        /* \"#utility.yul\":93:98   */\n      dup2\n        /* \"#utility.yul\":87:99   */\n      mload\n        /* \"#utility.yul\":77:99   */\n      swap1\n      pop\n        /* \"#utility.yul\":7:106   */\n      swap2\n      swap1\n      pop\n      jump\t// out\n        /* \"#utility.yul\":112:281   */\n    tag_76:\n        /* \"#utility.yul\":196:207   */\n      0x00\n        /* \"#utility.yul\":230:236   */\n      dup3\n        /* \"#utility.yul\":225:228   */\n      dup3\n        /* \"#utility.yul\":218:237   */\n      mstore\n        /* \"#utility.yul\":270:274   */\n      0x20\n        /* \"#utility.yul\":265:268   */\n      dup3\n        /* \"#utility.yul\":261:275   */\n      add\n        /* \"#utility.yul\":246:275   */\n      swap1\n      pop\n        /* \"#utility.yul\":112:281   */\n      swap3\n      swap2\n      pop\n      pop\n      jump\t// out\n        /* \"#utility.yul\":287:426   */\n    tag_77:\n        /* \"#utility.yul\":376:382   */\n      dup3\n        /* \"#utility.yul\":371:374   */\n      dup2\n        /* \"#utility.yul\":366:369   */\n      dup4\n        /* \"#utility.yul\":360:383   */\n      mcopy\n        /* \"#utility.yul\":417:418   */\n      0x00\n        /* \"#utility.yul\":408:414   */\n      dup4\n        /* \"#utility.yul\":403:406   */\n      dup4\n        /* \"#utility.yul\":399:415   */\n      add\n        /* \"#utility.yul\":392:419   */\n      mstore\n        /* \"#utility.yul\":287:426   */\n      pop\n      pop\n      pop\n      jump\t// out\n        /* \"#utility.yul\":432:534   */\n    tag_78:\n        /* \"#utility.yul\":473:479   */\n      0x00\n        /* \"#utility.yul\":524:526   */\n      0x1f\n        /* \"#utility.yul\":520:527   */\n      not\n        /* \"#utility.yul\":515:517   */\n      0x1f\n        /* \"#utility.yul\":508:513   */\n      dup4\n        /* \"#utility.yul\":504:518   */\n      add\n        /* \"#utility.yul\":500:528   */\n      and\n        /* \"#utility.yul\":490:528   */\n      swap1\n      pop\n        /* \"#utility.yul\":432:534   */\n      swap2\n      swap1\n      pop\n      jump\t// out\n        /* \"#utility.yul\":540:917   */\n    tag_79:\n        /* \"#utility.yul\":628:631   */\n      0x00\n        /* \"#utility.yul\":656:695   */\n      tag_122\n        /* \"#utility.yul\":689:694   */\n      dup3\n        /* \"#utility.yul\":656:695   */\n      tag_75\n      jump\t// in\n    tag_122:\n        /* \"#utility.yul\":711:782   */\n      tag_123\n        /* \"#utility.yul\":775:781   */\n      dup2\n        /* \"#utility.yul\":770:773   */\n      dup6\n        /* \"#utility.yul\":711:782   */\n      tag_76\n      jump\t// in\n    tag_123:\n        /* \"#utility.yul\":704:782   */\n      swap4\n      pop\n        /* \"#utility.yul\":791:856   */\n      tag_124\n        /* \"#utility.yul\":849:855   */\n      dup2\n        /* \"#utility.yul\":844:847   */\n      dup6\n        /* \"#utility.yul\":837:841   */\n      0x20\n        /* \"#utility.yul\":830:835   */\n      dup7\n        /* \"#utility.yul\":826:842   */\n      add\n        /* \"#utility.yul\":791:856   */\n      tag_77\n      jump\t// in\n    tag_124:\n        /* \"#utility.yul\":881:910   */\n      tag_125\n        /* \"#utility.yul\":903:909   */\n      dup2\n        /* \"#utility.yul\":881:910   */\n      tag_78\n      jump\t// in\n    tag_125:\n        /* \"#utility.yul\":876:879   */\n      dup5\n        /* \"#utility.yul\":872:911   */\n      add\n        /* \"#utility.yul\":865:911   */\n      swap2\n      pop\n        /* \"#utility.yul\":632:917   */\n      pop\n        /* \"#utility.yul\":540:917   */\n      swap3\n      swap2\n      pop\n      pop\n      jump\t// out\n        /* \"#utility.yul\":923:1236   */\n    tag_14:\n        /* \"#utility.yul\":1036:1040   */\n      0x00\n        /* \"#utility.yul\":1074:1076   */\n      0x20\n        /* \"#utility.yul\":1063:1072   */\n      dup3\n        /* \"#utility.yul\":1059:1077   */\n      add\n        /* \"#utility.yul\":1051:1077   */\n      swap1\n      pop\n        /* \"#utility.yul\":1123:1132   */\n      dup2\n        /* \"#utility.yul\":1117:1121   */\n      dup2\n        /* \"#utility.yul\":1113:1133   */\n      sub\n        /* \"#utility.yul\":1109:1110   */\n      0x00\n        /* \"#utility.yul\":1098:1107   */\n      dup4\n        /* \"#utility.yul\":1094:1111   */\n      add\n        /* \"#utility.yul\":1087:1134   */\n      mstore\n        /* \"#utility.yul\":1151:1229   */\n      tag_127\n        /* \"#utility.yul\":1224:1228   */\n      dup2\n        /* \"#utility.yul\":1215:1221   */\n      dup5\n        /* \"#utility.yul\":1151:1229   */\n      tag_79\n      jump\t// in\n    tag_127:\n        /* \"#utility.yul\":1143:1229   */\n      swap1\n      pop\n        /* \"#utility.yul\":923:1236   */\n      swap3\n      swap2\n      pop\n      pop\n      jump\t// out\n        /* \"#utility.yul\":1242:1317   */\n    tag_80:\n        /* \"#utility.yul\":1275:1281   */\n      0x00\n        /* \"#utility.yul\":1308:1310   */\n      0x40\n        /* \"#utility.yul\":1302:1311   */\n      mload\n        /* \"#utility.yul\":1292:1311   */\n      swap1\n      pop\n        /* \"#utility.yul\":1242:1317   */\n      swap1\n      jump\t// out\n        /* \"#utility.yul\":1323:1440   */\n    tag_81:\n        /* \"#utility.yul\":1432:1433   */\n      0x00\n        /* \"#utility.yul\":1429:1430   */\n      0x00\n        /* \"#utility.yul\":1422:1434   */\n      revert\n        /* \"#utility.yul\":1446:1563   */\n    tag_82:\n        /* \"#utility.yul\":1555:1556   */\n      0x00\n        /* \"#utility.yul\":1552:1553   */\n      0x00\n        /* \"#utility.yul\":1545:1557   */\n      revert\n        /* \"#utility.yul\":1569:1695   */\n    tag_83:\n        /* \"#utility.yul\":1606:1613   */\n      0x00\n        /* \"#utility.yul\":1646:1688   */\n      0xffffffffffffffffffffffffffffffffffffffff\n        /* \"#utility.yul\":1639:1644   */\n      dup3\n        /* \"#utility.yul\":1635:1689   */\n      and\n        /* \"#utility.yul\":1624:1689   */\n      swap1\n      pop\n        /* \"#utility.yul\":1569:1695   */\n      swap2\n      swap1\n      pop\n      jump\t// out\n        /* \"#utility.yul\":1701:1797   */\n    tag_84:\n        /* \"#utility.yul\":1738:1745   */\n      0x00\n        /* \"#utility.yul\":1767:1791   */\n      tag_133\n        /* \"#utility.yul\":1785:1790   */\n      dup3\n        /* \"#utility.yul\":1767:1791   */\n      tag_83\n      jump\t// in\n    tag_133:\n        /* \"#utility.yul\":1756:1791   */\n      swap1\n      pop\n        /* \"#utility.yul\":1701:1797   */\n      swap2\n      swap1\n      pop\n      jump\t// out\n        /* \"#utility.yul\":1803:1925   */\n    tag_85:\n        /* \"#utility.yul\":1876:1900   */\n      tag_135\n        /* \"#utility.yul\":1894:1899   */\n      dup2\n        /* \"#utility.yul\":1876:1900   */\n      tag_84\n      jump\t// in\n    tag_135:\n        /* \"#utility.yul\":1869:1874   */\n      dup2\n        /* \"#utility.yul\":1866:1901   */\n      eq\n        /* \"#utility.yul\":1856:1919   */\n      tag_136\n      jumpi\n        /* \"#utility.yul\":1915:1916   */\n      0x00\n        /* \"#utility.yul\":1912:1913   */\n      0x00\n        /* \"#utility.yul\":1905:1917   */\n      revert\n        /* \"#utility.yul\":1856:1919   */\n    tag_136:\n        /* \"#utility.yul\":1803:1925   */\n      pop\n      jump\t// out\n        /* \"#utility.yul\":1931:2070   */\n    tag_86:\n        /* \"#utility.yul\":1977:1982   */\n      0x00\n        /* \"#utility.yul\":2015:2021   */\n      dup2\n        /* \"#utility.yul\":2002:2022   */\n      calldataload\n        /* \"#utility.yul\":1993:2022   */\n      swap1\n      pop\n        /* \"#utility.yul\":2031:2064   */\n      tag_138\n        /* \"#utility.yul\":2058:2063   */\n      dup2\n        /* \"#utility.yul\":2031:2064   */\n      tag_85\n      jump\t// in\n    tag_138:\n        /* \"#utility.yul\":1931:2070   */\n      swap3\n      swap2\n      pop\n      pop\n      jump\t// out\n        /* \"#utility.yul\":2076:2405   */\n    tag_18:\n        /* \"#utility.yul\":2135:2141   */\n      0x00\n        /* \"#utility.yul\":2184:2186   */\n      0x20\n        /* \"#utility.yul\":2172:2181   */\n      dup3\n        /* \"#utility.yul\":2163:2170   */\n      dup5\n        /* \"#utility.yul\":2159:2182   */\n      sub\n        /* \"#utility.yul\":2155:2187   */\n      slt\n        /* \"#utility.yul\":2152:2271   */\n      iszero\n      tag_140\n      jumpi\n        /* \"#utility.yul\":2190:2269   */\n      tag_141\n      tag_81\n      jump\t// in\n    tag_141:\n        /* \"#utility.yul\":2152:2271   */\n    tag_140:\n        /* \"#utility.yul\":2310:2311   */\n      0x00\n        /* \"#utility.yul\":2335:2388   */\n      tag_142\n        /* \"#utility.yul\":2380:2387   */\n      dup5\n        /* \"#utility.yul\":2371:2377   */\n      dup3\n        /* \"#utility.yul\":2360:2369   */\n      dup6\n        /* \"#utility.yul\":2356:2378   */\n      add\n        /* \"#utility.yul\":2335:2388   */\n      tag_86\n      jump\t// in\n    tag_142:\n        /* \"#utility.yul\":2325:2388   */\n      swap2\n      pop\n        /* \"#utility.yul\":2281:2398   */\n      pop\n        /* \"#utility.yul\":2076:2405   */\n      swap3\n      swap2\n      pop\n      pop\n      jump\t// out\n        /* \"#utility.yul\":2411:2488   */\n    tag_87:\n        /* \"#utility.yul\":2448:2455   */\n      0x00\n        /* \"#utility.yul\":2477:2482   */\n      dup2\n        /* \"#utility.yul\":2466:2482   */\n      swap1\n      pop\n        /* \"#utility.yul\":2411:2488   */\n      swap2\n      swap1\n      pop\n      jump\t// out\n        /* \"#utility.yul\":2494:2612   */\n    tag_88:\n        /* \"#utility.yul\":2581:2605   */\n      tag_145\n        /* \"#utility.yul\":2599:2604   */\n      dup2\n        /* \"#utility.yul\":2581:2605   */\n      tag_87\n      jump\t// in\n    tag_145:\n        /* \"#utility.yul\":2576:2579   */\n      dup3\n        /* \"#utility.yul\":2569:2606   */\n      mstore\n        /* \"#utility.yul\":2494:2612   */\n      pop\n      pop\n      jump\t// out\n        /* \"#utility.yul\":2618:2840   */\n    tag_21:\n        /* \"#utility.yul\":2711:2715   */\n      0x00\n        /* \"#utility.yul\":2749:2751   */\n      0x20\n        /* \"#utility.yul\":2738:2747   */\n      dup3\n        /* \"#utility.yul\":2734:2752   */\n      add\n        /* \"#utility.yul\":2726:2752   */\n      swap1\n      pop\n        /* \"#utility.yul\":2762:2833   */\n      tag_147\n        /* \"#utility.yul\":2830:2831   */\n      0x00\n        /* \"#utility.yul\":2819:2828   */\n      dup4\n        /* \"#utility.yul\":2815:2832   */\n      add\n        /* \"#utility.yul\":2806:2812   */\n      dup5\n        /* \"#utility.yul\":2762:2833   */\n      tag_88\n      jump\t// in\n    tag_147:\n        /* \"#utility.yul\":2618:2840   */\n      swap3\n      swap2\n      pop\n      pop\n      jump\t// out\n        /* \"#utility.yul\":2846:2963   */\n    tag_89:\n        /* \"#utility.yul\":2955:2956   */\n      0x00\n        /* \"#utility.yul\":2952:2953   */\n      0x00\n        /* \"#utility.yul\":2945:2957   */\n      revert\n        /* \"#utility.yul\":2969:3086   */\n    tag_90:\n        /* \"#utility.yul\":3078:3079   */\n      0x00\n        /* \"#utility.yul\":3075:3076   */\n      0x00\n        /* \"#utility.yul\":3068:3080   */\n      revert\n        /* \"#utility.yul\":3092:3272   */\n    tag_91:\n        /* \"#utility.yul\":3140:3217   */\n      0x4e487b7100000000000000000000000000000000000000000000000000000000\n        /* \"#utility.yul\":3137:3138   */\n      0x00\n        /* \"#utility.yul\":3130:3218   */\n      mstore\n        /* \"#utility.yul\":3237:3241   */\n      0x41\n        /* \"#utility.yul\":3234:3235   */\n      0x04\n        /* \"#utility.yul\":3227:3242   */\n      mstore\n        /* \"#utility.yul\":3261:3265   */\n      0x24\n        /* \"#utility.yul\":3258:3259   */\n      0x00\n        /* \"#utility.yul\":3251:3266   */\n      revert\n        /* \"#utility.yul\":3278:3559   */\n    tag_92:\n        /* \"#utility.yul\":3361:3388   */\n      tag_152\n        /* \"#utility.yul\":3383:3387   */\n      dup3\n        /* \"#utility.yul\":3361:3388   */\n      tag_78\n      jump\t// in\n    tag_152:\n        /* \"#utility.yul\":3353:3359   */\n      dup2\n        /* \"#utility.yul\":3349:3389   */\n      add\n        /* \"#utility.yul\":3491:3497   */\n      dup2\n        /* \"#utility.yul\":3479:3489   */\n      dup2\n        /* \"#utility.yul\":3476:3498   */\n      lt\n        /* \"#utility.yul\":3455:3473   */\n      0xffffffffffffffff\n        /* \"#utility.yul\":3443:3453   */\n      dup3\n        /* \"#utility.yul\":3440:3474   */\n      gt\n        /* \"#utility.yul\":3437:3499   */\n      or\n        /* \"#utility.yul\":3434:3522   */\n      iszero\n      tag_153\n      jumpi\n        /* \"#utility.yul\":3502:3520   */\n      tag_154\n      tag_91\n      jump\t// in\n    tag_154:\n        /* \"#utility.yul\":3434:3522   */\n    tag_153:\n        /* \"#utility.yul\":3542:3552   */\n      dup1\n        /* \"#utility.yul\":3538:3540   */\n      0x40\n        /* \"#utility.yul\":3531:3553   */\n      mstore\n        /* \"#utility.yul\":3321:3559   */\n      pop\n        /* \"#utility.yul\":3278:3559   */\n      pop\n      pop\n      jump\t// out\n        /* \"#utility.yul\":3565:3694   */\n    tag_93:\n        /* \"#utility.yul\":3599:3605   */\n      0x00\n        /* \"#utility.yul\":3626:3646   */\n      tag_156\n      tag_80\n      jump\t// in\n    tag_156:\n        /* \"#utility.yul\":3616:3646   */\n      swap1\n      pop\n        /* \"#utility.yul\":3655:3688   */\n      tag_157\n        /* \"#utility.yul\":3683:3687   */\n      dup3\n        /* \"#utility.yul\":3675:3681   */\n      dup3\n        /* \"#utility.yul\":3655:3688   */\n      tag_92\n      jump\t// in\n    tag_157:\n        /* \"#utility.yul\":3565:3694   */\n      swap2\n      swap1\n      pop\n      jump\t// out\n        /* \"#utility.yul\":3700:4008   */\n    tag_94:\n        /* \"#utility.yul\":3762:3766   */\n      0x00\n        /* \"#utility.yul\":3852:3870   */\n      0xffffffffffffffff\n        /* \"#utility.yul\":3844:3850   */\n      dup3\n        /* \"#utility.yul\":3841:3871   */\n      gt\n        /* \"#utility.yul\":3838:3894   */\n      iszero\n      tag_159\n      jumpi\n        /* \"#utility.yul\":3874:3892   */\n      tag_160\n      tag_91\n      jump\t// in\n    tag_160:\n        /* \"#utility.yul\":3838:3894   */\n    tag_159:\n        /* \"#utility.yul\":3912:3941   */\n      tag_161\n        /* \"#utility.yul\":3934:3940   */\n      dup3\n        /* \"#utility.yul\":3912:3941   */\n      tag_78\n      jump\t// in\n    tag_161:\n        /* \"#utility.yul\":3904:3941   */\n      swap1\n      pop\n        /* \"#utility.yul\":3996:4000   */\n      0x20\n        /* \"#utility.yul\":3990:3994   */\n      dup2\n        /* \"#utility.yul\":3986:4001   */\n      add\n        /* \"#utility.yul\":3978:4001   */\n      swap1\n      pop\n        /* \"#utility.yul\":3700:4008   */\n      swap2\n      swap1\n      pop\n      jump\t// out\n        /* \"#utility.yul\":4014:4162   */\n    tag_95:\n        /* \"#utility.yul\":4112:4118   */\n      dup3\n        /* \"#utility.yul\":4107:4110   */\n      dup2\n        /* \"#utility.yul\":4102:4105   */\n      dup4\n        /* \"#utility.yul\":4089:4119   */\n      calldatacopy\n        /* \"#utility.yul\":4153:4154   */\n      0x00\n        /* \"#utility.yul\":4144:4150   */\n      dup4\n        /* \"#utility.yul\":4139:4142   */\n      dup4\n        /* \"#utility.yul\":4135:4151   */\n      add\n        /* \"#utility.yul\":4128:4155   */\n      mstore\n        /* \"#utility.yul\":4014:4162   */\n      pop\n      pop\n      pop\n      jump\t// out\n        /* \"#utility.yul\":4168:4593   */\n    tag_96:\n        /* \"#utility.yul\":4246:4251   */\n      0x00\n        /* \"#utility.yul\":4271:4337   */\n      tag_164\n        /* \"#utility.yul\":4287:4336   */\n      tag_165\n        /* \"#utility.yul\":4329:4335   */\n      dup5\n        /* \"#utility.yul\":4287:4336   */\n      tag_94\n      jump\t// in\n    tag_165:\n        /* \"#utility.yul\":4271:4337   */\n      tag_93\n      jump\t// in\n    tag_164:\n        /* \"#utility.yul\":4262:4337   */\n      swap1\n      pop\n        /* \"#utility.yul\":4360:4366   */\n      dup3\n        /* \"#utility.yul\":4353:4358   */\n      dup2\n        /* \"#utility.yul\":4346:4367   */\n      mstore\n        /* \"#utility.yul\":4398:4402   */\n      0x20\n        /* \"#utility.yul\":4391:4396   */\n      dup2\n        /* \"#utility.yul\":4387:4403   */\n      add\n        /* \"#utility.yul\":4436:4439   */\n      dup5\n        /* \"#utility.yul\":4427:4433   */\n      dup5\n        /* \"#utility.yul\":4422:4425   */\n      dup5\n        /* \"#utility.yul\":4418:4434   */\n      add\n        /* \"#utility.yul\":4415:4440   */\n      gt\n        /* \"#utility.yul\":4412:4524   */\n      iszero\n      tag_166\n      jumpi\n        /* \"#utility.yul\":4443:4522   */\n      tag_167\n      tag_90\n      jump\t// in\n    tag_167:\n        /* \"#utility.yul\":4412:4524   */\n    tag_166:\n        /* \"#utility.yul\":4533:4587   */\n      tag_168\n        /* \"#utility.yul\":4580:4586   */\n      dup5\n        /* \"#utility.yul\":4575:4578   */\n      dup3\n        /* \"#utility.yul\":4570:4573   */\n      dup6\n        /* \"#utility.yul\":4533:4587   */\n      tag_95\n      jump\t// in\n    tag_168:\n        /* \"#utility.yul\":4252:4593   */\n      pop\n        /* \"#utility.yul\":4168:4593   */\n      swap4\n      swap3\n      pop\n      pop\n      pop\n      jump\t// out\n        /* \"#utility.yul\":4613:4953   */\n    tag_97:\n        /* \"#utility.yul\":4669:4674   */\n      0x00\n        /* \"#utility.yul\":4718:4721   */\n      dup3\n        /* \"#utility.yul\":4711:4715   */\n      0x1f\n        /* \"#utility.yul\":4703:4709   */\n      dup4\n        /* \"#utility.yul\":4699:4716   */\n      add\n        /* \"#utility.yul\":4695:4722   */\n      slt\n        /* \"#utility.yul\":4685:4807   */\n      tag_170\n      jumpi\n        /* \"#utility.yul\":4726:4805   */\n      tag_171\n      tag_89\n      jump\t// in\n    tag_171:\n        /* \"#utility.yul\":4685:4807   */\n    tag_170:\n        /* \"#utility.yul\":4843:4849   */\n      dup2\n        /* \"#utility.yul\":4830:4850   */\n      calldataload\n        /* \"#utility.yul\":4868:4947   */\n      tag_172\n        /* \"#utility.yul\":4943:4946   */\n      dup5\n        /* \"#utility.yul\":4935:4941   */\n      dup3\n        /* \"#utility.yul\":4928:4932   */\n      0x20\n        /* \"#utility.yul\":4920:4926   */\n      dup7\n        /* \"#utility.yul\":4916:4933   */\n      add\n        /* \"#utility.yul\":4868:4947   */\n      tag_96\n      jump\t// in\n    tag_172:\n        /* \"#utility.yul\":4859:4947   */\n      swap2\n      pop\n        /* \"#utility.yul\":4675:4953   */\n      pop\n        /* \"#utility.yul\":4613:4953   */\n      swap3\n      swap2\n      pop\n      pop\n      jump\t// out\n        /* \"#utility.yul\":4959:5468   */\n    tag_25:\n        /* \"#utility.yul\":5028:5034   */\n      0x00\n        /* \"#utility.yul\":5077:5079   */\n      0x20\n        /* \"#utility.yul\":5065:5074   */\n      dup3\n        /* \"#utility.yul\":5056:5063   */\n      dup5\n        /* \"#utility.yul\":5052:5075   */\n      sub\n        /* \"#utility.yul\":5048:5080   */\n      slt\n        /* \"#utility.yul\":5045:5164   */\n      iszero\n      tag_174\n      jumpi\n        /* \"#utility.yul\":5083:5162   */\n      tag_175\n      tag_81\n      jump\t// in\n    tag_175:\n        /* \"#utility.yul\":5045:5164   */\n    tag_174:\n        /* \"#utility.yul\":5231:5232   */\n      0x00\n        /* \"#utility.yul\":5220:5229   */\n      dup3\n        /* \"#utility.yul\":5216:5233   */\n      add\n        /* \"#utility.yul\":5203:5234   */\n      calldataload\n        /* \"#utility.yul\":5261:5279   */\n      0xffffffffffffffff\n        /* \"#utility.yul\":5253:5259   */\n      dup2\n        /* \"#utility.yul\":5250:5280   */\n      gt\n        /* \"#utility.yul\":5247:5364   */\n      iszero\n      tag_176\n      jumpi\n        /* \"#utility.yul\":5283:5362   */\n      tag_177\n      tag_82\n      jump\t// in\n    tag_177:\n        /* \"#utility.yul\":5247:5364   */\n    tag_176:\n        /* \"#utility.yul\":5388:5451   */\n      tag_178\n        /* \"#utility.yul\":5443:5450   */\n      dup5\n        /* \"#utility.yul\":5434:5440   */\n      dup3\n        /* \"#utility.yul\":5423:5432   */\n      dup6\n        /* \"#utility.yul\":5419:5441   */\n      add\n        /* \"#utility.yul\":5388:5451   */\n      tag_97\n      jump\t// in\n    tag_178:\n        /* \"#utility.yul\":5378:5451   */\n      swap2\n      pop\n        /* \"#utility.yul\":5174:5461   */\n      pop\n        /* \"#utility.yul\":4959:5468   */\n      swap3\n      swap2\n      pop\n      pop\n      jump\t// out\n        /* \"#utility.yul\":5474:5564   */\n    tag_98:\n        /* \"#utility.yul\":5508:5515   */\n      0x00\n        /* \"#utility.yul\":5551:5556   */\n      dup2\n        /* \"#utility.yul\":5544:5557   */\n      iszero\n        /* \"#utility.yul\":5537:5558   */\n      iszero\n        /* \"#utility.yul\":5526:5558   */\n      swap1\n      pop\n        /* \"#utility.yul\":5474:5564   */\n      swap2\n      swap1\n      pop\n      jump\t// out\n        /* \"#utility.yul\":5570:5679   */\n    tag_99:\n        /* \"#utility.yul\":5651:5672   */\n      tag_181\n        /* \"#utility.yul\":5666:5671   */\n      dup2\n        /* \"#utility.yul\":5651:5672   */\n      tag_98\n      jump\t// in\n    tag_181:\n        /* \"#utility.yul\":5646:5649   */\n      dup3\n        /* \"#utility.yul\":5639:5673   */\n      mstore\n        /* \"#utility.yul\":5570:5679   */\n      pop\n      pop\n      jump\t// out\n        /* \"#utility.yul\":5685:5895   */\n    tag_28:\n        /* \"#utility.yul\":5772:5776   */\n      0x00\n        /* \"#utility.yul\":5810:5812   */\n      0x20\n        /* \"#utility.yul\":5799:5808   */\n      dup3\n        /* \"#utility.yul\":5795:5813   */\n      add\n        /* \"#utility.yul\":5787:5813   */\n      swap1\n      pop\n        /* \"#utility.yul\":5823:5888   */\n      tag_183\n        /* \"#utility.yul\":5885:5886   */\n      0x00\n        /* \"#utility.yul\":5874:5883   */\n      dup4\n        /* \"#utility.yul\":5870:5887   */\n      add\n        /* \"#utility.yul\":5861:5867   */\n      dup5\n        /* \"#utility.yul\":5823:5888   */\n      tag_99\n      jump\t// in\n    tag_183:\n        /* \"#utility.yul\":5685:5895   */\n      swap3\n      swap2\n      pop\n      pop\n      jump\t// out\n        /* \"#utility.yul\":5901:6023   */\n    tag_100:\n        /* \"#utility.yul\":5974:5998   */\n      tag_185\n        /* \"#utility.yul\":5992:5997   */\n      dup2\n        /* \"#utility.yul\":5974:5998   */\n      tag_87\n      jump\t// in\n    tag_185:\n        /* \"#utility.yul\":5967:5972   */\n      dup2\n        /* \"#utility.yul\":5964:5999   */\n      eq\n        /* \"#utility.yul\":5954:6017   */\n      tag_186\n      jumpi\n        /* \"#utility.yul\":6013:6014   */\n      0x00\n        /* \"#utility.yul\":6010:6011   */\n      0x00\n        /* \"#utility.yul\":6003:6015   */\n      revert\n        /* \"#utility.yul\":5954:6017   */\n    tag_186:\n        /* \"#utility.yul\":5901:6023   */\n      pop\n      jump\t// out\n        /* \"#utility.yul\":6029:6168   */\n    tag_101:\n        /* \"#utility.yul\":6075:6080   */\n      0x00\n        /* \"#utility.yul\":6113:6119   */\n      dup2\n        /* \"#utility.yul\":6100:6120   */\n      calldataload\n        /* \"#utility.yul\":6091:6120   */\n      swap1\n      pop\n        /* \"#utility.yul\":6129:6162   */\n      tag_188\n        /* \"#utility.yul\":6156:6161   */\n      dup2\n        /* \"#utility.yul\":6129:6162   */\n      tag_100\n      jump\t// in\n    tag_188:\n        /* \"#utility.yul\":6029:6168   */\n      swap3\n      swap2\n      pop\n      pop\n      jump\t// out\n        /* \"#utility.yul\":6174:6648   */\n    tag_36:\n        /* \"#utility.yul\":6242:6248   */\n      0x00\n        /* \"#utility.yul\":6250:6256   */\n      0x00\n        /* \"#utility.yul\":6299:6301   */\n      0x40\n        /* \"#utility.yul\":6287:6296   */\n      dup4\n        /* \"#utility.yul\":6278:6285   */\n      dup6\n        /* \"#utility.yul\":6274:6297   */\n      sub\n        /* \"#utility.yul\":6270:6302   */\n      slt\n        /* \"#utility.yul\":6267:6386   */\n      iszero\n      tag_190\n      jumpi\n        /* \"#utility.yul\":6305:6384   */\n      tag_191\n      tag_81\n      jump\t// in\n    tag_191:\n        /* \"#utility.yul\":6267:6386   */\n    tag_190:\n        /* \"#utility.yul\":6425:6426   */\n      0x00\n        /* \"#utility.yul\":6450:6503   */\n      tag_192\n        /* \"#utility.yul\":6495:6502   */\n      dup6\n        /* \"#utility.yul\":6486:6492   */\n      dup3\n        /* \"#utility.yul\":6475:6484   */\n      dup7\n        /* \"#utility.yul\":6471:6493   */\n      add\n        /* \"#utility.yul\":6450:6503   */\n      tag_101\n      jump\t// in\n    tag_192:\n        /* \"#utility.yul\":6440:6503   */\n      swap3\n      pop\n        /* \"#utility.yul\":6396:6513   */\n      pop\n        /* \"#utility.yul\":6552:6554   */\n      0x20\n        /* \"#utility.yul\":6578:6631   */\n      tag_193\n        /* \"#utility.yul\":6623:6630   */\n      dup6\n        /* \"#utility.yul\":6614:6620   */\n      dup3\n        /* \"#utility.yul\":6603:6612   */\n      dup7\n        /* \"#utility.yul\":6599:6621   */\n      add\n        /* \"#utility.yul\":6578:6631   */\n      tag_101\n      jump\t// in\n    tag_193:\n        /* \"#utility.yul\":6568:6631   */\n      swap2\n      pop\n        /* \"#utility.yul\":6523:6641   */\n      pop\n        /* \"#utility.yul\":6174:6648   */\n      swap3\n      pop\n      swap3\n      swap1\n      pop\n      jump\t// out\n        /* \"#utility.yul\":6654:6772   */\n    tag_102:\n        /* \"#utility.yul\":6741:6765   */\n      tag_195\n        /* \"#utility.yul\":6759:6764   */\n      dup2\n        /* \"#utility.yul\":6741:6765   */\n      tag_84\n      jump\t// in\n    tag_195:\n        /* \"#utility.yul\":6736:6739   */\n      dup3\n        /* \"#utility.yul\":6729:6766   */\n      mstore\n        /* \"#utility.yul\":6654:6772   */\n      pop\n      pop\n      jump\t// out\n        /* \"#utility.yul\":6778:7000   */\n    tag_43:\n        /* \"#utility.yul\":6871:6875   */\n      0x00\n        /* \"#utility.yul\":6909:6911   */\n      0x20\n        /* \"#utility.yul\":6898:6907   */\n      dup3\n        /* \"#utility.yul\":6894:6912   */\n      add\n        /* \"#utility.yul\":6886:6912   */\n      swap1\n      pop\n        /* \"#utility.yul\":6922:6993   */\n      tag_197\n        /* \"#utility.yul\":6990:6991   */\n      0x00\n        /* \"#utility.yul\":6979:6988   */\n      dup4\n        /* \"#utility.yul\":6975:6992   */\n      add\n        /* \"#utility.yul\":6966:6972   */\n      dup5\n        /* \"#utility.yul\":6922:6993   */\n      tag_102\n      jump\t// in\n    tag_197:\n        /* \"#utility.yul\":6778:7000   */\n      swap3\n      swap2\n      pop\n      pop\n      jump\t// out\n        /* \"#utility.yul\":7006:7186   */\n    tag_103:\n        /* \"#utility.yul\":7054:7131   */\n      0x4e487b7100000000000000000000000000000000000000000000000000000000\n        /* \"#utility.yul\":7051:7052   */\n      0x00\n        /* \"#utility.yul\":7044:7132   */\n      mstore\n        /* \"#utility.yul\":7151:7155   */\n      0x22\n        /* \"#utility.yul\":7148:7149   */\n      0x04\n        /* \"#utility.yul\":7141:7156   */\n      mstore\n        /* \"#utility.yul\":7175:7179   */\n      0x24\n        /* \"#utility.yul\":7172:7173   */\n      0x00\n        /* \"#utility.yul\":7165:7180   */\n      revert\n        /* \"#utility.yul\":7192:7512   */\n    tag_47:\n        /* \"#utility.yul\":7236:7242   */\n      0x00\n        /* \"#utility.yul\":7273:7274   */\n      0x02\n        /* \"#utility.yul\":7267:7271   */\n      dup3\n        /* \"#utility.yul\":7263:7275   */\n      div\n        /* \"#utility.yul\":7253:7275   */\n      swap1\n      pop\n        /* \"#utility.yul\":7320:7321   */\n      0x01\n        /* \"#utility.yul\":7314:7318   */\n      dup3\n        /* \"#utility.yul\":7310:7322   */\n      and\n        /* \"#utility.yul\":7341:7359   */\n      dup1\n        /* \"#utility.yul\":7331:7412   */\n      tag_200\n      jumpi\n        /* \"#utility.yul\":7397:7401   */\n      0x7f\n        /* \"#utility.yul\":7389:7395   */\n      dup3\n        /* \"#utility.yul\":7385:7402   */\n      and\n        /* \"#utility.yul\":7375:7402   */\n      swap2\n      pop\n        /* \"#utility.yul\":7331:7412   */\n    tag_200:\n        /* \"#utility.yul\":7459:7461   */\n      0x20\n        /* \"#utility.yul\":7451:7457   */\n      dup3\n        /* \"#utility.yul\":7448:7462   */\n      lt\n        /* \"#utility.yul\":7428:7446   */\n      dup2\n        /* \"#utility.yul\":7425:7463   */\n      sub\n        /* \"#utility.yul\":7422:7506   */\n      tag_201\n      jumpi\n        /* \"#utility.yul\":7478:7496   */\n      tag_202\n      tag_103\n      jump\t// in\n    tag_202:\n        /* \"#utility.yul\":7422:7506   */\n    tag_201:\n        /* \"#utility.yul\":7243:7512   */\n      pop\n        /* \"#utility.yul\":7192:7512   */\n      swap2\n      swap1\n      pop\n      jump\t// out\n        /* \"#utility.yul\":7518:7666   */\n    tag_104:\n        /* \"#utility.yul\":7620:7631   */\n      0x00\n        /* \"#utility.yul\":7657:7660   */\n      dup2\n        /* \"#utility.yul\":7642:7660   */\n      swap1\n      pop\n        /* \"#utility.yul\":7518:7666   */\n      swap3\n      swap2\n      pop\n      pop\n      jump\t// out\n        /* \"#utility.yul\":7672:7813   */\n    tag_105:\n        /* \"#utility.yul\":7721:7725   */\n      0x00\n        /* \"#utility.yul\":7744:7747   */\n      dup2\n        /* \"#utility.yul\":7736:7747   */\n      swap1\n      pop\n        /* \"#utility.yul\":7767:7770   */\n      dup2\n        /* \"#utility.yul\":7764:7765   */\n      0x00\n        /* \"#utility.yul\":7757:7771   */\n      mstore\n        /* \"#utility.yul\":7801:7805   */\n      0x20\n        /* \"#utility.yul\":7798:7799   */\n      0x00\n        /* \"#utility.yul\":7788:7806   */\n      keccak256\n        /* \"#utility.yul\":7780:7806   */\n      swap1\n      pop\n        /* \"#utility.yul\":7672:7813   */\n      swap2\n      swap1\n      pop\n      jump\t// out\n        /* \"#utility.yul\":7843:8717   */\n    tag_106:\n        /* \"#utility.yul\":7946:7949   */\n      0x00\n        /* \"#utility.yul\":7983:7988   */\n      dup2\n        /* \"#utility.yul\":7977:7989   */\n      sload\n        /* \"#utility.yul\":8012:8048   */\n      tag_206\n        /* \"#utility.yul\":8038:8047   */\n      dup2\n        /* \"#utility.yul\":8012:8048   */\n      tag_47\n      jump\t// in\n    tag_206:\n        /* \"#utility.yul\":8064:8153   */\n      tag_207\n        /* \"#utility.yul\":8146:8152   */\n      dup2\n        /* \"#utility.yul\":8141:8144   */\n      dup7\n        /* \"#utility.yul\":8064:8153   */\n      tag_104\n      jump\t// in\n    tag_207:\n        /* \"#utility.yul\":8057:8153   */\n      swap5\n      pop\n        /* \"#utility.yul\":8184:8185   */\n      0x01\n        /* \"#utility.yul\":8173:8182   */\n      dup3\n        /* \"#utility.yul\":8169:8186   */\n      and\n        /* \"#utility.yul\":8200:8201   */\n      0x00\n        /* \"#utility.yul\":8195:8361   */\n      dup2\n      eq\n      tag_209\n      jumpi\n        /* \"#utility.yul\":8375:8376   */\n      0x01\n        /* \"#utility.yul\":8370:8711   */\n      dup2\n      eq\n      tag_210\n      jumpi\n        /* \"#utility.yul\":8162:8711   */\n      jump(tag_208)\n        /* \"#utility.yul\":8195:8361   */\n    tag_209:\n        /* \"#utility.yul\":8279:8283   */\n      0xff\n        /* \"#utility.yul\":8275:8284   */\n      not\n        /* \"#utility.yul\":8264:8273   */\n      dup4\n        /* \"#utility.yul\":8260:8285   */\n      and\n        /* \"#utility.yul\":8255:8258   */\n      dup7\n        /* \"#utility.yul\":8248:8286   */\n      mstore\n        /* \"#utility.yul\":8341:8347   */\n      dup2\n        /* \"#utility.yul\":8334:8348   */\n      iszero\n        /* \"#utility.yul\":8327:8349   */\n      iszero\n        /* \"#utility.yul\":8319:8325   */\n      dup3\n        /* \"#utility.yul\":8315:8350   */\n      mul\n        /* \"#utility.yul\":8310:8313   */\n      dup7\n        /* \"#utility.yul\":8306:8351   */\n      add\n        /* \"#utility.yul\":8299:8351   */\n      swap4\n      pop\n        /* \"#utility.yul\":8195:8361   */\n      jump(tag_208)\n        /* \"#utility.yul\":8370:8711   */\n    tag_210:\n        /* \"#utility.yul\":8437:8475   */\n      tag_211\n        /* \"#utility.yul\":8469:8474   */\n      dup6\n        /* \"#utility.yul\":8437:8475   */\n      tag_105\n      jump\t// in\n    tag_211:\n        /* \"#utility.yul\":8497:8498   */\n      0x00\n        /* \"#utility.yul\":8511:8665   */\n    tag_212:\n        /* \"#utility.yul\":8525:8531   */\n      dup4\n        /* \"#utility.yul\":8522:8523   */\n      dup2\n        /* \"#utility.yul\":8519:8532   */\n      lt\n        /* \"#utility.yul\":8511:8665   */\n      iszero\n      tag_214\n      jumpi\n        /* \"#utility.yul\":8599:8606   */\n      dup2\n        /* \"#utility.yul\":8593:8607   */\n      sload\n        /* \"#utility.yul\":8589:8590   */\n      dup2\n        /* \"#utility.yul\":8584:8587   */\n      dup10\n        /* \"#utility.yul\":8580:8591   */\n      add\n        /* \"#utility.yul\":8573:8608   */\n      mstore\n        /* \"#utility.yul\":8649:8650   */\n      0x01\n        /* \"#utility.yul\":8640:8647   */\n      dup3\n        /* \"#utility.yul\":8636:8651   */\n      add\n        /* \"#utility.yul\":8625:8651   */\n      swap2\n      pop\n        /* \"#utility.yul\":8547:8551   */\n      0x20\n        /* \"#utility.yul\":8544:8545   */\n      dup2\n        /* \"#utility.yul\":8540:8552   */\n      add\n        /* \"#utility.yul\":8535:8552   */\n      swap1\n      pop\n        /* \"#utility.yul\":8511:8665   */\n      jump(tag_212)\n    tag_214:\n        /* \"#utility.yul\":8694:8700   */\n      dup4\n        /* \"#utility.yul\":8689:8692   */\n      dup9\n        /* \"#utility.yul\":8685:8701   */\n      add\n        /* \"#utility.yul\":8678:8701   */\n      swap6\n      pop\n        /* \"#utility.yul\":8377:8711   */\n      pop\n      pop\n        /* \"#utility.yul\":8162:8711   */\n    tag_208:\n      pop\n        /* \"#utility.yul\":7950:8717   */\n      pop\n      pop\n        /* \"#utility.yul\":7843:8717   */\n      swap3\n      swap2\n      pop\n      pop\n      jump\t// out\n        /* \"#utility.yul\":8723:8992   */\n    tag_54:\n        /* \"#utility.yul\":8852:8855   */\n      0x00\n        /* \"#utility.yul\":8874:8966   */\n      tag_216\n        /* \"#utility.yul\":8962:8965   */\n      dup3\n        /* \"#utility.yul\":8953:8959   */\n      dup5\n        /* \"#utility.yul\":8874:8966   */\n      tag_106\n      jump\t// in\n    tag_216:\n        /* \"#utility.yul\":8867:8966   */\n      swap2\n      pop\n        /* \"#utility.yul\":8983:8986   */\n      dup2\n        /* \"#utility.yul\":8976:8986   */\n      swap1\n      pop\n        /* \"#utility.yul\":8723:8992   */\n      swap3\n      swap2\n      pop\n      pop\n      jump\t// out\n        /* \"#utility.yul\":8998:9388   */\n    tag_107:\n        /* \"#utility.yul\":9104:9107   */\n      0x00\n        /* \"#utility.yul\":9132:9171   */\n      tag_218\n        /* \"#utility.yul\":9165:9170   */\n      dup3\n        /* \"#utility.yul\":9132:9171   */\n      tag_75\n      jump\t// in\n    tag_218:\n        /* \"#utility.yul\":9187:9276   */\n      tag_219\n        /* \"#utility.yul\":9269:9275   */\n      dup2\n        /* \"#utility.yul\":9264:9267   */\n      dup6\n        /* \"#utility.yul\":9187:9276   */\n      tag_104\n      jump\t// in\n    tag_219:\n        /* \"#utility.yul\":9180:9276   */\n      swap4\n      pop\n        /* \"#utility.yul\":9285:9350   */\n      tag_220\n        /* \"#utility.yul\":9343:9349   */\n      dup2\n        /* \"#utility.yul\":9338:9341   */\n      dup6\n        /* \"#utility.yul\":9331:9335   */\n      0x20\n        /* \"#utility.yul\":9324:9329   */\n      dup7\n        /* \"#utility.yul\":9320:9336   */\n      add\n        /* \"#utility.yul\":9285:9350   */\n      tag_77\n      jump\t// in\n    tag_220:\n        /* \"#utility.yul\":9375:9381   */\n      dup1\n        /* \"#utility.yul\":9370:9373   */\n      dup5\n        /* \"#utility.yul\":9366:9382   */\n      add\n        /* \"#utility.yul\":9359:9382   */\n      swap2\n      pop\n        /* \"#utility.yul\":9108:9388   */\n      pop\n        /* \"#utility.yul\":8998:9388   */\n      swap3\n      swap2\n      pop\n      pop\n      jump\t// out\n        /* \"#utility.yul\":9394:9669   */\n    tag_56:\n        /* \"#utility.yul\":9526:9529   */\n      0x00\n        /* \"#utility.yul\":9548:9643   */\n      tag_222\n        /* \"#utility.yul\":9639:9642   */\n      dup3\n        /* \"#utility.yul\":9630:9636   */\n      dup5\n        /* \"#utility.yul\":9548:9643   */\n      tag_107\n      jump\t// in\n    tag_222:\n        /* \"#utility.yul\":9541:9643   */\n      swap2\n      pop\n        /* \"#utility.yul\":9660:9663   */\n      dup2\n        /* \"#utility.yul\":9653:9663   */\n      swap1\n      pop\n        /* \"#utility.yul\":9394:9669   */\n      swap3\n      swap2\n      pop\n      pop\n      jump\t// out\n        /* \"#utility.yul\":9675:9838   */\n    tag_108:\n        /* \"#utility.yul\":9815:9830   */\n      0x4e6f7420746865204f776e657200000000000000000000000000000000000000\n        /* \"#utility.yul\":9811:9812   */\n      0x00\n        /* \"#utility.yul\":9803:9809   */\n      dup3\n        /* \"#utility.yul\":9799:9813   */\n      add\n        /* \"#utility.yul\":9792:9831   */\n      mstore\n        /* \"#utility.yul\":9675:9838   */\n      pop\n      jump\t// out\n        /* \"#utility.yul\":9844:10210   */\n    tag_109:\n        /* \"#utility.yul\":9986:9989   */\n      0x00\n        /* \"#utility.yul\":10007:10074   */\n      tag_225\n        /* \"#utility.yul\":10071:10073   */\n      0x0d\n        /* \"#utility.yul\":10066:10069   */\n      dup4\n        /* \"#utility.yul\":10007:10074   */\n      tag_76\n      jump\t// in\n    tag_225:\n        /* \"#utility.yul\":10000:10074   */\n      swap2\n      pop\n        /* \"#utility.yul\":10083:10176   */\n      tag_226\n        /* \"#utility.yul\":10172:10175   */\n      dup3\n        /* \"#utility.yul\":10083:10176   */\n      tag_108\n      jump\t// in\n    tag_226:\n        /* \"#utility.yul\":10201:10203   */\n      0x20\n        /* \"#utility.yul\":10196:10199   */\n      dup3\n        /* \"#utility.yul\":10192:10204   */\n      add\n        /* \"#utility.yul\":10185:10204   */\n      swap1\n      pop\n        /* \"#utility.yul\":9844:10210   */\n      swap2\n      swap1\n      pop\n      jump\t// out\n        /* \"#utility.yul\":10216:10635   */\n    tag_60:\n        /* \"#utility.yul\":10382:10386   */\n      0x00\n        /* \"#utility.yul\":10420:10422   */\n      0x20\n        /* \"#utility.yul\":10409:10418   */\n      dup3\n        /* \"#utility.yul\":10405:10423   */\n      add\n        /* \"#utility.yul\":10397:10423   */\n      swap1\n      pop\n        /* \"#utility.yul\":10469:10478   */\n      dup2\n        /* \"#utility.yul\":10463:10467   */\n      dup2\n        /* \"#utility.yul\":10459:10479   */\n      sub\n        /* \"#utility.yul\":10455:10456   */\n      0x00\n        /* \"#utility.yul\":10444:10453   */\n      dup4\n        /* \"#utility.yul\":10440:10457   */\n      add\n        /* \"#utility.yul\":10433:10480   */\n      mstore\n        /* \"#utility.yul\":10497:10628   */\n      tag_228\n        /* \"#utility.yul\":10623:10627   */\n      dup2\n        /* \"#utility.yul\":10497:10628   */\n      tag_109\n      jump\t// in\n    tag_228:\n        /* \"#utility.yul\":10489:10628   */\n      swap1\n      pop\n        /* \"#utility.yul\":10216:10635   */\n      swap2\n      swap1\n      pop\n      jump\t// out\n        /* \"#utility.yul\":10641:10788   */\n    tag_110:\n        /* \"#utility.yul\":10742:10753   */\n      0x00\n        /* \"#utility.yul\":10779:10782   */\n      dup2\n        /* \"#utility.yul\":10764:10782   */\n      swap1\n      pop\n        /* \"#utility.yul\":10641:10788   */\n      swap3\n      swap2\n      pop\n      pop\n      jump\t// out\n        /* \"#utility.yul\":10794:10908   */\n    tag_111:\n      pop\n      jump\t// out\n        /* \"#utility.yul\":10914:11312   */\n    tag_112:\n        /* \"#utility.yul\":11073:11076   */\n      0x00\n        /* \"#utility.yul\":11094:11177   */\n      tag_232\n        /* \"#utility.yul\":11175:11176   */\n      0x00\n        /* \"#utility.yul\":11170:11173   */\n      dup4\n        /* \"#utility.yul\":11094:11177   */\n      tag_110\n      jump\t// in\n    tag_232:\n        /* \"#utility.yul\":11087:11177   */\n      swap2\n      pop\n        /* \"#utility.yul\":11186:11279   */\n      tag_233\n        /* \"#utility.yul\":11275:11278   */\n      dup3\n        /* \"#utility.yul\":11186:11279   */\n      tag_111\n      jump\t// in\n    tag_233:\n        /* \"#utility.yul\":11304:11305   */\n      0x00\n        /* \"#utility.yul\":11299:11302   */\n      dup3\n        /* \"#utility.yul\":11295:11306   */\n      add\n        /* \"#utility.yul\":11288:11306   */\n      swap1\n      pop\n        /* \"#utility.yul\":10914:11312   */\n      swap2\n      swap1\n      pop\n      jump\t// out\n        /* \"#utility.yul\":11318:11697   */\n    tag_63:\n        /* \"#utility.yul\":11502:11505   */\n      0x00\n        /* \"#utility.yul\":11524:11671   */\n      tag_235\n        /* \"#utility.yul\":11667:11670   */\n      dup3\n        /* \"#utility.yul\":11524:11671   */\n      tag_112\n      jump\t// in\n    tag_235:\n        /* \"#utility.yul\":11517:11671   */\n      swap2\n      pop\n        /* \"#utility.yul\":11688:11691   */\n      dup2\n        /* \"#utility.yul\":11681:11691   */\n      swap1\n      pop\n        /* \"#utility.yul\":11318:11697   */\n      swap2\n      swap1\n      pop\n      jump\t// out\n        /* \"#utility.yul\":11703:11873   */\n    tag_113:\n        /* \"#utility.yul\":11843:11865   */\n      0x4661696c656420746f2073656e64204574686572000000000000000000000000\n        /* \"#utility.yul\":11839:11840   */\n      0x00\n        /* \"#utility.yul\":11831:11837   */\n      dup3\n        /* \"#utility.yul\":11827:11841   */\n      add\n        /* \"#utility.yul\":11820:11866   */\n      mstore\n        /* \"#utility.yul\":11703:11873   */\n      pop\n      jump\t// out\n        /* \"#utility.yul\":11879:12245   */\n    tag_114:\n        /* \"#utility.yul\":12021:12024   */\n      0x00\n        /* \"#utility.yul\":12042:12109   */\n      tag_238\n        /* \"#utility.yul\":12106:12108   */\n      0x14\n        /* \"#utility.yul\":12101:12104   */\n      dup4\n        /* \"#utility.yul\":12042:12109   */\n      tag_76\n      jump\t// in\n    tag_238:\n        /* \"#utility.yul\":12035:12109   */\n      swap2\n      pop\n        /* \"#utility.yul\":12118:12211   */\n      tag_239\n        /* \"#utility.yul\":12207:12210   */\n      dup3\n        /* \"#utility.yul\":12118:12211   */\n      tag_113\n      jump\t// in\n    tag_239:\n        /* \"#utility.yul\":12236:12238   */\n      0x20\n        /* \"#utility.yul\":12231:12234   */\n      dup3\n        /* \"#utility.yul\":12227:12239   */\n      add\n        /* \"#utility.yul\":12220:12239   */\n      swap1\n      pop\n        /* \"#utility.yul\":11879:12245   */\n      swap2\n      swap1\n      pop\n      jump\t// out\n        /* \"#utility.yul\":12251:12670   */\n    tag_69:\n        /* \"#utility.yul\":12417:12421   */\n      0x00\n        /* \"#utility.yul\":12455:12457   */\n      0x20\n        /* \"#utility.yul\":12444:12453   */\n      dup3\n        /* \"#utility.yul\":12440:12458   */\n      add\n        /* \"#utility.yul\":12432:12458   */\n      swap1\n      pop\n        /* \"#utility.yul\":12504:12513   */\n      dup2\n        /* \"#utility.yul\":12498:12502   */\n      dup2\n        /* \"#utility.yul\":12494:12514   */\n      sub\n        /* \"#utility.yul\":12490:12491   */\n      0x00\n        /* \"#utility.yul\":12479:12488   */\n      dup4\n        /* \"#utility.yul\":12475:12492   */\n      add\n        /* \"#utility.yul\":12468:12515   */\n      mstore\n        /* \"#utility.yul\":12532:12663   */\n      tag_241\n        /* \"#utility.yul\":12658:12662   */\n      dup2\n        /* \"#utility.yul\":12532:12663   */\n      tag_114\n      jump\t// in\n    tag_241:\n        /* \"#utility.yul\":12524:12663   */\n      swap1\n      pop\n        /* \"#utility.yul\":12251:12670   */\n      swap2\n      swap1\n      pop\n      jump\t// out\n        /* \"#utility.yul\":12676:12856   */\n    tag_115:\n        /* \"#utility.yul\":12724:12801   */\n      0x4e487b7100000000000000000000000000000000000000000000000000000000\n        /* \"#utility.yul\":12721:12722   */\n      0x00\n        /* \"#utility.yul\":12714:12802   */\n      mstore\n        /* \"#utility.yul\":12821:12825   */\n      0x11\n        /* \"#utility.yul\":12818:12819   */\n      0x04\n        /* \"#utility.yul\":12811:12826   */\n      mstore\n        /* \"#utility.yul\":12845:12849   */\n      0x24\n        /* \"#utility.yul\":12842:12843   */\n      0x00\n        /* \"#utility.yul\":12835:12850   */\n      revert\n        /* \"#utility.yul\":12862:13053   */\n    tag_72:\n        /* \"#utility.yul\":12902:12905   */\n      0x00\n        /* \"#utility.yul\":12921:12941   */\n      tag_244\n        /* \"#utility.yul\":12939:12940   */\n      dup3\n        /* \"#utility.yul\":12921:12941   */\n      tag_87\n      jump\t// in\n    tag_244:\n        /* \"#utility.yul\":12916:12941   */\n      swap2\n      pop\n        /* \"#utility.yul\":12955:12975   */\n      tag_245\n        /* \"#utility.yul\":12973:12974   */\n      dup4\n        /* \"#utility.yul\":12955:12975   */\n      tag_87\n      jump\t// in\n    tag_245:\n        /* \"#utility.yul\":12950:12975   */\n      swap3\n      pop\n        /* \"#utility.yul\":12998:12999   */\n      dup3\n        /* \"#utility.yul\":12995:12996   */\n      dup3\n        /* \"#utility.yul\":12991:13000   */\n      add\n        /* \"#utility.yul\":12984:13000   */\n      swap1\n      pop\n        /* \"#utility.yul\":13019:13022   */\n      dup1\n        /* \"#utility.yul\":13016:13017   */\n      dup3\n        /* \"#utility.yul\":13013:13023   */\n      gt\n        /* \"#utility.yul\":13010:13046   */\n      iszero\n      tag_246\n      jumpi\n        /* \"#utility.yul\":13026:13044   */\n      tag_247\n      tag_115\n      jump\t// in\n    tag_247:\n        /* \"#utility.yul\":13010:13046   */\n    tag_246:\n        /* \"#utility.yul\":12862:13053   */\n      swap3\n      swap2\n      pop\n      pop\n      jump\t// out\n\n    auxdata: 0xa26469706673582212204a0b701f878e9085aa99dfd508ffe953e6486aa24c347ff4cddf3903351b95e164736f6c634300081e0033\n}\n",
				"bytecode": {
					"linkReferences": {},
					"object": "60806040526040518060400160405280601481526020017f48656c6c6f204b61696120446576656c6f7065720000000000000000000000008152506002908161004891906102d6565b50348015610054575f5ffd5b50335f5f6101000a81548173ffffffffffffffffffffffffffffffffffffffff021916908373ffffffffffffffffffffffffffffffffffffffff1602179055506103a5565b5f81519050919050565b7f4e487b71000000000000000000000000000000000000000000000000000000005f52604160045260245ffd5b7f4e487b71000000000000000000000000000000000000000000000000000000005f52602260045260245ffd5b5f600282049050600182168061011457607f821691505b602082108103610127576101266100d0565b5b50919050565b5f819050815f5260205f209050919050565b5f6020601f8301049050919050565b5f82821b905092915050565b5f600883026101897fffffffffffffffffffffffffffffffffffffffffffffffffffffffffffffffff8261014e565b610193868361014e565b95508019841693508086168417925050509392505050565b5f819050919050565b5f819050919050565b5f6101d76101d26101cd846101ab565b6101b4565b6101ab565b9050919050565b5f819050919050565b6101f0836101bd565b6102046101fc826101de565b84845461015a565b825550505050565b5f5f905090565b61021b61020c565b6102268184846101e7565b505050565b5b818110156102495761023e5f82610213565b60018101905061022c565b5050565b601f82111561028e5761025f8161012d565b6102688461013f565b81016020851015610277578190505b61028b6102838561013f565b83018261022b565b50505b505050565b5f82821c905092915050565b5f6102ae5f1984600802610293565b1980831691505092915050565b5f6102c6838361029f565b9150826002028217905092915050565b6102df82610099565b67ffffffffffffffff8111156102f8576102f76100a3565b5b61030282546100fd565b61030d82828561024d565b5f60209050601f83116001811461033e575f841561032c578287015190505b61033685826102bb565b86555061039d565b601f19841661034c8661012d565b5f5b828110156103735784890151825560018201915060208501945060208101905061034e565b86831015610390578489015161038c601f89168261029f565b8355505b6001600288020188555050505b505050505050565b610afc806103b25f395ff3fe60806040526004361061006f575f3560e01c806351cff8d91161004d57806351cff8d914610115578063771602f71461013d5780638da5cb5b14610179578063d0e30db0146101a35761006f565b806306fdde031461007357806327e235e31461009d5780633c18e7ca146100d9575b5f5ffd5b34801561007e575f5ffd5b506100876101ad565b60405161009491906104e3565b60405180910390f35b3480156100a8575f5ffd5b506100c360048036038101906100be919061056e565b610239565b6040516100d091906105b1565b60405180910390f35b3480156100e4575f5ffd5b506100ff60048036038101906100fa91906106f6565b61024e565b60405161010c9190610757565b60405180910390f35b348015610120575f5ffd5b5061013b6004803603810190610136919061056e565b6102a6565b005b348015610148575f5ffd5b50610163600480360381019061015e919061079a565b6103e5565b60405161017091906105b1565b60405180910390f35b348015610184575f5ffd5b5061018d6103fa565b60405161019a91906107e7565b60405180910390f35b6101ab61041e565b005b600280546101ba9061082d565b80601f01602080910402602001604051908101604052809291908181526020018280546101e69061082d565b80156102315780601f1061020857610100808354040283529160200191610231565b820191905f5260205f20905b81548152906001019060200180831161021457829003601f168201915b505050505081565b6001602052805f5260405f205f915090505481565b5f600260405160200161026191906108f9565b6040516020818303038152906040528051906020012082604051602001610288919061093f565b60405160208183030381529060405280519060200120149050919050565b5f5f9054906101000a900473ffffffffffffffffffffffffffffffffffffffff1673ffffffffffffffffffffffffffffffffffffffff163373ffffffffffffffffffffffffffffffffffffffff1614610334576040517f08c379a000000000000000000000000000000000000000000000000000000000815260040161032b9061099f565b60405180910390fd5b5f4790505f8273ffffffffffffffffffffffffffffffffffffffff168260405161035d906109ea565b5f6040518083038185875af1925050503d805f8114610397576040519150601f19603f3d011682016040523d82523d5f602084013e61039c565b606091505b50509050806103e0576040517f08c379a00000000000000000000000000000000000000000000000000000000081526004016103d790610a48565b60405180910390fd5b505050565b5f81836103f29190610a93565b905092915050565b5f5f9054906101000a900473ffffffffffffffffffffffffffffffffffffffff1681565b3460015f3373ffffffffffffffffffffffffffffffffffffffff1673ffffffffffffffffffffffffffffffffffffffff1681526020019081526020015f205f82825461046a9190610a93565b92505081905550565b5f81519050919050565b5f82825260208201905092915050565b8281835e5f83830152505050565b5f601f19601f8301169050919050565b5f6104b582610473565b6104bf818561047d565b93506104cf81856020860161048d565b6104d88161049b565b840191505092915050565b5f6020820190508181035f8301526104fb81846104ab565b905092915050565b5f604051905090565b5f5ffd5b5f5ffd5b5f73ffffffffffffffffffffffffffffffffffffffff82169050919050565b5f61053d82610514565b9050919050565b61054d81610533565b8114610557575f5ffd5b50565b5f8135905061056881610544565b92915050565b5f602082840312156105835761058261050c565b5b5f6105908482850161055a565b91505092915050565b5f819050919050565b6105ab81610599565b82525050565b5f6020820190506105c45f8301846105a2565b92915050565b5f5ffd5b5f5ffd5b7f4e487b71000000000000000000000000000000000000000000000000000000005f52604160045260245ffd5b6106088261049b565b810181811067ffffffffffffffff82111715610627576106266105d2565b5b80604052505050565b5f610639610503565b905061064582826105ff565b919050565b5f67ffffffffffffffff821115610664576106636105d2565b5b61066d8261049b565b9050602081019050919050565b828183375f83830152505050565b5f61069a6106958461064a565b610630565b9050828152602081018484840111156106b6576106b56105ce565b5b6106c184828561067a565b509392505050565b5f82601f8301126106dd576106dc6105ca565b5b81356106ed848260208601610688565b91505092915050565b5f6020828403121561070b5761070a61050c565b5b5f82013567ffffffffffffffff81111561072857610727610510565b5b610734848285016106c9565b91505092915050565b5f8115159050919050565b6107518161073d565b82525050565b5f60208201905061076a5f830184610748565b92915050565b61077981610599565b8114610783575f5ffd5b50565b5f8135905061079481610770565b92915050565b5f5f604083850312156107b0576107af61050c565b5b5f6107bd85828601610786565b92505060206107ce85828601610786565b9150509250929050565b6107e181610533565b82525050565b5f6020820190506107fa5f8301846107d8565b92915050565b7f4e487b71000000000000000000000000000000000000000000000000000000005f52602260045260245ffd5b5f600282049050600182168061084457607f821691505b60208210810361085757610856610800565b5b50919050565b5f81905092915050565b5f819050815f5260205f209050919050565b5f81546108858161082d565b61088f818661085d565b9450600182165f81146108a957600181146108be576108f0565b60ff19831686528115158202860193506108f0565b6108c785610867565b5f5b838110156108e8578154818901526001820191506020810190506108c9565b838801955050505b50505092915050565b5f6109048284610879565b915081905092915050565b5f61091982610473565b610923818561085d565b935061093381856020860161048d565b80840191505092915050565b5f61094a828461090f565b915081905092915050565b7f4e6f7420746865204f776e6572000000000000000000000000000000000000005f82015250565b5f610989600d8361047d565b915061099482610955565b602082019050919050565b5f6020820190508181035f8301526109b68161097d565b9050919050565b5f81905092915050565b50565b5f6109d55f836109bd565b91506109e0826109c7565b5f82019050919050565b5f6109f4826109ca565b9150819050919050565b7f4661696c656420746f2073656e642045746865720000000000000000000000005f82015250565b5f610a3260148361047d565b9150610a3d826109fe565b602082019050919050565b5f6020820190508181035f830152610a5f81610a26565b9050919050565b7f4e487b71000000000000000000000000000000000000000000000000000000005f52601160045260245ffd5b5f610a9d82610599565b9150610aa883610599565b9250828201905080821115610ac057610abf610a66565b5b9291505056fea26469706673582212204a0b701f878e9085aa99dfd508ffe953e6486aa24c347ff4cddf3903351b95e164736f6c634300081e0033",
					"opcodes": "PUSH1 0x80 PUSH1 0x40 MSTORE PUSH1 0x40 MLOAD DUP1 PUSH1 0x40 ADD PUSH1 0x40 MSTORE DUP1 PUSH1 0x14 DUP2 MSTORE PUSH1 0x20 ADD PUSH32 0x48656C6C6F204B61696120446576656C6F706572000000000000000000000000 DUP2 MSTORE POP PUSH1 0x2 SWAP1 DUP2 PUSH2 0x48 SWAP2 SWAP1 PUSH2 0x2D6 JUMP JUMPDEST POP CALLVALUE DUP1 ISZERO PUSH2 0x54 JUMPI PUSH0 PUSH0 REVERT JUMPDEST POP CALLER PUSH0 PUSH0 PUSH2 0x100 EXP DUP2 SLOAD DUP2 PUSH20 0xFFFFFFFFFFFFFFFFFFFFFFFFFFFFFFFFFFFFFFFF MUL NOT AND SWAP1 DUP4 PUSH20 0xFFFFFFFFFFFFFFFFFFFFFFFFFFFFFFFFFFFFFFFF AND MUL OR SWAP1 SSTORE POP PUSH2 0x3A5 JUMP JUMPDEST PUSH0 DUP2 MLOAD SWAP1 POP SWAP2 SWAP1 POP JUMP JUMPDEST PUSH32 0x4E487B7100000000000000000000000000000000000000000000000000000000 PUSH0 MSTORE PUSH1 0x41 PUSH1 0x4 MSTORE PUSH1 0x24 PUSH0 REVERT JUMPDEST PUSH32 0x4E487B7100000000000000000000000000000000000000000000000000000000 PUSH0 MSTORE PUSH1 0x22 PUSH1 0x4 MSTORE PUSH1 0x24 PUSH0 REVERT JUMPDEST PUSH0 PUSH1 0x2 DUP3 DIV SWAP1 POP PUSH1 0x1 DUP3 AND DUP1 PUSH2 0x114 JUMPI PUSH1 0x7F DUP3 AND SWAP2 POP JUMPDEST PUSH1 0x20 DUP3 LT DUP2 SUB PUSH2 0x127 JUMPI PUSH2 0x126 PUSH2 0xD0 JUMP JUMPDEST JUMPDEST POP SWAP2 SWAP1 POP JUMP JUMPDEST PUSH0 DUP2 SWAP1 POP DUP2 PUSH0 MSTORE PUSH1 0x20 PUSH0 KECCAK256 SWAP1 POP SWAP2 SWAP1 POP JUMP JUMPDEST PUSH0 PUSH1 0x20 PUSH1 0x1F DUP4 ADD DIV SWAP1 POP SWAP2 SWAP1 POP JUMP JUMPDEST PUSH0 DUP3 DUP3 SHL SWAP1 POP SWAP3 SWAP2 POP POP JUMP JUMPDEST PUSH0 PUSH1 0x8 DUP4 MUL PUSH2 0x189 PUSH32 0xFFFFFFFFFFFFFFFFFFFFFFFFFFFFFFFFFFFFFFFFFFFFFFFFFFFFFFFFFFFFFFFF DUP3 PUSH2 0x14E JUMP JUMPDEST PUSH2 0x193 DUP7 DUP4 PUSH2 0x14E JUMP JUMPDEST SWAP6 POP DUP1 NOT DUP5 AND SWAP4 POP DUP1 DUP7 AND DUP5 OR SWAP3 POP POP POP SWAP4 SWAP3 POP POP POP JUMP JUMPDEST PUSH0 DUP2 SWAP1 POP SWAP2 SWAP1 POP JUMP JUMPDEST PUSH0 DUP2 SWAP1 POP SWAP2 SWAP1 POP JUMP JUMPDEST PUSH0 PUSH2 0x1D7 PUSH2 0x1D2 PUSH2 0x1CD DUP5 PUSH2 0x1AB JUMP JUMPDEST PUSH2 0x1B4 JUMP JUMPDEST PUSH2 0x1AB JUMP JUMPDEST SWAP1 POP SWAP2 SWAP1 POP JUMP JUMPDEST PUSH0 DUP2 SWAP1 POP SWAP2 SWAP1 POP JUMP JUMPDEST PUSH2 0x1F0 DUP4 PUSH2 0x1BD JUMP JUMPDEST PUSH2 0x204 PUSH2 0x1FC DUP3 PUSH2 0x1DE JUMP JUMPDEST DUP5 DUP5 SLOAD PUSH2 0x15A JUMP JUMPDEST DUP3 SSTORE POP POP POP POP JUMP JUMPDEST PUSH0 PUSH0 SWAP1 POP SWAP1 JUMP JUMPDEST PUSH2 0x21B PUSH2 0x20C JUMP JUMPDEST PUSH2 0x226 DUP2 DUP5 DUP5 PUSH2 0x1E7 JUMP JUMPDEST POP POP POP JUMP JUMPDEST JUMPDEST DUP2 DUP2 LT ISZERO PUSH2 0x249 JUMPI PUSH2 0x23E PUSH0 DUP3 PUSH2 0x213 JUMP JUMPDEST PUSH1 0x1 DUP2 ADD SWAP1 POP PUSH2 0x22C JUMP JUMPDEST POP POP JUMP JUMPDEST PUSH1 0x1F DUP3 GT ISZERO PUSH2 0x28E JUMPI PUSH2 0x25F DUP2 PUSH2 0x12D JUMP JUMPDEST PUSH2 0x268 DUP5 PUSH2 0x13F JUMP JUMPDEST DUP2 ADD PUSH1 0x20 DUP6 LT ISZERO PUSH2 0x277 JUMPI DUP2 SWAP1 POP JUMPDEST PUSH2 0x28B PUSH2 0x283 DUP6 PUSH2 0x13F JUMP JUMPDEST DUP4 ADD DUP3 PUSH2 0x22B JUMP JUMPDEST POP POP JUMPDEST POP POP POP JUMP JUMPDEST PUSH0 DUP3 DUP3 SHR SWAP1 POP SWAP3 SWAP2 POP POP JUMP JUMPDEST PUSH0 PUSH2 0x2AE PUSH0 NOT DUP5 PUSH1 0x8 MUL PUSH2 0x293 JUMP JUMPDEST NOT DUP1 DUP4 AND SWAP2 POP POP SWAP3 SWAP2 POP POP JUMP JUMPDEST PUSH0 PUSH2 0x2C6 DUP4 DUP4 PUSH2 0x29F JUMP JUMPDEST SWAP2 POP DUP3 PUSH1 0x2 MUL DUP3 OR SWAP1 POP SWAP3 SWAP2 POP POP JUMP JUMPDEST PUSH2 0x2DF DUP3 PUSH2 0x99 JUMP JUMPDEST PUSH8 0xFFFFFFFFFFFFFFFF DUP2 GT ISZERO PUSH2 0x2F8 JUMPI PUSH2 0x2F7 PUSH2 0xA3 JUMP JUMPDEST JUMPDEST PUSH2 0x302 DUP3 SLOAD PUSH2 0xFD JUMP JUMPDEST PUSH2 0x30D DUP3 DUP3 DUP6 PUSH2 0x24D JUMP JUMPDEST PUSH0 PUSH1 0x20 SWAP1 POP PUSH1 0x1F DUP4 GT PUSH1 0x1 DUP2 EQ PUSH2 0x33E JUMPI PUSH0 DUP5 ISZERO PUSH2 0x32C JUMPI DUP3 DUP8 ADD MLOAD SWAP1 POP JUMPDEST PUSH2 0x336 DUP6 DUP3 PUSH2 0x2BB JUMP JUMPDEST DUP7 SSTORE POP PUSH2 0x39D JUMP JUMPDEST PUSH1 0x1F NOT DUP5 AND PUSH2 0x34C DUP7 PUSH2 0x12D JUMP JUMPDEST PUSH0 JUMPDEST DUP3 DUP2 LT ISZERO PUSH2 0x373 JUMPI DUP5 DUP10 ADD MLOAD DUP3 SSTORE PUSH1 0x1 DUP3 ADD SWAP2 POP PUSH1 0x20 DUP6 ADD SWAP5 POP PUSH1 0x20 DUP2 ADD SWAP1 POP PUSH2 0x34E JUMP JUMPDEST DUP7 DUP4 LT ISZERO PUSH2 0x390 JUMPI DUP5 DUP10 ADD MLOAD PUSH2 0x38C PUSH1 0x1F DUP10 AND DUP3 PUSH2 0x29F JUMP JUMPDEST DUP4 SSTORE POP JUMPDEST PUSH1 0x1 PUSH1 0x2 DUP9 MUL ADD DUP9 SSTORE POP POP POP JUMPDEST POP POP POP POP POP POP JUMP JUMPDEST PUSH2 0xAFC DUP1 PUSH2 0x3B2 PUSH0 CODECOPY PUSH0 RETURN INVALID PUSH1 0x80 PUSH1 0x40 MSTORE PUSH1 0x4 CALLDATASIZE LT PUSH2 0x6F JUMPI PUSH0 CALLDATALOAD PUSH1 0xE0 SHR DUP1 PUSH4 0x51CFF8D9 GT PUSH2 0x4D JUMPI DUP1 PUSH4 0x51CFF8D9 EQ PUSH2 0x115 JUMPI DUP1 PUSH4 0x771602F7 EQ PUSH2 0x13D JUMPI DUP1 PUSH4 0x8DA5CB5B EQ PUSH2 0x179 JUMPI DUP1 PUSH4 0xD0E30DB0 EQ PUSH2 0x1A3 JUMPI PUSH2 0x6F JUMP JUMPDEST DUP1 PUSH4 0x6FDDE03 EQ PUSH2 0x73 JUMPI DUP1 PUSH4 0x27E235E3 EQ PUSH2 0x9D JUMPI DUP1 PUSH4 0x3C18E7CA EQ PUSH2 0xD9 JUMPI JUMPDEST PUSH0 PUSH0 REVERT JUMPDEST CALLVALUE DUP1 ISZERO PUSH2 0x7E JUMPI PUSH0 PUSH0 REVERT JUMPDEST POP PUSH2 0x87 PUSH2 0x1AD JUMP JUMPDEST PUSH1 0x40 MLOAD PUSH2 0x94 SWAP2 SWAP1 PUSH2 0x4E3 JUMP JUMPDEST PUSH1 0x40 MLOAD DUP1 SWAP2 SUB SWAP1 RETURN JUMPDEST CALLVALUE DUP1 ISZERO PUSH2 0xA8 JUMPI PUSH0 PUSH0 REVERT JUMPDEST POP PUSH2 0xC3 PUSH1 0x4 DUP1 CALLDATASIZE SUB DUP2 ADD SWAP1 PUSH2 0xBE SWAP2 SWAP1 PUSH2 0x56E JUMP JUMPDEST PUSH2 0x239 JUMP JUMPDEST PUSH1 0x40 MLOAD PUSH2 0xD0 SWAP2 SWAP1 PUSH2 0x5B1 JUMP JUMPDEST PUSH1 0x40 MLOAD DUP1 SWAP2 SUB SWAP1 RETURN JUMPDEST CALLVALUE DUP1 ISZERO PUSH2 0xE4 JUMPI PUSH0 PUSH0 REVERT JUMPDEST POP PUSH2 0xFF PUSH1 0x4 DUP1 CALLDATASIZE SUB DUP2 ADD SWAP1 PUSH2 0xFA SWAP2 SWAP1 PUSH2 0x6F6 JUMP JUMPDEST PUSH2 0x24E JUMP JUMPDEST PUSH1 0x40 MLOAD PUSH2 0x10C SWAP2 SWAP1 PUSH2 0x757 JUMP JUMPDEST PUSH1 0x40 MLOAD DUP1 SWAP2 SUB SWAP1 RETURN JUMPDEST CALLVALUE DUP1 ISZERO PUSH2 0x120 JUMPI PUSH0 PUSH0 REVERT JUMPDEST POP PUSH2 0x13B PUSH1 0x4 DUP1 CALLDATASIZE SUB DUP2 ADD SWAP1 PUSH2 0x136 SWAP2 SWAP1 PUSH2 0x56E JUMP JUMPDEST PUSH2 0x2A6 JUMP JUMPDEST STOP JUMPDEST CALLVALUE DUP1 ISZERO PUSH2 0x148 JUMPI PUSH0 PUSH0 REVERT JUMPDEST POP PUSH2 0x163 PUSH1 0x4 DUP1 CALLDATASIZE SUB DUP2 ADD SWAP1 PUSH2 0x15E SWAP2 SWAP1 PUSH2 0x79A JUMP JUMPDEST PUSH2 0x3E5 JUMP JUMPDEST PUSH1 0x40 MLOAD PUSH2 0x170 SWAP2 SWAP1 PUSH2 0x5B1 JUMP JUMPDEST PUSH1 0x40 MLOAD DUP1 SWAP2 SUB SWAP1 RETURN JUMPDEST CALLVALUE DUP1 ISZERO PUSH2 0x184 JUMPI PUSH0 PUSH0 REVERT JUMPDEST POP PUSH2 0x18D PUSH2 0x3FA JUMP JUMPDEST PUSH1 0x40 MLOAD PUSH2 0x19A SWAP2 SWAP1 PUSH2 0x7E7 JUMP JUMPDEST PUSH1 0x40 MLOAD DUP1 SWAP2 SUB SWAP1 RETURN JUMPDEST PUSH2 0x1AB PUSH2 0x41E JUMP JUMPDEST STOP JUMPDEST PUSH1 0x2 DUP1 SLOAD PUSH2 0x1BA SWAP1 PUSH2 0x82D JUMP JUMPDEST DUP1 PUSH1 0x1F ADD PUSH1 0x20 DUP1 SWAP2 DIV MUL PUSH1 0x20 ADD PUSH1 0x40 MLOAD SWAP1 DUP2 ADD PUSH1 0x40 MSTORE DUP1 SWAP3 SWAP2 SWAP1 DUP2 DUP2 MSTORE PUSH1 0x20 ADD DUP3 DUP1 SLOAD PUSH2 0x1E6 SWAP1 PUSH2 0x82D JUMP JUMPDEST DUP1 ISZERO PUSH2 0x231 JUMPI DUP1 PUSH1 0x1F LT PUSH2 0x208 JUMPI PUSH2 0x100 DUP1 DUP4 SLOAD DIV MUL DUP4 MSTORE SWAP2 PUSH1 0x20 ADD SWAP2 PUSH2 0x231 JUMP JUMPDEST DUP3 ADD SWAP2 SWAP1 PUSH0 MSTORE PUSH1 0x20 PUSH0 KECCAK256 SWAP1 JUMPDEST DUP2 SLOAD DUP2 MSTORE SWAP1 PUSH1 0x1 ADD SWAP1 PUSH1 0x20 ADD DUP1 DUP4 GT PUSH2 0x214 JUMPI DUP3 SWAP1 SUB PUSH1 0x1F AND DUP3 ADD SWAP2 JUMPDEST POP POP POP POP POP DUP2 JUMP JUMPDEST PUSH1 0x1 PUSH1 0x20 MSTORE DUP1 PUSH0 MSTORE PUSH1 0x40 PUSH0 KECCAK256 PUSH0 SWAP2 POP SWAP1 POP SLOAD DUP2 JUMP JUMPDEST PUSH0 PUSH1 0x2 PUSH1 0x40 MLOAD PUSH1 0x20 ADD PUSH2 0x261 SWAP2 SWAP1 PUSH2 0x8F9 JUMP JUMPDEST PUSH1 0x40 MLOAD PUSH1 0x20 DUP2 DUP4 SUB SUB DUP2 MSTORE SWAP1 PUSH1 0x40 MSTORE DUP1 MLOAD SWAP1 PUSH1 0x20 ADD KECCAK256 DUP3 PUSH1 0x40 MLOAD PUSH1 0x20 ADD PUSH2 0x288 SWAP2 SWAP1 PUSH2 0x93F JUMP JUMPDEST PUSH1 0x40 MLOAD PUSH1 0x20 DUP2 DUP4 SUB SUB DUP2 MSTORE SWAP1 PUSH1 0x40 MSTORE DUP1 MLOAD SWAP1 PUSH1 0x20 ADD KECCAK256 EQ SWAP1 POP SWAP2 SWAP1 POP JUMP JUMPDEST PUSH0 PUSH0 SWAP1 SLOAD SWAP1 PUSH2 0x100 EXP SWAP1 DIV PUSH20 0xFFFFFFFFFFFFFFFFFFFFFFFFFFFFFFFFFFFFFFFF AND PUSH20 0xFFFFFFFFFFFFFFFFFFFFFFFFFFFFFFFFFFFFFFFF AND CALLER PUSH20 0xFFFFFFFFFFFFFFFFFFFFFFFFFFFFFFFFFFFFFFFF AND EQ PUSH2 0x334 JUMPI PUSH1 0x40 MLOAD PUSH32 0x8C379A000000000000000000000000000000000000000000000000000000000 DUP2 MSTORE PUSH1 0x4 ADD PUSH2 0x32B SWAP1 PUSH2 0x99F JUMP JUMPDEST PUSH1 0x40 MLOAD DUP1 SWAP2 SUB SWAP1 REVERT JUMPDEST PUSH0 SELFBALANCE SWAP1 POP PUSH0 DUP3 PUSH20 0xFFFFFFFFFFFFFFFFFFFFFFFFFFFFFFFFFFFFFFFF AND DUP3 PUSH1 0x40 MLOAD PUSH2 0x35D SWAP1 PUSH2 0x9EA JUMP JUMPDEST PUSH0 PUSH1 0x40 MLOAD DUP1 DUP4 SUB DUP2 DUP6 DUP8 GAS CALL SWAP3 POP POP POP RETURNDATASIZE DUP1 PUSH0 DUP2 EQ PUSH2 0x397 JUMPI PUSH1 0x40 MLOAD SWAP2 POP PUSH1 0x1F NOT PUSH1 0x3F RETURNDATASIZE ADD AND DUP3 ADD PUSH1 0x40 MSTORE RETURNDATASIZE DUP3 MSTORE RETURNDATASIZE PUSH0 PUSH1 0x20 DUP5 ADD RETURNDATACOPY PUSH2 0x39C JUMP JUMPDEST PUSH1 0x60 SWAP2 POP JUMPDEST POP POP SWAP1 POP DUP1 PUSH2 0x3E0 JUMPI PUSH1 0x40 MLOAD PUSH32 0x8C379A000000000000000000000000000000000000000000000000000000000 DUP2 MSTORE PUSH1 0x4 ADD PUSH2 0x3D7 SWAP1 PUSH2 0xA48 JUMP JUMPDEST PUSH1 0x40 MLOAD DUP1 SWAP2 SUB SWAP1 REVERT JUMPDEST POP POP POP JUMP JUMPDEST PUSH0 DUP2 DUP4 PUSH2 0x3F2 SWAP2 SWAP1 PUSH2 0xA93 JUMP JUMPDEST SWAP1 POP SWAP3 SWAP2 POP POP JUMP JUMPDEST PUSH0 PUSH0 SWAP1 SLOAD SWAP1 PUSH2 0x100 EXP SWAP1 DIV PUSH20 0xFFFFFFFFFFFFFFFFFFFFFFFFFFFFFFFFFFFFFFFF AND DUP2 JUMP JUMPDEST CALLVALUE PUSH1 0x1 PUSH0 CALLER PUSH20 0xFFFFFFFFFFFFFFFFFFFFFFFFFFFFFFFFFFFFFFFF AND PUSH20 0xFFFFFFFFFFFFFFFFFFFFFFFFFFFFFFFFFFFFFFFF AND DUP2 MSTORE PUSH1 0x20 ADD SWAP1 DUP2 MSTORE PUSH1 0x20 ADD PUSH0 KECCAK256 PUSH0 DUP3 DUP3 SLOAD PUSH2 0x46A SWAP2 SWAP1 PUSH2 0xA93 JUMP JUMPDEST SWAP3 POP POP DUP2 SWAP1 SSTORE POP JUMP JUMPDEST PUSH0 DUP2 MLOAD SWAP1 POP SWAP2 SWAP1 POP JUMP JUMPDEST PUSH0 DUP3 DUP3 MSTORE PUSH1 0x20 DUP3 ADD SWAP1 POP SWAP3 SWAP2 POP POP JUMP JUMPDEST DUP3 DUP2 DUP4 MCOPY PUSH0 DUP4 DUP4 ADD MSTORE POP POP POP JUMP JUMPDEST PUSH0 PUSH1 0x1F NOT PUSH1 0x1F DUP4 ADD AND SWAP1 POP SWAP2 SWAP1 POP JUMP JUMPDEST PUSH0 PUSH2 0x4B5 DUP3 PUSH2 0x473 JUMP JUMPDEST PUSH2 0x4BF DUP2 DUP6 PUSH2 0x47D JUMP JUMPDEST SWAP4 POP PUSH2 0x4CF DUP2 DUP6 PUSH1 0x20 DUP7 ADD PUSH2 0x48D JUMP JUMPDEST PUSH2 0x4D8 DUP2 PUSH2 0x49B JUMP JUMPDEST DUP5 ADD SWAP2 POP POP SWAP3 SWAP2 POP POP JUMP JUMPDEST PUSH0 PUSH1 0x20 DUP3 ADD SWAP1 POP DUP2 DUP2 SUB PUSH0 DUP4 ADD MSTORE PUSH2 0x4FB DUP2 DUP5 PUSH2 0x4AB JUMP JUMPDEST SWAP1 POP SWAP3 SWAP2 POP POP JUMP JUMPDEST PUSH0 PUSH1 0x40 MLOAD SWAP1 POP SWAP1 JUMP JUMPDEST PUSH0 PUSH0 REVERT JUMPDEST PUSH0 PUSH0 REVERT JUMPDEST PUSH0 PUSH20 0xFFFFFFFFFFFFFFFFFFFFFFFFFFFFFFFFFFFFFFFF DUP3 AND SWAP1 POP SWAP2 SWAP1 POP JUMP JUMPDEST PUSH0 PUSH2 0x53D DUP3 PUSH2 0x514 JUMP JUMPDEST SWAP1 POP SWAP2 SWAP1 POP JUMP JUMPDEST PUSH2 0x54D DUP2 PUSH2 0x533 JUMP JUMPDEST DUP2 EQ PUSH2 0x557 JUMPI PUSH0 PUSH0 REVERT JUMPDEST POP JUMP JUMPDEST PUSH0 DUP2 CALLDATALOAD SWAP1 POP PUSH2 0x568 DUP2 PUSH2 0x544 JUMP JUMPDEST SWAP3 SWAP2 POP POP JUMP JUMPDEST PUSH0 PUSH1 0x20 DUP3 DUP5 SUB SLT ISZERO PUSH2 0x583 JUMPI PUSH2 0x582 PUSH2 0x50C JUMP JUMPDEST JUMPDEST PUSH0 PUSH2 0x590 DUP5 DUP3 DUP6 ADD PUSH2 0x55A JUMP JUMPDEST SWAP2 POP POP SWAP3 SWAP2 POP POP JUMP JUMPDEST PUSH0 DUP2 SWAP1 POP SWAP2 SWAP1 POP JUMP JUMPDEST PUSH2 0x5AB DUP2 PUSH2 0x599 JUMP JUMPDEST DUP3 MSTORE POP POP JUMP JUMPDEST PUSH0 PUSH1 0x20 DUP3 ADD SWAP1 POP PUSH2 0x5C4 PUSH0 DUP4 ADD DUP5 PUSH2 0x5A2 JUMP JUMPDEST SWAP3 SWAP2 POP POP JUMP JUMPDEST PUSH0 PUSH0 REVERT JUMPDEST PUSH0 PUSH0 REVERT JUMPDEST PUSH32 0x4E487B7100000000000000000000000000000000000000000000000000000000 PUSH0 MSTORE PUSH1 0x41 PUSH1 0x4 MSTORE PUSH1 0x24 PUSH0 REVERT JUMPDEST PUSH2 0x608 DUP3 PUSH2 0x49B JUMP JUMPDEST DUP2 ADD DUP2 DUP2 LT PUSH8 0xFFFFFFFFFFFFFFFF DUP3 GT OR ISZERO PUSH2 0x627 JUMPI PUSH2 0x626 PUSH2 0x5D2 JUMP JUMPDEST JUMPDEST DUP1 PUSH1 0x40 MSTORE POP POP POP JUMP JUMPDEST PUSH0 PUSH2 0x639 PUSH2 0x503 JUMP JUMPDEST SWAP1 POP PUSH2 0x645 DUP3 DUP3 PUSH2 0x5FF JUMP JUMPDEST SWAP2 SWAP1 POP JUMP JUMPDEST PUSH0 PUSH8 0xFFFFFFFFFFFFFFFF DUP3 GT ISZERO PUSH2 0x664 JUMPI PUSH2 0x663 PUSH2 0x5D2 JUMP JUMPDEST JUMPDEST PUSH2 0x66D DUP3 PUSH2 0x49B JUMP JUMPDEST SWAP1 POP PUSH1 0x20 DUP2 ADD SWAP1 POP SWAP2 SWAP1 POP JUMP JUMPDEST DUP3 DUP2 DUP4 CALLDATACOPY PUSH0 DUP4 DUP4 ADD MSTORE POP POP POP JUMP JUMPDEST PUSH0 PUSH2 0x69A PUSH2 0x695 DUP5 PUSH2 0x64A JUMP JUMPDEST PUSH2 0x630 JUMP JUMPDEST SWAP1 POP DUP3 DUP2 MSTORE PUSH1 0x20 DUP2 ADD DUP5 DUP5 DUP5 ADD GT ISZERO PUSH2 0x6B6 JUMPI PUSH2 0x6B5 PUSH2 0x5CE JUMP JUMPDEST JUMPDEST PUSH2 0x6C1 DUP5 DUP3 DUP6 PUSH2 0x67A JUMP JUMPDEST POP SWAP4 SWAP3 POP POP POP JUMP JUMPDEST PUSH0 DUP3 PUSH1 0x1F DUP4 ADD SLT PUSH2 0x6DD JUMPI PUSH2 0x6DC PUSH2 0x5CA JUMP JUMPDEST JUMPDEST DUP2 CALLDATALOAD PUSH2 0x6ED DUP5 DUP3 PUSH1 0x20 DUP7 ADD PUSH2 0x688 JUMP JUMPDEST SWAP2 POP POP SWAP3 SWAP2 POP POP JUMP JUMPDEST PUSH0 PUSH1 0x20 DUP3 DUP5 SUB SLT ISZERO PUSH2 0x70B JUMPI PUSH2 0x70A PUSH2 0x50C JUMP JUMPDEST JUMPDEST PUSH0 DUP3 ADD CALLDATALOAD PUSH8 0xFFFFFFFFFFFFFFFF DUP2 GT ISZERO PUSH2 0x728 JUMPI PUSH2 0x727 PUSH2 0x510 JUMP JUMPDEST JUMPDEST PUSH2 0x734 DUP5 DUP3 DUP6 ADD PUSH2 0x6C9 JUMP JUMPDEST SWAP2 POP POP SWAP3 SWAP2 POP POP JUMP JUMPDEST PUSH0 DUP2 ISZERO ISZERO SWAP1 POP SWAP2 SWAP1 POP JUMP JUMPDEST PUSH2 0x751 DUP2 PUSH2 0x73D JUMP JUMPDEST DUP3 MSTORE POP POP JUMP JUMPDEST PUSH0 PUSH1 0x20 DUP3 ADD SWAP1 POP PUSH2 0x76A PUSH0 DUP4 ADD DUP5 PUSH2 0x748 JUMP JUMPDEST SWAP3 SWAP2 POP POP JUMP JUMPDEST PUSH2 0x779 DUP2 PUSH2 0x599 JUMP JUMPDEST DUP2 EQ PUSH2 0x783 JUMPI PUSH0 PUSH0 REVERT JUMPDEST POP JUMP JUMPDEST PUSH0 DUP2 CALLDATALOAD SWAP1 POP PUSH2 0x794 DUP2 PUSH2 0x770 JUMP JUMPDEST SWAP3 SWAP2 POP POP JUMP JUMPDEST PUSH0 PUSH0 PUSH1 0x40 DUP4 DUP6 SUB SLT ISZERO PUSH2 0x7B0 JUMPI PUSH2 0x7AF PUSH2 0x50C JUMP JUMPDEST JUMPDEST PUSH0 PUSH2 0x7BD DUP6 DUP3 DUP7 ADD PUSH2 0x786 JUMP JUMPDEST SWAP3 POP POP PUSH1 0x20 PUSH2 0x7CE DUP6 DUP3 DUP7 ADD PUSH2 0x786 JUMP JUMPDEST SWAP2 POP POP SWAP3 POP SWAP3 SWAP1 POP JUMP JUMPDEST PUSH2 0x7E1 DUP2 PUSH2 0x533 JUMP JUMPDEST DUP3 MSTORE POP POP JUMP JUMPDEST PUSH0 PUSH1 0x20 DUP3 ADD SWAP1 POP PUSH2 0x7FA PUSH0 DUP4 ADD DUP5 PUSH2 0x7D8 JUMP JUMPDEST SWAP3 SWAP2 POP POP JUMP JUMPDEST PUSH32 0x4E487B7100000000000000000000000000000000000000000000000000000000 PUSH0 MSTORE PUSH1 0x22 PUSH1 0x4 MSTORE PUSH1 0x24 PUSH0 REVERT JUMPDEST PUSH0 PUSH1 0x2 DUP3 DIV SWAP1 POP PUSH1 0x1 DUP3 AND DUP1 PUSH2 0x844 JUMPI PUSH1 0x7F DUP3 AND SWAP2 POP JUMPDEST PUSH1 0x20 DUP3 LT DUP2 SUB PUSH2 0x857 JUMPI PUSH2 0x856 PUSH2 0x800 JUMP JUMPDEST JUMPDEST POP SWAP2 SWAP1 POP JUMP JUMPDEST PUSH0 DUP2 SWAP1 POP SWAP3 SWAP2 POP POP JUMP JUMPDEST PUSH0 DUP2 SWAP1 POP DUP2 PUSH0 MSTORE PUSH1 0x20 PUSH0 KECCAK256 SWAP1 POP SWAP2 SWAP1 POP JUMP JUMPDEST PUSH0 DUP2 SLOAD PUSH2 0x885 DUP2 PUSH2 0x82D JUMP JUMPDEST PUSH2 0x88F DUP2 DUP7 PUSH2 0x85D JUMP JUMPDEST SWAP5 POP PUSH1 0x1 DUP3 AND PUSH0 DUP2 EQ PUSH2 0x8A9 JUMPI PUSH1 0x1 DUP2 EQ PUSH2 0x8BE JUMPI PUSH2 0x8F0 JUMP JUMPDEST PUSH1 0xFF NOT DUP4 AND DUP7 MSTORE DUP2 ISZERO ISZERO DUP3 MUL DUP7 ADD SWAP4 POP PUSH2 0x8F0 JUMP JUMPDEST PUSH2 0x8C7 DUP6 PUSH2 0x867 JUMP JUMPDEST PUSH0 JUMPDEST DUP4 DUP2 LT ISZERO PUSH2 0x8E8 JUMPI DUP2 SLOAD DUP2 DUP10 ADD MSTORE PUSH1 0x1 DUP3 ADD SWAP2 POP PUSH1 0x20 DUP2 ADD SWAP1 POP PUSH2 0x8C9 JUMP JUMPDEST DUP4 DUP9 ADD SWAP6 POP POP POP JUMPDEST POP POP POP SWAP3 SWAP2 POP POP JUMP JUMPDEST PUSH0 PUSH2 0x904 DUP3 DUP5 PUSH2 0x879 JUMP JUMPDEST SWAP2 POP DUP2 SWAP1 POP SWAP3 SWAP2 POP POP JUMP JUMPDEST PUSH0 PUSH2 0x919 DUP3 PUSH2 0x473 JUMP JUMPDEST PUSH2 0x923 DUP2 DUP6 PUSH2 0x85D JUMP JUMPDEST SWAP4 POP PUSH2 0x933 DUP2 DUP6 PUSH1 0x20 DUP7 ADD PUSH2 0x48D JUMP JUMPDEST DUP1 DUP5 ADD SWAP2 POP POP SWAP3 SWAP2 POP POP JUMP JUMPDEST PUSH0 PUSH2 0x94A DUP3 DUP5 PUSH2 0x90F JUMP JUMPDEST SWAP2 POP DUP2 SWAP1 POP SWAP3 SWAP2 POP POP JUMP JUMPDEST PUSH32 0x4E6F7420746865204F776E657200000000000000000000000000000000000000 PUSH0 DUP3 ADD MSTORE POP JUMP JUMPDEST PUSH0 PUSH2 0x989 PUSH1 0xD DUP4 PUSH2 0x47D JUMP JUMPDEST SWAP2 POP PUSH2 0x994 DUP3 PUSH2 0x955 JUMP JUMPDEST PUSH1 0x20 DUP3 ADD SWAP1 POP SWAP2 SWAP1 POP JUMP JUMPDEST PUSH0 PUSH1 0x20 DUP3 ADD SWAP1 POP DUP2 DUP2 SUB PUSH0 DUP4 ADD MSTORE PUSH2 0x9B6 DUP2 PUSH2 0x97D JUMP JUMPDEST SWAP1 POP SWAP2 SWAP1 POP JUMP JUMPDEST PUSH0 DUP2 SWAP1 POP SWAP3 SWAP2 POP POP JUMP JUMPDEST POP JUMP JUMPDEST PUSH0 PUSH2 0x9D5 PUSH0 DUP4 PUSH2 0x9BD JUMP JUMPDEST SWAP2 POP PUSH2 0x9E0 DUP3 PUSH2 0x9C7 JUMP JUMPDEST PUSH0 DUP3 ADD SWAP1 POP SWAP2 SWAP1 POP JUMP JUMPDEST PUSH0 PUSH2 0x9F4 DUP3 PUSH2 0x9CA JUMP JUMPDEST SWAP2 POP DUP2 SWAP1 POP SWAP2 SWAP1 POP JUMP JUMPDEST PUSH32 0x4661696C656420746F2073656E64204574686572000000000000000000000000 PUSH0 DUP3 ADD MSTORE POP JUMP JUMPDEST PUSH0 PUSH2 0xA32 PUSH1 0x14 DUP4 PUSH2 0x47D JUMP JUMPDEST SWAP2 POP PUSH2 0xA3D DUP3 PUSH2 0x9FE JUMP JUMPDEST PUSH1 0x20 DUP3 ADD SWAP1 POP SWAP2 SWAP1 POP JUMP JUMPDEST PUSH0 PUSH1 0x20 DUP3 ADD SWAP1 POP DUP2 DUP2 SUB PUSH0 DUP4 ADD MSTORE PUSH2 0xA5F DUP2 PUSH2 0xA26 JUMP JUMPDEST SWAP1 POP SWAP2 SWAP1 POP JUMP JUMPDEST PUSH32 0x4E487B7100000000000000000000000000000000000000000000000000000000 PUSH0 MSTORE PUSH1 0x11 PUSH1 0x4 MSTORE PUSH1 0x24 PUSH0 REVERT JUMPDEST PUSH0 PUSH2 0xA9D DUP3 PUSH2 0x599 JUMP JUMPDEST SWAP2 POP PUSH2 0xAA8 DUP4 PUSH2 0x599 JUMP JUMPDEST SWAP3 POP DUP3 DUP3 ADD SWAP1 POP DUP1 DUP3 GT ISZERO PUSH2 0xAC0 JUMPI PUSH2 0xABF PUSH2 0xA66 JUMP JUMPDEST JUMPDEST SWAP3 SWAP2 POP POP JUMP INVALID LOG2 PUSH5 0x6970667358 0x22 SLT KECCAK256 BLOBBASEFEE SIGNEXTEND PUSH17 0x1F878E9085AA99DFD508FFE953E6486AA2 0x4C CALLVALUE PUSH32 0xF4CDDF3903351B95E164736F6C634300081E0033000000000000000000000000 "
				},
				"gasEstimates": {
					"creation": {
						"codeDepositCost": "562400",
						"executionCost": "infinite",
						"totalCost": "infinite"
					},
					"external": {
						"add(uint256,uint256)": "infinite",
						"balances(address)": "2825",
						"compereString(string)": "infinite",
						"deposit()": "infinite",
						"name()": "infinite",
						"owner()": "2551",
						"withdraw(address)": "infinite"
					}
				},
				"methodIdentifiers": {
					"add(uint256,uint256)": "771602f7",
					"balances(address)": "27e235e3",
					"compereString(string)": "3c18e7ca",
					"deposit()": "d0e30db0",
					"name()": "06fdde03",
					"owner()": "8da5cb5b",
					"withdraw(address)": "51cff8d9"
				}
			},
			"storageLayout": {
				"storage": [
					{
						"astId": 3,
						"contract": "contracts/Reference.sol:Reference",
						"label": "owner",
						"offset": 0,
						"slot": "0",
						"type": "t_address"
					},
					{
						"astId": 28,
						"contract": "contracts/Reference.sol:Reference",
						"label": "balances",
						"offset": 0,
						"slot": "1",
						"type": "t_mapping(t_address,t_uint256)"
					},
					{
						"astId": 61,
						"contract": "contracts/Reference.sol:Reference",
						"label": "name",
						"offset": 0,
						"slot": "2",
						"type": "t_string_storage"
					}
				],
				"types": {
					"t_address": {
						"encoding": "inplace",
						"label": "address",
						"numberOfBytes": "20"
					},
					"t_mapping(t_address,t_uint256)": {
						"encoding": "mapping",
						"key": "t_address",
						"label": "mapping(address => uint256)",
						"numberOfBytes": "32",
						"value": "t_uint256"
					},
					"t_string_storage": {
						"encoding": "bytes",
						"label": "string",
						"numberOfBytes": "32"
					},
					"t_uint256": {
						"encoding": "inplace",
						"label": "uint256",
						"numberOfBytes": "32"
					}
				}
			},
			"userdoc": {
				"kind": "user",
				"methods": {},
				"version": 1
			}
		}
	}
}