{
	"contracts/AdvancedContract.sol": {
		"AdvancedContract": {
			"abi": [
				{
					"anonymous": false,
					"inputs": [
						{
							"indexed": false,
							"internalType": "string",
							"name": "className",
							"type": "string"
						},
						{
							"indexed": true,
							"internalType": "uint256",
							"name": "numberOfStudents",
							"type": "uint256"
						},
						{
							"indexed": true,
							"internalType": "uint256",
							"name": "year",
							"type": "uint256"
						}
					],
					"name": "Set",
					"type": "event"
				},
				{
					"inputs": [],
					"name": "className",
					"outputs": [
						{
							"internalType": "string",
							"name": "",
							"type": "string"
						}
					],
					"stateMutability": "view",
					"type": "function"
				},
				{
					"inputs": [],
					"name": "numberOfStudents",
					"outputs": [
						{
							"internalType": "uint256",
							"name": "",
							"type": "uint256"
						}
					],
					"stateMutability": "view",
					"type": "function"
				},
				{
					"inputs": [
						{
							"internalType": "string",
							"name": "_name",
							"type": "string"
						},
						{
							"internalType": "uint256",
							"name": "_numberOfStudents",
							"type": "uint256"
						},
						{
							"internalType": "uint256",
							"name": "_year",
							"type": "uint256"
						}
					],
					"name": "setClass",
					"outputs": [],
					"stateMutability": "nonpayable",
					"type": "function"
				},
				{
					"inputs": [],
					"name": "year",
					"outputs": [
						{
							"internalType": "uint256",
							"name": "",
							"type": "uint256"
						}
					],
					"stateMutability": "view",
					"type": "function"
				}
			],
			"devdoc": {
				"kind": "dev",
				"methods": {},
				"version": 1
			},
			"evm": {
				"assembly": "    /* \"contracts/AdvancedContract.sol\":57:526  contract AdvancedContract {... */\n  mstore(0x40, 0x80)\n  callvalue\n  dup1\n  iszero\n  tag_1\n  jumpi\n  revert(0x00, 0x00)\ntag_1:\n  pop\n  dataSize(sub_0)\n  dup1\n  dataOffset(sub_0)\n  0x00\n  codecopy\n  0x00\n  return\nstop\n\nsub_0: assembly {\n        /* \"contracts/AdvancedContract.sol\":57:526  contract AdvancedContract {... */\n      mstore(0x40, 0x80)\n      callvalue\n      dup1\n      iszero\n      tag_1\n      jumpi\n      revert(0x00, 0x00)\n    tag_1:\n      pop\n      jumpi(tag_2, lt(calldatasize, 0x04))\n      shr(0xe0, calldataload(0x00))\n      dup1\n      0xc51f8c\n      eq\n      tag_3\n      jumpi\n      dup1\n      0x35bdf8b5\n      eq\n      tag_4\n      jumpi\n      dup1\n      0x93199b09\n      eq\n      tag_5\n      jumpi\n      dup1\n      0xf3269716\n      eq\n      tag_6\n      jumpi\n    tag_2:\n      revert(0x00, 0x00)\n        /* \"contracts/AdvancedContract.sol\":89:112  string public className */\n    tag_3:\n      tag_7\n      tag_8\n      jump\t// in\n    tag_7:\n      mload(0x40)\n      tag_9\n      swap2\n      swap1\n      tag_10\n      jump\t// in\n    tag_9:\n      mload(0x40)\n      dup1\n      swap2\n      sub\n      swap1\n      return\n        /* \"contracts/AdvancedContract.sol\":271:524  function setClass(string memory _name, uint256 _numberOfStudents, uint256 _year) public {... */\n    tag_4:\n      tag_11\n      0x04\n      dup1\n      calldatasize\n      sub\n      dup2\n      add\n      swap1\n      tag_12\n      swap2\n      swap1\n      tag_13\n      jump\t// in\n    tag_12:\n      tag_14\n      jump\t// in\n    tag_11:\n      stop\n        /* \"contracts/AdvancedContract.sol\":118:149  uint256 public numberOfStudents */\n    tag_5:\n      tag_15\n      tag_16\n      jump\t// in\n    tag_15:\n      mload(0x40)\n      tag_17\n      swap2\n      swap1\n      tag_18\n      jump\t// in\n    tag_17:\n      mload(0x40)\n      dup1\n      swap2\n      sub\n      swap1\n      return\n        /* \"contracts/AdvancedContract.sol\":155:174  uint256 public year */\n    tag_6:\n      tag_19\n      tag_20\n      jump\t// in\n    tag_19:\n      mload(0x40)\n      tag_21\n      swap2\n      swap1\n      tag_18\n      jump\t// in\n    tag_21:\n      mload(0x40)\n      dup1\n      swap2\n      sub\n      swap1\n      return\n        /* \"contracts/AdvancedContract.sol\":89:112  string public className */\n    tag_8:\n      0x00\n      dup1\n      sload\n      tag_22\n      swap1\n      tag_23\n      jump\t// in\n    tag_22:\n      dup1\n      0x1f\n      add\n      0x20\n      dup1\n      swap2\n      div\n      mul\n      0x20\n      add\n      mload(0x40)\n      swap1\n      dup2\n      add\n      0x40\n      mstore\n      dup1\n      swap3\n      swap2\n      swap1\n      dup2\n      dup2\n      mstore\n      0x20\n      add\n      dup3\n      dup1\n      sload\n      tag_24\n      swap1\n      tag_23\n      jump\t// in\n    tag_24:\n      dup1\n      iszero\n      tag_25\n      jumpi\n      dup1\n      0x1f\n      lt\n      tag_26\n      jumpi\n      0x0100\n      dup1\n      dup4\n      sload\n      div\n      mul\n      dup4\n      mstore\n      swap2\n      0x20\n      add\n      swap2\n      jump(tag_25)\n    tag_26:\n      dup3\n      add\n      swap2\n      swap1\n      0x00\n      mstore\n      keccak256(0x00, 0x20)\n      swap1\n    tag_27:\n      dup2\n      sload\n      dup2\n      mstore\n      swap1\n      0x01\n      add\n      swap1\n      0x20\n      add\n      dup1\n      dup4\n      gt\n      tag_27\n      jumpi\n      dup3\n      swap1\n      sub\n      0x1f\n      and\n      dup3\n      add\n      swap2\n    tag_25:\n      pop\n      pop\n      pop\n      pop\n      pop\n      dup2\n      jump\t// out\n        /* \"contracts/AdvancedContract.sol\":271:524  function setClass(string memory _name, uint256 _numberOfStudents, uint256 _year) public {... */\n    tag_14:\n        /* \"contracts/AdvancedContract.sol\":381:386  _name */\n      dup3\n        /* \"contracts/AdvancedContract.sol\":369:378  className */\n      0x00\n        /* \"contracts/AdvancedContract.sol\":369:386  className = _name */\n      swap1\n      dup2\n      tag_29\n      swap2\n      swap1\n      tag_30\n      jump\t// in\n    tag_29:\n      pop\n        /* \"contracts/AdvancedContract.sol\":415:432  _numberOfStudents */\n      dup2\n        /* \"contracts/AdvancedContract.sol\":396:412  numberOfStudents */\n      0x01\n        /* \"contracts/AdvancedContract.sol\":396:432  numberOfStudents = _numberOfStudents */\n      dup2\n      swap1\n      sstore\n      pop\n        /* \"contracts/AdvancedContract.sol\":449:454  _year */\n      dup1\n        /* \"contracts/AdvancedContract.sol\":442:446  year */\n      0x02\n        /* \"contracts/AdvancedContract.sol\":442:454  year = _year */\n      dup2\n      swap1\n      sstore\n      pop\n        /* \"contracts/AdvancedContract.sol\":503:507  year */\n      sload(0x02)\n        /* \"contracts/AdvancedContract.sol\":485:501  numberOfStudents */\n      sload(0x01)\n        /* \"contracts/AdvancedContract.sol\":470:508  Set(className, numberOfStudents, year) */\n      0x9ac53e78f8bf6bc88e2455da8556e92817ccb776de0ccebace505d8b2c0bd00f\n        /* \"contracts/AdvancedContract.sol\":474:483  className */\n      0x00\n        /* \"contracts/AdvancedContract.sol\":470:508  Set(className, numberOfStudents, year) */\n      mload(0x40)\n      tag_31\n      swap2\n      swap1\n      tag_32\n      jump\t// in\n    tag_31:\n      mload(0x40)\n      dup1\n      swap2\n      sub\n      swap1\n      log3\n        /* \"contracts/AdvancedContract.sol\":271:524  function setClass(string memory _name, uint256 _numberOfStudents, uint256 _year) public {... */\n      pop\n      pop\n      pop\n      jump\t// out\n        /* \"contracts/AdvancedContract.sol\":118:149  uint256 public numberOfStudents */\n    tag_16:\n      sload(0x01)\n      dup2\n      jump\t// out\n        /* \"contracts/AdvancedContract.sol\":155:174  uint256 public year */\n    tag_20:\n      sload(0x02)\n      dup2\n      jump\t// out\n        /* \"#utility.yul\":7:106   */\n    tag_33:\n        /* \"#utility.yul\":59:65   */\n      0x00\n        /* \"#utility.yul\":93:98   */\n      dup2\n        /* \"#utility.yul\":87:99   */\n      mload\n        /* \"#utility.yul\":77:99   */\n      swap1\n      pop\n        /* \"#utility.yul\":7:106   */\n      swap2\n      swap1\n      pop\n      jump\t// out\n        /* \"#utility.yul\":112:281   */\n    tag_34:\n        /* \"#utility.yul\":196:207   */\n      0x00\n        /* \"#utility.yul\":230:236   */\n      dup3\n        /* \"#utility.yul\":225:228   */\n      dup3\n        /* \"#utility.yul\":218:237   */\n      mstore\n        /* \"#utility.yul\":270:274   */\n      0x20\n        /* \"#utility.yul\":265:268   */\n      dup3\n        /* \"#utility.yul\":261:275   */\n      add\n        /* \"#utility.yul\":246:275   */\n      swap1\n      pop\n        /* \"#utility.yul\":112:281   */\n      swap3\n      swap2\n      pop\n      pop\n      jump\t// out\n        /* \"#utility.yul\":287:426   */\n    tag_35:\n        /* \"#utility.yul\":376:382   */\n      dup3\n        /* \"#utility.yul\":371:374   */\n      dup2\n        /* \"#utility.yul\":366:369   */\n      dup4\n        /* \"#utility.yul\":360:383   */\n      mcopy\n        /* \"#utility.yul\":417:418   */\n      0x00\n        /* \"#utility.yul\":408:414   */\n      dup4\n        /* \"#utility.yul\":403:406   */\n      dup4\n        /* \"#utility.yul\":399:415   */\n      add\n        /* \"#utility.yul\":392:419   */\n      mstore\n        /* \"#utility.yul\":287:426   */\n      pop\n      pop\n      pop\n      jump\t// out\n        /* \"#utility.yul\":432:534   */\n    tag_36:\n        /* \"#utility.yul\":473:479   */\n      0x00\n        /* \"#utility.yul\":524:526   */\n      0x1f\n        /* \"#utility.yul\":520:527   */\n      not\n        /* \"#utility.yul\":515:517   */\n      0x1f\n        /* \"#utility.yul\":508:513   */\n      dup4\n        /* \"#utility.yul\":504:518   */\n      add\n        /* \"#utility.yul\":500:528   */\n      and\n        /* \"#utility.yul\":490:528   */\n      swap1\n      pop\n        /* \"#utility.yul\":432:534   */\n      swap2\n      swap1\n      pop\n      jump\t// out\n        /* \"#utility.yul\":540:917   */\n    tag_37:\n        /* \"#utility.yul\":628:631   */\n      0x00\n        /* \"#utility.yul\":656:695   */\n      tag_77\n        /* \"#utility.yul\":689:694   */\n      dup3\n        /* \"#utility.yul\":656:695   */\n      tag_33\n      jump\t// in\n    tag_77:\n        /* \"#utility.yul\":711:782   */\n      tag_78\n        /* \"#utility.yul\":775:781   */\n      dup2\n        /* \"#utility.yul\":770:773   */\n      dup6\n        /* \"#utility.yul\":711:782   */\n      tag_34\n      jump\t// in\n    tag_78:\n        /* \"#utility.yul\":704:782   */\n      swap4\n      pop\n        /* \"#utility.yul\":791:856   */\n      tag_79\n        /* \"#utility.yul\":849:855   */\n      dup2\n        /* \"#utility.yul\":844:847   */\n      dup6\n        /* \"#utility.yul\":837:841   */\n      0x20\n        /* \"#utility.yul\":830:835   */\n      dup7\n        /* \"#utility.yul\":826:842   */\n      add\n        /* \"#utility.yul\":791:856   */\n      tag_35\n      jump\t// in\n    tag_79:\n        /* \"#utility.yul\":881:910   */\n      tag_80\n        /* \"#utility.yul\":903:909   */\n      dup2\n        /* \"#utility.yul\":881:910   */\n      tag_36\n      jump\t// in\n    tag_80:\n        /* \"#utility.yul\":876:879   */\n      dup5\n        /* \"#utility.yul\":872:911   */\n      add\n        /* \"#utility.yul\":865:911   */\n      swap2\n      pop\n        /* \"#utility.yul\":632:917   */\n      pop\n        /* \"#utility.yul\":540:917   */\n      swap3\n      swap2\n      pop\n      pop\n      jump\t// out\n        /* \"#utility.yul\":923:1236   */\n    tag_10:\n        /* \"#utility.yul\":1036:1040   */\n      0x00\n        /* \"#utility.yul\":1074:1076   */\n      0x20\n        /* \"#utility.yul\":1063:1072   */\n      dup3\n        /* \"#utility.yul\":1059:1077   */\n      add\n        /* \"#utility.yul\":1051:1077   */\n      swap1\n      pop\n        /* \"#utility.yul\":1123:1132   */\n      dup2\n        /* \"#utility.yul\":1117:1121   */\n      dup2\n        /* \"#utility.yul\":1113:1133   */\n      sub\n        /* \"#utility.yul\":1109:1110   */\n      0x00\n        /* \"#utility.yul\":1098:1107   */\n      dup4\n        /* \"#utility.yul\":1094:1111   */\n      add\n        /* \"#utility.yul\":1087:1134   */\n      mstore\n        /* \"#utility.yul\":1151:1229   */\n      tag_82\n        /* \"#utility.yul\":1224:1228   */\n      dup2\n        /* \"#utility.yul\":1215:1221   */\n      dup5\n        /* \"#utility.yul\":1151:1229   */\n      tag_37\n      jump\t// in\n    tag_82:\n        /* \"#utility.yul\":1143:1229   */\n      swap1\n      pop\n        /* \"#utility.yul\":923:1236   */\n      swap3\n      swap2\n      pop\n      pop\n      jump\t// out\n        /* \"#utility.yul\":1242:1317   */\n    tag_38:\n        /* \"#utility.yul\":1275:1281   */\n      0x00\n        /* \"#utility.yul\":1308:1310   */\n      0x40\n        /* \"#utility.yul\":1302:1311   */\n      mload\n        /* \"#utility.yul\":1292:1311   */\n      swap1\n      pop\n        /* \"#utility.yul\":1242:1317   */\n      swap1\n      jump\t// out\n        /* \"#utility.yul\":1323:1440   */\n    tag_39:\n        /* \"#utility.yul\":1432:1433   */\n      0x00\n        /* \"#utility.yul\":1429:1430   */\n      0x00\n        /* \"#utility.yul\":1422:1434   */\n      revert\n        /* \"#utility.yul\":1446:1563   */\n    tag_40:\n        /* \"#utility.yul\":1555:1556   */\n      0x00\n        /* \"#utility.yul\":1552:1553   */\n      0x00\n        /* \"#utility.yul\":1545:1557   */\n      revert\n        /* \"#utility.yul\":1569:1686   */\n    tag_41:\n        /* \"#utility.yul\":1678:1679   */\n      0x00\n        /* \"#utility.yul\":1675:1676   */\n      0x00\n        /* \"#utility.yul\":1668:1680   */\n      revert\n        /* \"#utility.yul\":1692:1809   */\n    tag_42:\n        /* \"#utility.yul\":1801:1802   */\n      0x00\n        /* \"#utility.yul\":1798:1799   */\n      0x00\n        /* \"#utility.yul\":1791:1803   */\n      revert\n        /* \"#utility.yul\":1815:1995   */\n    tag_43:\n        /* \"#utility.yul\":1863:1940   */\n      0x4e487b7100000000000000000000000000000000000000000000000000000000\n        /* \"#utility.yul\":1860:1861   */\n      0x00\n        /* \"#utility.yul\":1853:1941   */\n      mstore\n        /* \"#utility.yul\":1960:1964   */\n      0x41\n        /* \"#utility.yul\":1957:1958   */\n      0x04\n        /* \"#utility.yul\":1950:1965   */\n      mstore\n        /* \"#utility.yul\":1984:1988   */\n      0x24\n        /* \"#utility.yul\":1981:1982   */\n      0x00\n        /* \"#utility.yul\":1974:1989   */\n      revert\n        /* \"#utility.yul\":2001:2282   */\n    tag_44:\n        /* \"#utility.yul\":2084:2111   */\n      tag_90\n        /* \"#utility.yul\":2106:2110   */\n      dup3\n        /* \"#utility.yul\":2084:2111   */\n      tag_36\n      jump\t// in\n    tag_90:\n        /* \"#utility.yul\":2076:2082   */\n      dup2\n        /* \"#utility.yul\":2072:2112   */\n      add\n        /* \"#utility.yul\":2214:2220   */\n      dup2\n        /* \"#utility.yul\":2202:2212   */\n      dup2\n        /* \"#utility.yul\":2199:2221   */\n      lt\n        /* \"#utility.yul\":2178:2196   */\n      0xffffffffffffffff\n        /* \"#utility.yul\":2166:2176   */\n      dup3\n        /* \"#utility.yul\":2163:2197   */\n      gt\n        /* \"#utility.yul\":2160:2222   */\n      or\n        /* \"#utility.yul\":2157:2245   */\n      iszero\n      tag_91\n      jumpi\n        /* \"#utility.yul\":2225:2243   */\n      tag_92\n      tag_43\n      jump\t// in\n    tag_92:\n        /* \"#utility.yul\":2157:2245   */\n    tag_91:\n        /* \"#utility.yul\":2265:2275   */\n      dup1\n        /* \"#utility.yul\":2261:2263   */\n      0x40\n        /* \"#utility.yul\":2254:2276   */\n      mstore\n        /* \"#utility.yul\":2044:2282   */\n      pop\n        /* \"#utility.yul\":2001:2282   */\n      pop\n      pop\n      jump\t// out\n        /* \"#utility.yul\":2288:2417   */\n    tag_45:\n        /* \"#utility.yul\":2322:2328   */\n      0x00\n        /* \"#utility.yul\":2349:2369   */\n      tag_94\n      tag_38\n      jump\t// in\n    tag_94:\n        /* \"#utility.yul\":2339:2369   */\n      swap1\n      pop\n        /* \"#utility.yul\":2378:2411   */\n      tag_95\n        /* \"#utility.yul\":2406:2410   */\n      dup3\n        /* \"#utility.yul\":2398:2404   */\n      dup3\n        /* \"#utility.yul\":2378:2411   */\n      tag_44\n      jump\t// in\n    tag_95:\n        /* \"#utility.yul\":2288:2417   */\n      swap2\n      swap1\n      pop\n      jump\t// out\n        /* \"#utility.yul\":2423:2731   */\n    tag_46:\n        /* \"#utility.yul\":2485:2489   */\n      0x00\n        /* \"#utility.yul\":2575:2593   */\n      0xffffffffffffffff\n        /* \"#utility.yul\":2567:2573   */\n      dup3\n        /* \"#utility.yul\":2564:2594   */\n      gt\n        /* \"#utility.yul\":2561:2617   */\n      iszero\n      tag_97\n      jumpi\n        /* \"#utility.yul\":2597:2615   */\n      tag_98\n      tag_43\n      jump\t// in\n    tag_98:\n        /* \"#utility.yul\":2561:2617   */\n    tag_97:\n        /* \"#utility.yul\":2635:2664   */\n      tag_99\n        /* \"#utility.yul\":2657:2663   */\n      dup3\n        /* \"#utility.yul\":2635:2664   */\n      tag_36\n      jump\t// in\n    tag_99:\n        /* \"#utility.yul\":2627:2664   */\n      swap1\n      pop\n        /* \"#utility.yul\":2719:2723   */\n      0x20\n        /* \"#utility.yul\":2713:2717   */\n      dup2\n        /* \"#utility.yul\":2709:2724   */\n      add\n        /* \"#utility.yul\":2701:2724   */\n      swap1\n      pop\n        /* \"#utility.yul\":2423:2731   */\n      swap2\n      swap1\n      pop\n      jump\t// out\n        /* \"#utility.yul\":2737:2885   */\n    tag_47:\n        /* \"#utility.yul\":2835:2841   */\n      dup3\n        /* \"#utility.yul\":2830:2833   */\n      dup2\n        /* \"#utility.yul\":2825:2828   */\n      dup4\n        /* \"#utility.yul\":2812:2842   */\n      calldatacopy\n        /* \"#utility.yul\":2876:2877   */\n      0x00\n        /* \"#utility.yul\":2867:2873   */\n      dup4\n        /* \"#utility.yul\":2862:2865   */\n      dup4\n        /* \"#utility.yul\":2858:2874   */\n      add\n        /* \"#utility.yul\":2851:2878   */\n      mstore\n        /* \"#utility.yul\":2737:2885   */\n      pop\n      pop\n      pop\n      jump\t// out\n        /* \"#utility.yul\":2891:3316   */\n    tag_48:\n        /* \"#utility.yul\":2969:2974   */\n      0x00\n        /* \"#utility.yul\":2994:3060   */\n      tag_102\n        /* \"#utility.yul\":3010:3059   */\n      tag_103\n        /* \"#utility.yul\":3052:3058   */\n      dup5\n        /* \"#utility.yul\":3010:3059   */\n      tag_46\n      jump\t// in\n    tag_103:\n        /* \"#utility.yul\":2994:3060   */\n      tag_45\n      jump\t// in\n    tag_102:\n        /* \"#utility.yul\":2985:3060   */\n      swap1\n      pop\n        /* \"#utility.yul\":3083:3089   */\n      dup3\n        /* \"#utility.yul\":3076:3081   */\n      dup2\n        /* \"#utility.yul\":3069:3090   */\n      mstore\n        /* \"#utility.yul\":3121:3125   */\n      0x20\n        /* \"#utility.yul\":3114:3119   */\n      dup2\n        /* \"#utility.yul\":3110:3126   */\n      add\n        /* \"#utility.yul\":3159:3162   */\n      dup5\n        /* \"#utility.yul\":3150:3156   */\n      dup5\n        /* \"#utility.yul\":3145:3148   */\n      dup5\n        /* \"#utility.yul\":3141:3157   */\n      add\n        /* \"#utility.yul\":3138:3163   */\n      gt\n        /* \"#utility.yul\":3135:3247   */\n      iszero\n      tag_104\n      jumpi\n        /* \"#utility.yul\":3166:3245   */\n      tag_105\n      tag_42\n      jump\t// in\n    tag_105:\n        /* \"#utility.yul\":3135:3247   */\n    tag_104:\n        /* \"#utility.yul\":3256:3310   */\n      tag_106\n        /* \"#utility.yul\":3303:3309   */\n      dup5\n        /* \"#utility.yul\":3298:3301   */\n      dup3\n        /* \"#utility.yul\":3293:3296   */\n      dup6\n        /* \"#utility.yul\":3256:3310   */\n      tag_47\n      jump\t// in\n    tag_106:\n        /* \"#utility.yul\":2975:3316   */\n      pop\n        /* \"#utility.yul\":2891:3316   */\n      swap4\n      swap3\n      pop\n      pop\n      pop\n      jump\t// out\n        /* \"#utility.yul\":3336:3676   */\n    tag_49:\n        /* \"#utility.yul\":3392:3397   */\n      0x00\n        /* \"#utility.yul\":3441:3444   */\n      dup3\n        /* \"#utility.yul\":3434:3438   */\n      0x1f\n        /* \"#utility.yul\":3426:3432   */\n      dup4\n        /* \"#utility.yul\":3422:3439   */\n      add\n        /* \"#utility.yul\":3418:3445   */\n      slt\n        /* \"#utility.yul\":3408:3530   */\n      tag_108\n      jumpi\n        /* \"#utility.yul\":3449:3528   */\n      tag_109\n      tag_41\n      jump\t// in\n    tag_109:\n        /* \"#utility.yul\":3408:3530   */\n    tag_108:\n        /* \"#utility.yul\":3566:3572   */\n      dup2\n        /* \"#utility.yul\":3553:3573   */\n      calldataload\n        /* \"#utility.yul\":3591:3670   */\n      tag_110\n        /* \"#utility.yul\":3666:3669   */\n      dup5\n        /* \"#utility.yul\":3658:3664   */\n      dup3\n        /* \"#utility.yul\":3651:3655   */\n      0x20\n        /* \"#utility.yul\":3643:3649   */\n      dup7\n        /* \"#utility.yul\":3639:3656   */\n      add\n        /* \"#utility.yul\":3591:3670   */\n      tag_48\n      jump\t// in\n    tag_110:\n        /* \"#utility.yul\":3582:3670   */\n      swap2\n      pop\n        /* \"#utility.yul\":3398:3676   */\n      pop\n        /* \"#utility.yul\":3336:3676   */\n      swap3\n      swap2\n      pop\n      pop\n      jump\t// out\n        /* \"#utility.yul\":3682:3759   */\n    tag_50:\n        /* \"#utility.yul\":3719:3726   */\n      0x00\n        /* \"#utility.yul\":3748:3753   */\n      dup2\n        /* \"#utility.yul\":3737:3753   */\n      swap1\n      pop\n        /* \"#utility.yul\":3682:3759   */\n      swap2\n      swap1\n      pop\n      jump\t// out\n        /* \"#utility.yul\":3765:3887   */\n    tag_51:\n        /* \"#utility.yul\":3838:3862   */\n      tag_113\n        /* \"#utility.yul\":3856:3861   */\n      dup2\n        /* \"#utility.yul\":3838:3862   */\n      tag_50\n      jump\t// in\n    tag_113:\n        /* \"#utility.yul\":3831:3836   */\n      dup2\n        /* \"#utility.yul\":3828:3863   */\n      eq\n        /* \"#utility.yul\":3818:3881   */\n      tag_114\n      jumpi\n        /* \"#utility.yul\":3877:3878   */\n      0x00\n        /* \"#utility.yul\":3874:3875   */\n      0x00\n        /* \"#utility.yul\":3867:3879   */\n      revert\n        /* \"#utility.yul\":3818:3881   */\n    tag_114:\n        /* \"#utility.yul\":3765:3887   */\n      pop\n      jump\t// out\n        /* \"#utility.yul\":3893:4032   */\n    tag_52:\n        /* \"#utility.yul\":3939:3944   */\n      0x00\n        /* \"#utility.yul\":3977:3983   */\n      dup2\n        /* \"#utility.yul\":3964:3984   */\n      calldataload\n        /* \"#utility.yul\":3955:3984   */\n      swap1\n      pop\n        /* \"#utility.yul\":3993:4026   */\n      tag_116\n        /* \"#utility.yul\":4020:4025   */\n      dup2\n        /* \"#utility.yul\":3993:4026   */\n      tag_51\n      jump\t// in\n    tag_116:\n        /* \"#utility.yul\":3893:4032   */\n      swap3\n      swap2\n      pop\n      pop\n      jump\t// out\n        /* \"#utility.yul\":4038:4837   */\n    tag_13:\n        /* \"#utility.yul\":4125:4131   */\n      0x00\n        /* \"#utility.yul\":4133:4139   */\n      0x00\n        /* \"#utility.yul\":4141:4147   */\n      0x00\n        /* \"#utility.yul\":4190:4192   */\n      0x60\n        /* \"#utility.yul\":4178:4187   */\n      dup5\n        /* \"#utility.yul\":4169:4176   */\n      dup7\n        /* \"#utility.yul\":4165:4188   */\n      sub\n        /* \"#utility.yul\":4161:4193   */\n      slt\n        /* \"#utility.yul\":4158:4277   */\n      iszero\n      tag_118\n      jumpi\n        /* \"#utility.yul\":4196:4275   */\n      tag_119\n      tag_39\n      jump\t// in\n    tag_119:\n        /* \"#utility.yul\":4158:4277   */\n    tag_118:\n        /* \"#utility.yul\":4344:4345   */\n      0x00\n        /* \"#utility.yul\":4333:4342   */\n      dup5\n        /* \"#utility.yul\":4329:4346   */\n      add\n        /* \"#utility.yul\":4316:4347   */\n      calldataload\n        /* \"#utility.yul\":4374:4392   */\n      0xffffffffffffffff\n        /* \"#utility.yul\":4366:4372   */\n      dup2\n        /* \"#utility.yul\":4363:4393   */\n      gt\n        /* \"#utility.yul\":4360:4477   */\n      iszero\n      tag_120\n      jumpi\n        /* \"#utility.yul\":4396:4475   */\n      tag_121\n      tag_40\n      jump\t// in\n    tag_121:\n        /* \"#utility.yul\":4360:4477   */\n    tag_120:\n        /* \"#utility.yul\":4501:4564   */\n      tag_122\n        /* \"#utility.yul\":4556:4563   */\n      dup7\n        /* \"#utility.yul\":4547:4553   */\n      dup3\n        /* \"#utility.yul\":4536:4545   */\n      dup8\n        /* \"#utility.yul\":4532:4554   */\n      add\n        /* \"#utility.yul\":4501:4564   */\n      tag_49\n      jump\t// in\n    tag_122:\n        /* \"#utility.yul\":4491:4564   */\n      swap4\n      pop\n        /* \"#utility.yul\":4287:4574   */\n      pop\n        /* \"#utility.yul\":4613:4615   */\n      0x20\n        /* \"#utility.yul\":4639:4692   */\n      tag_123\n        /* \"#utility.yul\":4684:4691   */\n      dup7\n        /* \"#utility.yul\":4675:4681   */\n      dup3\n        /* \"#utility.yul\":4664:4673   */\n      dup8\n        /* \"#utility.yul\":4660:4682   */\n      add\n        /* \"#utility.yul\":4639:4692   */\n      tag_52\n      jump\t// in\n    tag_123:\n        /* \"#utility.yul\":4629:4692   */\n      swap3\n      pop\n        /* \"#utility.yul\":4584:4702   */\n      pop\n        /* \"#utility.yul\":4741:4743   */\n      0x40\n        /* \"#utility.yul\":4767:4820   */\n      tag_124\n        /* \"#utility.yul\":4812:4819   */\n      dup7\n        /* \"#utility.yul\":4803:4809   */\n      dup3\n        /* \"#utility.yul\":4792:4801   */\n      dup8\n        /* \"#utility.yul\":4788:4810   */\n      add\n        /* \"#utility.yul\":4767:4820   */\n      tag_52\n      jump\t// in\n    tag_124:\n        /* \"#utility.yul\":4757:4820   */\n      swap2\n      pop\n        /* \"#utility.yul\":4712:4830   */\n      pop\n        /* \"#utility.yul\":4038:4837   */\n      swap3\n      pop\n      swap3\n      pop\n      swap3\n      jump\t// out\n        /* \"#utility.yul\":4843:4961   */\n    tag_53:\n        /* \"#utility.yul\":4930:4954   */\n      tag_126\n        /* \"#utility.yul\":4948:4953   */\n      dup2\n        /* \"#utility.yul\":4930:4954   */\n      tag_50\n      jump\t// in\n    tag_126:\n        /* \"#utility.yul\":4925:4928   */\n      dup3\n        /* \"#utility.yul\":4918:4955   */\n      mstore\n        /* \"#utility.yul\":4843:4961   */\n      pop\n      pop\n      jump\t// out\n        /* \"#utility.yul\":4967:5189   */\n    tag_18:\n        /* \"#utility.yul\":5060:5064   */\n      0x00\n        /* \"#utility.yul\":5098:5100   */\n      0x20\n        /* \"#utility.yul\":5087:5096   */\n      dup3\n        /* \"#utility.yul\":5083:5101   */\n      add\n        /* \"#utility.yul\":5075:5101   */\n      swap1\n      pop\n        /* \"#utility.yul\":5111:5182   */\n      tag_128\n        /* \"#utility.yul\":5179:5180   */\n      0x00\n        /* \"#utility.yul\":5168:5177   */\n      dup4\n        /* \"#utility.yul\":5164:5181   */\n      add\n        /* \"#utility.yul\":5155:5161   */\n      dup5\n        /* \"#utility.yul\":5111:5182   */\n      tag_53\n      jump\t// in\n    tag_128:\n        /* \"#utility.yul\":4967:5189   */\n      swap3\n      swap2\n      pop\n      pop\n      jump\t// out\n        /* \"#utility.yul\":5195:5375   */\n    tag_54:\n        /* \"#utility.yul\":5243:5320   */\n      0x4e487b7100000000000000000000000000000000000000000000000000000000\n        /* \"#utility.yul\":5240:5241   */\n      0x00\n        /* \"#utility.yul\":5233:5321   */\n      mstore\n        /* \"#utility.yul\":5340:5344   */\n      0x22\n        /* \"#utility.yul\":5337:5338   */\n      0x04\n        /* \"#utility.yul\":5330:5345   */\n      mstore\n        /* \"#utility.yul\":5364:5368   */\n      0x24\n        /* \"#utility.yul\":5361:5362   */\n      0x00\n        /* \"#utility.yul\":5354:5369   */\n      revert\n        /* \"#utility.yul\":5381:5701   */\n    tag_23:\n        /* \"#utility.yul\":5425:5431   */\n      0x00\n        /* \"#utility.yul\":5462:5463   */\n      0x02\n        /* \"#utility.yul\":5456:5460   */\n      dup3\n        /* \"#utility.yul\":5452:5464   */\n      div\n        /* \"#utility.yul\":5442:5464   */\n      swap1\n      pop\n        /* \"#utility.yul\":5509:5510   */\n      0x01\n        /* \"#utility.yul\":5503:5507   */\n      dup3\n        /* \"#utility.yul\":5499:5511   */\n      and\n        /* \"#utility.yul\":5530:5548   */\n      dup1\n        /* \"#utility.yul\":5520:5601   */\n      tag_131\n      jumpi\n        /* \"#utility.yul\":5586:5590   */\n      0x7f\n        /* \"#utility.yul\":5578:5584   */\n      dup3\n        /* \"#utility.yul\":5574:5591   */\n      and\n        /* \"#utility.yul\":5564:5591   */\n      swap2\n      pop\n        /* \"#utility.yul\":5520:5601   */\n    tag_131:\n        /* \"#utility.yul\":5648:5650   */\n      0x20\n        /* \"#utility.yul\":5640:5646   */\n      dup3\n        /* \"#utility.yul\":5637:5651   */\n      lt\n        /* \"#utility.yul\":5617:5635   */\n      dup2\n        /* \"#utility.yul\":5614:5652   */\n      sub\n        /* \"#utility.yul\":5611:5695   */\n      tag_132\n      jumpi\n        /* \"#utility.yul\":5667:5685   */\n      tag_133\n      tag_54\n      jump\t// in\n    tag_133:\n        /* \"#utility.yul\":5611:5695   */\n    tag_132:\n        /* \"#utility.yul\":5432:5701   */\n      pop\n        /* \"#utility.yul\":5381:5701   */\n      swap2\n      swap1\n      pop\n      jump\t// out\n        /* \"#utility.yul\":5707:5848   */\n    tag_55:\n        /* \"#utility.yul\":5756:5760   */\n      0x00\n        /* \"#utility.yul\":5779:5782   */\n      dup2\n        /* \"#utility.yul\":5771:5782   */\n      swap1\n      pop\n        /* \"#utility.yul\":5802:5805   */\n      dup2\n        /* \"#utility.yul\":5799:5800   */\n      0x00\n        /* \"#utility.yul\":5792:5806   */\n      mstore\n        /* \"#utility.yul\":5836:5840   */\n      0x20\n        /* \"#utility.yul\":5833:5834   */\n      0x00\n        /* \"#utility.yul\":5823:5841   */\n      keccak256\n        /* \"#utility.yul\":5815:5841   */\n      swap1\n      pop\n        /* \"#utility.yul\":5707:5848   */\n      swap2\n      swap1\n      pop\n      jump\t// out\n        /* \"#utility.yul\":5854:5947   */\n    tag_56:\n        /* \"#utility.yul\":5891:5897   */\n      0x00\n        /* \"#utility.yul\":5938:5940   */\n      0x20\n        /* \"#utility.yul\":5933:5935   */\n      0x1f\n        /* \"#utility.yul\":5926:5931   */\n      dup4\n        /* \"#utility.yul\":5922:5936   */\n      add\n        /* \"#utility.yul\":5918:5941   */\n      div\n        /* \"#utility.yul\":5908:5941   */\n      swap1\n      pop\n        /* \"#utility.yul\":5854:5947   */\n      swap2\n      swap1\n      pop\n      jump\t// out\n        /* \"#utility.yul\":5953:6060   */\n    tag_57:\n        /* \"#utility.yul\":5997:6005   */\n      0x00\n        /* \"#utility.yul\":6047:6052   */\n      dup3\n        /* \"#utility.yul\":6041:6045   */\n      dup3\n        /* \"#utility.yul\":6037:6053   */\n      shl\n        /* \"#utility.yul\":6016:6053   */\n      swap1\n      pop\n        /* \"#utility.yul\":5953:6060   */\n      swap3\n      swap2\n      pop\n      pop\n      jump\t// out\n        /* \"#utility.yul\":6066:6459   */\n    tag_58:\n        /* \"#utility.yul\":6135:6141   */\n      0x00\n        /* \"#utility.yul\":6185:6186   */\n      0x08\n        /* \"#utility.yul\":6173:6183   */\n      dup4\n        /* \"#utility.yul\":6169:6187   */\n      mul\n        /* \"#utility.yul\":6208:6305   */\n      tag_138\n        /* \"#utility.yul\":6238:6304   */\n      0xffffffffffffffffffffffffffffffffffffffffffffffffffffffffffffffff\n        /* \"#utility.yul\":6227:6236   */\n      dup3\n        /* \"#utility.yul\":6208:6305   */\n      tag_57\n      jump\t// in\n    tag_138:\n        /* \"#utility.yul\":6326:6365   */\n      tag_139\n        /* \"#utility.yul\":6356:6364   */\n      dup7\n        /* \"#utility.yul\":6345:6354   */\n      dup4\n        /* \"#utility.yul\":6326:6365   */\n      tag_57\n      jump\t// in\n    tag_139:\n        /* \"#utility.yul\":6314:6365   */\n      swap6\n      pop\n        /* \"#utility.yul\":6398:6402   */\n      dup1\n        /* \"#utility.yul\":6394:6403   */\n      not\n        /* \"#utility.yul\":6387:6392   */\n      dup5\n        /* \"#utility.yul\":6383:6404   */\n      and\n        /* \"#utility.yul\":6374:6404   */\n      swap4\n      pop\n        /* \"#utility.yul\":6447:6451   */\n      dup1\n        /* \"#utility.yul\":6437:6445   */\n      dup7\n        /* \"#utility.yul\":6433:6452   */\n      and\n        /* \"#utility.yul\":6426:6431   */\n      dup5\n        /* \"#utility.yul\":6423:6453   */\n      or\n        /* \"#utility.yul\":6413:6453   */\n      swap3\n      pop\n        /* \"#utility.yul\":6142:6459   */\n      pop\n      pop\n        /* \"#utility.yul\":6066:6459   */\n      swap4\n      swap3\n      pop\n      pop\n      pop\n      jump\t// out\n        /* \"#utility.yul\":6465:6525   */\n    tag_59:\n        /* \"#utility.yul\":6493:6496   */\n      0x00\n        /* \"#utility.yul\":6514:6519   */\n      dup2\n        /* \"#utility.yul\":6507:6519   */\n      swap1\n      pop\n        /* \"#utility.yul\":6465:6525   */\n      swap2\n      swap1\n      pop\n      jump\t// out\n        /* \"#utility.yul\":6531:6673   */\n    tag_60:\n        /* \"#utility.yul\":6581:6590   */\n      0x00\n        /* \"#utility.yul\":6614:6667   */\n      tag_142\n        /* \"#utility.yul\":6632:6666   */\n      tag_143\n        /* \"#utility.yul\":6641:6665   */\n      tag_144\n        /* \"#utility.yul\":6659:6664   */\n      dup5\n        /* \"#utility.yul\":6641:6665   */\n      tag_50\n      jump\t// in\n    tag_144:\n        /* \"#utility.yul\":6632:6666   */\n      tag_59\n      jump\t// in\n    tag_143:\n        /* \"#utility.yul\":6614:6667   */\n      tag_50\n      jump\t// in\n    tag_142:\n        /* \"#utility.yul\":6601:6667   */\n      swap1\n      pop\n        /* \"#utility.yul\":6531:6673   */\n      swap2\n      swap1\n      pop\n      jump\t// out\n        /* \"#utility.yul\":6679:6754   */\n    tag_61:\n        /* \"#utility.yul\":6722:6725   */\n      0x00\n        /* \"#utility.yul\":6743:6748   */\n      dup2\n        /* \"#utility.yul\":6736:6748   */\n      swap1\n      pop\n        /* \"#utility.yul\":6679:6754   */\n      swap2\n      swap1\n      pop\n      jump\t// out\n        /* \"#utility.yul\":6760:7029   */\n    tag_62:\n        /* \"#utility.yul\":6870:6909   */\n      tag_147\n        /* \"#utility.yul\":6901:6908   */\n      dup4\n        /* \"#utility.yul\":6870:6909   */\n      tag_60\n      jump\t// in\n    tag_147:\n        /* \"#utility.yul\":6931:7022   */\n      tag_148\n        /* \"#utility.yul\":6980:7021   */\n      tag_149\n        /* \"#utility.yul\":7004:7020   */\n      dup3\n        /* \"#utility.yul\":6980:7021   */\n      tag_61\n      jump\t// in\n    tag_149:\n        /* \"#utility.yul\":6972:6978   */\n      dup5\n        /* \"#utility.yul\":6965:6969   */\n      dup5\n        /* \"#utility.yul\":6959:6970   */\n      sload\n        /* \"#utility.yul\":6931:7022   */\n      tag_58\n      jump\t// in\n    tag_148:\n        /* \"#utility.yul\":6925:6929   */\n      dup3\n        /* \"#utility.yul\":6918:7023   */\n      sstore\n        /* \"#utility.yul\":6836:7029   */\n      pop\n        /* \"#utility.yul\":6760:7029   */\n      pop\n      pop\n      pop\n      jump\t// out\n        /* \"#utility.yul\":7035:7108   */\n    tag_63:\n        /* \"#utility.yul\":7080:7083   */\n      0x00\n        /* \"#utility.yul\":7101:7102   */\n      0x00\n        /* \"#utility.yul\":7094:7102   */\n      swap1\n      pop\n        /* \"#utility.yul\":7035:7108   */\n      swap1\n      jump\t// out\n        /* \"#utility.yul\":7114:7303   */\n    tag_64:\n        /* \"#utility.yul\":7191:7223   */\n      tag_152\n      tag_63\n      jump\t// in\n    tag_152:\n        /* \"#utility.yul\":7232:7297   */\n      tag_153\n        /* \"#utility.yul\":7290:7296   */\n      dup2\n        /* \"#utility.yul\":7282:7288   */\n      dup5\n        /* \"#utility.yul\":7276:7280   */\n      dup5\n        /* \"#utility.yul\":7232:7297   */\n      tag_62\n      jump\t// in\n    tag_153:\n        /* \"#utility.yul\":7167:7303   */\n      pop\n        /* \"#utility.yul\":7114:7303   */\n      pop\n      pop\n      jump\t// out\n        /* \"#utility.yul\":7309:7495   */\n    tag_65:\n        /* \"#utility.yul\":7369:7489   */\n    tag_155:\n        /* \"#utility.yul\":7386:7389   */\n      dup2\n        /* \"#utility.yul\":7379:7384   */\n      dup2\n        /* \"#utility.yul\":7376:7390   */\n      lt\n        /* \"#utility.yul\":7369:7489   */\n      iszero\n      tag_157\n      jumpi\n        /* \"#utility.yul\":7440:7479   */\n      tag_158\n        /* \"#utility.yul\":7477:7478   */\n      0x00\n        /* \"#utility.yul\":7470:7475   */\n      dup3\n        /* \"#utility.yul\":7440:7479   */\n      tag_64\n      jump\t// in\n    tag_158:\n        /* \"#utility.yul\":7413:7414   */\n      0x01\n        /* \"#utility.yul\":7406:7411   */\n      dup2\n        /* \"#utility.yul\":7402:7415   */\n      add\n        /* \"#utility.yul\":7393:7415   */\n      swap1\n      pop\n        /* \"#utility.yul\":7369:7489   */\n      jump(tag_155)\n    tag_157:\n        /* \"#utility.yul\":7309:7495   */\n      pop\n      pop\n      jump\t// out\n        /* \"#utility.yul\":7501:8044   */\n    tag_66:\n        /* \"#utility.yul\":7602:7604   */\n      0x1f\n        /* \"#utility.yul\":7597:7600   */\n      dup3\n        /* \"#utility.yul\":7594:7605   */\n      gt\n        /* \"#utility.yul\":7591:8037   */\n      iszero\n      tag_160\n      jumpi\n        /* \"#utility.yul\":7636:7674   */\n      tag_161\n        /* \"#utility.yul\":7668:7673   */\n      dup2\n        /* \"#utility.yul\":7636:7674   */\n      tag_55\n      jump\t// in\n    tag_161:\n        /* \"#utility.yul\":7720:7749   */\n      tag_162\n        /* \"#utility.yul\":7738:7748   */\n      dup5\n        /* \"#utility.yul\":7720:7749   */\n      tag_56\n      jump\t// in\n    tag_162:\n        /* \"#utility.yul\":7710:7718   */\n      dup2\n        /* \"#utility.yul\":7706:7750   */\n      add\n        /* \"#utility.yul\":7903:7905   */\n      0x20\n        /* \"#utility.yul\":7891:7901   */\n      dup6\n        /* \"#utility.yul\":7888:7906   */\n      lt\n        /* \"#utility.yul\":7885:7934   */\n      iszero\n      tag_163\n      jumpi\n        /* \"#utility.yul\":7924:7932   */\n      dup2\n        /* \"#utility.yul\":7909:7932   */\n      swap1\n      pop\n        /* \"#utility.yul\":7885:7934   */\n    tag_163:\n        /* \"#utility.yul\":7947:8027   */\n      tag_164\n        /* \"#utility.yul\":8003:8025   */\n      tag_165\n        /* \"#utility.yul\":8021:8024   */\n      dup6\n        /* \"#utility.yul\":8003:8025   */\n      tag_56\n      jump\t// in\n    tag_165:\n        /* \"#utility.yul\":7993:8001   */\n      dup4\n        /* \"#utility.yul\":7989:8026   */\n      add\n        /* \"#utility.yul\":7976:7987   */\n      dup3\n        /* \"#utility.yul\":7947:8027   */\n      tag_65\n      jump\t// in\n    tag_164:\n        /* \"#utility.yul\":7606:8037   */\n      pop\n      pop\n        /* \"#utility.yul\":7591:8037   */\n    tag_160:\n        /* \"#utility.yul\":7501:8044   */\n      pop\n      pop\n      pop\n      jump\t// out\n        /* \"#utility.yul\":8050:8167   */\n    tag_67:\n        /* \"#utility.yul\":8104:8112   */\n      0x00\n        /* \"#utility.yul\":8154:8159   */\n      dup3\n        /* \"#utility.yul\":8148:8152   */\n      dup3\n        /* \"#utility.yul\":8144:8160   */\n      shr\n        /* \"#utility.yul\":8123:8160   */\n      swap1\n      pop\n        /* \"#utility.yul\":8050:8167   */\n      swap3\n      swap2\n      pop\n      pop\n      jump\t// out\n        /* \"#utility.yul\":8173:8342   */\n    tag_68:\n        /* \"#utility.yul\":8217:8223   */\n      0x00\n        /* \"#utility.yul\":8250:8301   */\n      tag_168\n        /* \"#utility.yul\":8298:8299   */\n      0x00\n        /* \"#utility.yul\":8294:8300   */\n      not\n        /* \"#utility.yul\":8286:8291   */\n      dup5\n        /* \"#utility.yul\":8283:8284   */\n      0x08\n        /* \"#utility.yul\":8279:8292   */\n      mul\n        /* \"#utility.yul\":8250:8301   */\n      tag_67\n      jump\t// in\n    tag_168:\n        /* \"#utility.yul\":8246:8302   */\n      not\n        /* \"#utility.yul\":8331:8335   */\n      dup1\n        /* \"#utility.yul\":8325:8329   */\n      dup4\n        /* \"#utility.yul\":8321:8336   */\n      and\n        /* \"#utility.yul\":8311:8336   */\n      swap2\n      pop\n        /* \"#utility.yul\":8224:8342   */\n      pop\n        /* \"#utility.yul\":8173:8342   */\n      swap3\n      swap2\n      pop\n      pop\n      jump\t// out\n        /* \"#utility.yul\":8347:8642   */\n    tag_69:\n        /* \"#utility.yul\":8423:8427   */\n      0x00\n        /* \"#utility.yul\":8569:8598   */\n      tag_170\n        /* \"#utility.yul\":8594:8597   */\n      dup4\n        /* \"#utility.yul\":8588:8592   */\n      dup4\n        /* \"#utility.yul\":8569:8598   */\n      tag_68\n      jump\t// in\n    tag_170:\n        /* \"#utility.yul\":8561:8598   */\n      swap2\n      pop\n        /* \"#utility.yul\":8631:8634   */\n      dup3\n        /* \"#utility.yul\":8628:8629   */\n      0x02\n        /* \"#utility.yul\":8624:8635   */\n      mul\n        /* \"#utility.yul\":8618:8622   */\n      dup3\n        /* \"#utility.yul\":8615:8636   */\n      or\n        /* \"#utility.yul\":8607:8636   */\n      swap1\n      pop\n        /* \"#utility.yul\":8347:8642   */\n      swap3\n      swap2\n      pop\n      pop\n      jump\t// out\n        /* \"#utility.yul\":8647:10042   */\n    tag_30:\n        /* \"#utility.yul\":8764:8801   */\n      tag_172\n        /* \"#utility.yul\":8797:8800   */\n      dup3\n        /* \"#utility.yul\":8764:8801   */\n      tag_33\n      jump\t// in\n    tag_172:\n        /* \"#utility.yul\":8866:8884   */\n      0xffffffffffffffff\n        /* \"#utility.yul\":8858:8864   */\n      dup2\n        /* \"#utility.yul\":8855:8885   */\n      gt\n        /* \"#utility.yul\":8852:8908   */\n      iszero\n      tag_173\n      jumpi\n        /* \"#utility.yul\":8888:8906   */\n      tag_174\n      tag_43\n      jump\t// in\n    tag_174:\n        /* \"#utility.yul\":8852:8908   */\n    tag_173:\n        /* \"#utility.yul\":8932:8970   */\n      tag_175\n        /* \"#utility.yul\":8964:8968   */\n      dup3\n        /* \"#utility.yul\":8958:8969   */\n      sload\n        /* \"#utility.yul\":8932:8970   */\n      tag_23\n      jump\t// in\n    tag_175:\n        /* \"#utility.yul\":9017:9084   */\n      tag_176\n        /* \"#utility.yul\":9077:9083   */\n      dup3\n        /* \"#utility.yul\":9069:9075   */\n      dup3\n        /* \"#utility.yul\":9063:9067   */\n      dup6\n        /* \"#utility.yul\":9017:9084   */\n      tag_66\n      jump\t// in\n    tag_176:\n        /* \"#utility.yul\":9111:9112   */\n      0x00\n        /* \"#utility.yul\":9135:9139   */\n      0x20\n        /* \"#utility.yul\":9122:9139   */\n      swap1\n      pop\n        /* \"#utility.yul\":9167:9169   */\n      0x1f\n        /* \"#utility.yul\":9159:9165   */\n      dup4\n        /* \"#utility.yul\":9156:9170   */\n      gt\n        /* \"#utility.yul\":9184:9185   */\n      0x01\n        /* \"#utility.yul\":9179:9797   */\n      dup2\n      eq\n      tag_178\n      jumpi\n        /* \"#utility.yul\":9841:9842   */\n      0x00\n        /* \"#utility.yul\":9858:9864   */\n      dup5\n        /* \"#utility.yul\":9855:9932   */\n      iszero\n      tag_179\n      jumpi\n        /* \"#utility.yul\":9907:9916   */\n      dup3\n        /* \"#utility.yul\":9902:9905   */\n      dup8\n        /* \"#utility.yul\":9898:9917   */\n      add\n        /* \"#utility.yul\":9892:9918   */\n      mload\n        /* \"#utility.yul\":9883:9918   */\n      swap1\n      pop\n        /* \"#utility.yul\":9855:9932   */\n    tag_179:\n        /* \"#utility.yul\":9958:10025   */\n      tag_180\n        /* \"#utility.yul\":10018:10024   */\n      dup6\n        /* \"#utility.yul\":10011:10016   */\n      dup3\n        /* \"#utility.yul\":9958:10025   */\n      tag_69\n      jump\t// in\n    tag_180:\n        /* \"#utility.yul\":9952:9956   */\n      dup7\n        /* \"#utility.yul\":9945:10026   */\n      sstore\n        /* \"#utility.yul\":9814:10036   */\n      pop\n        /* \"#utility.yul\":9149:10036   */\n      jump(tag_177)\n        /* \"#utility.yul\":9179:9797   */\n    tag_178:\n        /* \"#utility.yul\":9231:9235   */\n      0x1f\n        /* \"#utility.yul\":9227:9236   */\n      not\n        /* \"#utility.yul\":9219:9225   */\n      dup5\n        /* \"#utility.yul\":9215:9237   */\n      and\n        /* \"#utility.yul\":9265:9302   */\n      tag_181\n        /* \"#utility.yul\":9297:9301   */\n      dup7\n        /* \"#utility.yul\":9265:9302   */\n      tag_55\n      jump\t// in\n    tag_181:\n        /* \"#utility.yul\":9324:9325   */\n      0x00\n        /* \"#utility.yul\":9338:9546   */\n    tag_182:\n        /* \"#utility.yul\":9352:9359   */\n      dup3\n        /* \"#utility.yul\":9349:9350   */\n      dup2\n        /* \"#utility.yul\":9346:9360   */\n      lt\n        /* \"#utility.yul\":9338:9546   */\n      iszero\n      tag_184\n      jumpi\n        /* \"#utility.yul\":9431:9440   */\n      dup5\n        /* \"#utility.yul\":9426:9429   */\n      dup10\n        /* \"#utility.yul\":9422:9441   */\n      add\n        /* \"#utility.yul\":9416:9442   */\n      mload\n        /* \"#utility.yul\":9408:9414   */\n      dup3\n        /* \"#utility.yul\":9401:9443   */\n      sstore\n        /* \"#utility.yul\":9482:9483   */\n      0x01\n        /* \"#utility.yul\":9474:9480   */\n      dup3\n        /* \"#utility.yul\":9470:9484   */\n      add\n        /* \"#utility.yul\":9460:9484   */\n      swap2\n      pop\n        /* \"#utility.yul\":9529:9531   */\n      0x20\n        /* \"#utility.yul\":9518:9527   */\n      dup6\n        /* \"#utility.yul\":9514:9532   */\n      add\n        /* \"#utility.yul\":9501:9532   */\n      swap5\n      pop\n        /* \"#utility.yul\":9375:9379   */\n      0x20\n        /* \"#utility.yul\":9372:9373   */\n      dup2\n        /* \"#utility.yul\":9368:9380   */\n      add\n        /* \"#utility.yul\":9363:9380   */\n      swap1\n      pop\n        /* \"#utility.yul\":9338:9546   */\n      jump(tag_182)\n    tag_184:\n        /* \"#utility.yul\":9574:9580   */\n      dup7\n        /* \"#utility.yul\":9565:9572   */\n      dup4\n        /* \"#utility.yul\":9562:9581   */\n      lt\n        /* \"#utility.yul\":9559:9738   */\n      iszero\n      tag_185\n      jumpi\n        /* \"#utility.yul\":9632:9641   */\n      dup5\n        /* \"#utility.yul\":9627:9630   */\n      dup10\n        /* \"#utility.yul\":9623:9642   */\n      add\n        /* \"#utility.yul\":9617:9643   */\n      mload\n        /* \"#utility.yul\":9675:9723   */\n      tag_186\n        /* \"#utility.yul\":9717:9721   */\n      0x1f\n        /* \"#utility.yul\":9709:9715   */\n      dup10\n        /* \"#utility.yul\":9705:9722   */\n      and\n        /* \"#utility.yul\":9694:9703   */\n      dup3\n        /* \"#utility.yul\":9675:9723   */\n      tag_68\n      jump\t// in\n    tag_186:\n        /* \"#utility.yul\":9667:9673   */\n      dup4\n        /* \"#utility.yul\":9660:9724   */\n      sstore\n        /* \"#utility.yul\":9582:9738   */\n      pop\n        /* \"#utility.yul\":9559:9738   */\n    tag_185:\n        /* \"#utility.yul\":9784:9785   */\n      0x01\n        /* \"#utility.yul\":9780:9781   */\n      0x02\n        /* \"#utility.yul\":9772:9778   */\n      dup9\n        /* \"#utility.yul\":9768:9782   */\n      mul\n        /* \"#utility.yul\":9764:9786   */\n      add\n        /* \"#utility.yul\":9758:9762   */\n      dup9\n        /* \"#utility.yul\":9751:9787   */\n      sstore\n        /* \"#utility.yul\":9186:9797   */\n      pop\n      pop\n      pop\n        /* \"#utility.yul\":9149:10036   */\n    tag_177:\n      pop\n        /* \"#utility.yul\":8739:10042   */\n      pop\n      pop\n      pop\n        /* \"#utility.yul\":8647:10042   */\n      pop\n      pop\n      jump\t// out\n        /* \"#utility.yul\":10072:10903   */\n    tag_70:\n        /* \"#utility.yul\":10157:10160   */\n      0x00\n        /* \"#utility.yul\":10194:10199   */\n      dup2\n        /* \"#utility.yul\":10188:10200   */\n      sload\n        /* \"#utility.yul\":10223:10259   */\n      tag_188\n        /* \"#utility.yul\":10249:10258   */\n      dup2\n        /* \"#utility.yul\":10223:10259   */\n      tag_23\n      jump\t// in\n    tag_188:\n        /* \"#utility.yul\":10275:10346   */\n      tag_189\n        /* \"#utility.yul\":10339:10345   */\n      dup2\n        /* \"#utility.yul\":10334:10337   */\n      dup7\n        /* \"#utility.yul\":10275:10346   */\n      tag_34\n      jump\t// in\n    tag_189:\n        /* \"#utility.yul\":10268:10346   */\n      swap5\n      pop\n        /* \"#utility.yul\":10377:10378   */\n      0x01\n        /* \"#utility.yul\":10366:10375   */\n      dup3\n        /* \"#utility.yul\":10362:10379   */\n      and\n        /* \"#utility.yul\":10393:10394   */\n      0x00\n        /* \"#utility.yul\":10388:10552   */\n      dup2\n      eq\n      tag_191\n      jumpi\n        /* \"#utility.yul\":10566:10567   */\n      0x01\n        /* \"#utility.yul\":10561:10897   */\n      dup2\n      eq\n      tag_192\n      jumpi\n        /* \"#utility.yul\":10355:10897   */\n      jump(tag_190)\n        /* \"#utility.yul\":10388:10552   */\n    tag_191:\n        /* \"#utility.yul\":10472:10476   */\n      0xff\n        /* \"#utility.yul\":10468:10477   */\n      not\n        /* \"#utility.yul\":10457:10466   */\n      dup4\n        /* \"#utility.yul\":10453:10478   */\n      and\n        /* \"#utility.yul\":10448:10451   */\n      dup7\n        /* \"#utility.yul\":10441:10479   */\n      mstore\n        /* \"#utility.yul\":10532:10538   */\n      dup2\n        /* \"#utility.yul\":10525:10539   */\n      iszero\n        /* \"#utility.yul\":10518:10540   */\n      iszero\n        /* \"#utility.yul\":10512:10516   */\n      0x20\n        /* \"#utility.yul\":10508:10541   */\n      mul\n        /* \"#utility.yul\":10503:10506   */\n      dup7\n        /* \"#utility.yul\":10499:10542   */\n      add\n        /* \"#utility.yul\":10492:10542   */\n      swap4\n      pop\n        /* \"#utility.yul\":10388:10552   */\n      jump(tag_190)\n        /* \"#utility.yul\":10561:10897   */\n    tag_192:\n        /* \"#utility.yul\":10628:10666   */\n      tag_193\n        /* \"#utility.yul\":10660:10665   */\n      dup6\n        /* \"#utility.yul\":10628:10666   */\n      tag_55\n      jump\t// in\n    tag_193:\n        /* \"#utility.yul\":10688:10689   */\n      0x00\n        /* \"#utility.yul\":10702:10856   */\n    tag_194:\n        /* \"#utility.yul\":10716:10722   */\n      dup4\n        /* \"#utility.yul\":10713:10714   */\n      dup2\n        /* \"#utility.yul\":10710:10723   */\n      lt\n        /* \"#utility.yul\":10702:10856   */\n      iszero\n      tag_196\n      jumpi\n        /* \"#utility.yul\":10790:10797   */\n      dup2\n        /* \"#utility.yul\":10784:10798   */\n      sload\n        /* \"#utility.yul\":10780:10781   */\n      dup2\n        /* \"#utility.yul\":10775:10778   */\n      dup10\n        /* \"#utility.yul\":10771:10782   */\n      add\n        /* \"#utility.yul\":10764:10799   */\n      mstore\n        /* \"#utility.yul\":10840:10841   */\n      0x01\n        /* \"#utility.yul\":10831:10838   */\n      dup3\n        /* \"#utility.yul\":10827:10842   */\n      add\n        /* \"#utility.yul\":10816:10842   */\n      swap2\n      pop\n        /* \"#utility.yul\":10738:10742   */\n      0x20\n        /* \"#utility.yul\":10735:10736   */\n      dup2\n        /* \"#utility.yul\":10731:10743   */\n      add\n        /* \"#utility.yul\":10726:10743   */\n      swap1\n      pop\n        /* \"#utility.yul\":10702:10856   */\n      jump(tag_194)\n    tag_196:\n        /* \"#utility.yul\":10885:10886   */\n      dup1\n        /* \"#utility.yul\":10880:10883   */\n      dup9\n        /* \"#utility.yul\":10876:10887   */\n      add\n        /* \"#utility.yul\":10869:10887   */\n      swap6\n      pop\n        /* \"#utility.yul\":10568:10897   */\n      pop\n      pop\n        /* \"#utility.yul\":10355:10897   */\n    tag_190:\n      pop\n        /* \"#utility.yul\":10161:10903   */\n      pop\n      pop\n        /* \"#utility.yul\":10072:10903   */\n      swap3\n      swap2\n      pop\n      pop\n      jump\t// out\n        /* \"#utility.yul\":10909:11216   */\n    tag_32:\n        /* \"#utility.yul\":11019:11023   */\n      0x00\n        /* \"#utility.yul\":11057:11059   */\n      0x20\n        /* \"#utility.yul\":11046:11055   */\n      dup3\n        /* \"#utility.yul\":11042:11060   */\n      add\n        /* \"#utility.yul\":11034:11060   */\n      swap1\n      pop\n        /* \"#utility.yul\":11106:11115   */\n      dup2\n        /* \"#utility.yul\":11100:11104   */\n      dup2\n        /* \"#utility.yul\":11096:11116   */\n      sub\n        /* \"#utility.yul\":11092:11093   */\n      0x00\n        /* \"#utility.yul\":11081:11090   */\n      dup4\n        /* \"#utility.yul\":11077:11094   */\n      add\n        /* \"#utility.yul\":11070:11117   */\n      mstore\n        /* \"#utility.yul\":11134:11209   */\n      tag_198\n        /* \"#utility.yul\":11204:11208   */\n      dup2\n        /* \"#utility.yul\":11195:11201   */\n      dup5\n        /* \"#utility.yul\":11134:11209   */\n      tag_70\n      jump\t// in\n    tag_198:\n        /* \"#utility.yul\":11126:11209   */\n      swap1\n      pop\n        /* \"#utility.yul\":10909:11216   */\n      swap3\n      swap2\n      pop\n      pop\n      jump\t// out\n\n    auxdata: 0xa2646970667358221220884b8cfa74e7e6b0cade264a2817d3a6acb74bf6e47bcff5989075cc475b270364736f6c634300081e0033\n}\n",
				"bytecode": {
					"linkReferences": {},
					"object": "6080604052348015600e575f5ffd5b506107f08061001c5f395ff3fe608060405234801561000f575f5ffd5b5060043610610049575f3560e01c8062c51f8c1461004d57806335bdf8b51461006b57806393199b0914610087578063f3269716146100a5575b5f5ffd5b6100556100c3565b6040516100629190610229565b60405180910390f35b610085600480360381019061008091906103b9565b61014e565b005b61008f6101ad565b60405161009c9190610434565b60405180910390f35b6100ad6101b3565b6040516100ba9190610434565b60405180910390f35b5f80546100cf9061047a565b80601f01602080910402602001604051908101604052809291908181526020018280546100fb9061047a565b80156101465780601f1061011d57610100808354040283529160200191610146565b820191905f5260205f20905b81548152906001019060200180831161012957829003601f168201915b505050505081565b825f908161015c919061064a565b5081600181905550806002819055506002546001547f9ac53e78f8bf6bc88e2455da8556e92817ccb776de0ccebace505d8b2c0bd00f5f6040516101a0919061079a565b60405180910390a3505050565b60015481565b60025481565b5f81519050919050565b5f82825260208201905092915050565b8281835e5f83830152505050565b5f601f19601f8301169050919050565b5f6101fb826101b9565b61020581856101c3565b93506102158185602086016101d3565b61021e816101e1565b840191505092915050565b5f6020820190508181035f83015261024181846101f1565b905092915050565b5f604051905090565b5f5ffd5b5f5ffd5b5f5ffd5b5f5ffd5b7f4e487b71000000000000000000000000000000000000000000000000000000005f52604160045260245ffd5b610298826101e1565b810181811067ffffffffffffffff821117156102b7576102b6610262565b5b80604052505050565b5f6102c9610249565b90506102d5828261028f565b919050565b5f67ffffffffffffffff8211156102f4576102f3610262565b5b6102fd826101e1565b9050602081019050919050565b828183375f83830152505050565b5f61032a610325846102da565b6102c0565b9050828152602081018484840111156103465761034561025e565b5b61035184828561030a565b509392505050565b5f82601f83011261036d5761036c61025a565b5b813561037d848260208601610318565b91505092915050565b5f819050919050565b61039881610386565b81146103a2575f5ffd5b50565b5f813590506103b38161038f565b92915050565b5f5f5f606084860312156103d0576103cf610252565b5b5f84013567ffffffffffffffff8111156103ed576103ec610256565b5b6103f986828701610359565b935050602061040a868287016103a5565b925050604061041b868287016103a5565b9150509250925092565b61042e81610386565b82525050565b5f6020820190506104475f830184610425565b92915050565b7f4e487b71000000000000000000000000000000000000000000000000000000005f52602260045260245ffd5b5f600282049050600182168061049157607f821691505b6020821081036104a4576104a361044d565b5b50919050565b5f819050815f5260205f209050919050565b5f6020601f8301049050919050565b5f82821b905092915050565b5f600883026105067fffffffffffffffffffffffffffffffffffffffffffffffffffffffffffffffff826104cb565b61051086836104cb565b95508019841693508086168417925050509392505050565b5f819050919050565b5f61054b61054661054184610386565b610528565b610386565b9050919050565b5f819050919050565b61056483610531565b61057861057082610552565b8484546104d7565b825550505050565b5f5f905090565b61058f610580565b61059a81848461055b565b505050565b5b818110156105bd576105b25f82610587565b6001810190506105a0565b5050565b601f821115610602576105d3816104aa565b6105dc846104bc565b810160208510156105eb578190505b6105ff6105f7856104bc565b83018261059f565b50505b505050565b5f82821c905092915050565b5f6106225f1984600802610607565b1980831691505092915050565b5f61063a8383610613565b9150826002028217905092915050565b610653826101b9565b67ffffffffffffffff81111561066c5761066b610262565b5b610676825461047a565b6106818282856105c1565b5f60209050601f8311600181146106b2575f84156106a0578287015190505b6106aa858261062f565b865550610711565b601f1984166106c0866104aa565b5f5b828110156106e7578489015182556001820191506020850194506020810190506106c2565b868310156107045784890151610700601f891682610613565b8355505b6001600288020188555050505b505050505050565b5f81546107258161047a565b61072f81866101c3565b9450600182165f8114610749576001811461075f57610791565b60ff198316865281151560200286019350610791565b610768856104aa565b5f5b838110156107895781548189015260018201915060208101905061076a565b808801955050505b50505092915050565b5f6020820190508181035f8301526107b28184610719565b90509291505056fea2646970667358221220884b8cfa74e7e6b0cade264a2817d3a6acb74bf6e47bcff5989075cc475b270364736f6c634300081e0033",
					"opcodes": "PUSH1 0x80 PUSH1 0x40 MSTORE CALLVALUE DUP1 ISZERO PUSH1 0xE JUMPI PUSH0 PUSH0 REVERT JUMPDEST POP PUSH2 0x7F0 DUP1 PUSH2 0x1C PUSH0 CODECOPY PUSH0 RETURN INVALID PUSH1 0x80 PUSH1 0x40 MSTORE CALLVALUE DUP1 ISZERO PUSH2 0xF JUMPI PUSH0 PUSH0 REVERT JUMPDEST POP PUSH1 0x4 CALLDATASIZE LT PUSH2 0x49 JUMPI PUSH0 CALLDATALOAD PUSH1 0xE0 SHR DUP1 PUSH3 0xC51F8C EQ PUSH2 0x4D JUMPI DUP1 PUSH4 0x35BDF8B5 EQ PUSH2 0x6B JUMPI DUP1 PUSH4 0x93199B09 EQ PUSH2 0x87 JUMPI DUP1 PUSH4 0xF3269716 EQ PUSH2 0xA5 JUMPI JUMPDEST PUSH0 PUSH0 REVERT JUMPDEST PUSH2 0x55 PUSH2 0xC3 JUMP JUMPDEST PUSH1 0x40 MLOAD PUSH2 0x62 SWAP2 SWAP1 PUSH2 0x229 JUMP JUMPDEST PUSH1 0x40 MLOAD DUP1 SWAP2 SUB SWAP1 RETURN JUMPDEST PUSH2 0x85 PUSH1 0x4 DUP1 CALLDATASIZE SUB DUP2 ADD SWAP1 PUSH2 0x80 SWAP2 SWAP1 PUSH2 0x3B9 JUMP JUMPDEST PUSH2 0x14E JUMP JUMPDEST STOP JUMPDEST PUSH2 0x8F PUSH2 0x1AD JUMP JUMPDEST PUSH1 0x40 MLOAD PUSH2 0x9C SWAP2 SWAP1 PUSH2 0x434 JUMP JUMPDEST PUSH1 0x40 MLOAD DUP1 SWAP2 SUB SWAP1 RETURN JUMPDEST PUSH2 0xAD PUSH2 0x1B3 JUMP JUMPDEST PUSH1 0x40 MLOAD PUSH2 0xBA SWAP2 SWAP1 PUSH2 0x434 JUMP JUMPDEST PUSH1 0x40 MLOAD DUP1 SWAP2 SUB SWAP1 RETURN JUMPDEST PUSH0 DUP1 SLOAD PUSH2 0xCF SWAP1 PUSH2 0x47A JUMP JUMPDEST DUP1 PUSH1 0x1F ADD PUSH1 0x20 DUP1 SWAP2 DIV MUL PUSH1 0x20 ADD PUSH1 0x40 MLOAD SWAP1 DUP2 ADD PUSH1 0x40 MSTORE DUP1 SWAP3 SWAP2 SWAP1 DUP2 DUP2 MSTORE PUSH1 0x20 ADD DUP3 DUP1 SLOAD PUSH2 0xFB SWAP1 PUSH2 0x47A JUMP JUMPDEST DUP1 ISZERO PUSH2 0x146 JUMPI DUP1 PUSH1 0x1F LT PUSH2 0x11D JUMPI PUSH2 0x100 DUP1 DUP4 SLOAD DIV MUL DUP4 MSTORE SWAP2 PUSH1 0x20 ADD SWAP2 PUSH2 0x146 JUMP JUMPDEST DUP3 ADD SWAP2 SWAP1 PUSH0 MSTORE PUSH1 0x20 PUSH0 KECCAK256 SWAP1 JUMPDEST DUP2 SLOAD DUP2 MSTORE SWAP1 PUSH1 0x1 ADD SWAP1 PUSH1 0x20 ADD DUP1 DUP4 GT PUSH2 0x129 JUMPI DUP3 SWAP1 SUB PUSH1 0x1F AND DUP3 ADD SWAP2 JUMPDEST POP POP POP POP POP DUP2 JUMP JUMPDEST DUP3 PUSH0 SWAP1 DUP2 PUSH2 0x15C SWAP2 SWAP1 PUSH2 0x64A JUMP JUMPDEST POP DUP2 PUSH1 0x1 DUP2 SWAP1 SSTORE POP DUP1 PUSH1 0x2 DUP2 SWAP1 SSTORE POP PUSH1 0x2 SLOAD PUSH1 0x1 SLOAD PUSH32 0x9AC53E78F8BF6BC88E2455DA8556E92817CCB776DE0CCEBACE505D8B2C0BD00F PUSH0 PUSH1 0x40 MLOAD PUSH2 0x1A0 SWAP2 SWAP1 PUSH2 0x79A JUMP JUMPDEST PUSH1 0x40 MLOAD DUP1 SWAP2 SUB SWAP1 LOG3 POP POP POP JUMP JUMPDEST PUSH1 0x1 SLOAD DUP2 JUMP JUMPDEST PUSH1 0x2 SLOAD DUP2 JUMP JUMPDEST PUSH0 DUP2 MLOAD SWAP1 POP SWAP2 SWAP1 POP JUMP JUMPDEST PUSH0 DUP3 DUP3 MSTORE PUSH1 0x20 DUP3 ADD SWAP1 POP SWAP3 SWAP2 POP POP JUMP JUMPDEST DUP3 DUP2 DUP4 MCOPY PUSH0 DUP4 DUP4 ADD MSTORE POP POP POP JUMP JUMPDEST PUSH0 PUSH1 0x1F NOT PUSH1 0x1F DUP4 ADD AND SWAP1 POP SWAP2 SWAP1 POP JUMP JUMPDEST PUSH0 PUSH2 0x1FB DUP3 PUSH2 0x1B9 JUMP JUMPDEST PUSH2 0x205 DUP2 DUP6 PUSH2 0x1C3 JUMP JUMPDEST SWAP4 POP PUSH2 0x215 DUP2 DUP6 PUSH1 0x20 DUP7 ADD PUSH2 0x1D3 JUMP JUMPDEST PUSH2 0x21E DUP2 PUSH2 0x1E1 JUMP JUMPDEST DUP5 ADD SWAP2 POP POP SWAP3 SWAP2 POP POP JUMP JUMPDEST PUSH0 PUSH1 0x20 DUP3 ADD SWAP1 POP DUP2 DUP2 SUB PUSH0 DUP4 ADD MSTORE PUSH2 0x241 DUP2 DUP5 PUSH2 0x1F1 JUMP JUMPDEST SWAP1 POP SWAP3 SWAP2 POP POP JUMP JUMPDEST PUSH0 PUSH1 0x40 MLOAD SWAP1 POP SWAP1 JUMP JUMPDEST PUSH0 PUSH0 REVERT JUMPDEST PUSH0 PUSH0 REVERT JUMPDEST PUSH0 PUSH0 REVERT JUMPDEST PUSH0 PUSH0 REVERT JUMPDEST PUSH32 0x4E487B7100000000000000000000000000000000000000000000000000000000 PUSH0 MSTORE PUSH1 0x41 PUSH1 0x4 MSTORE PUSH1 0x24 PUSH0 REVERT JUMPDEST PUSH2 0x298 DUP3 PUSH2 0x1E1 JUMP JUMPDEST DUP2 ADD DUP2 DUP2 LT PUSH8 0xFFFFFFFFFFFFFFFF DUP3 GT OR ISZERO PUSH2 0x2B7 JUMPI PUSH2 0x2B6 PUSH2 0x262 JUMP JUMPDEST JUMPDEST DUP1 PUSH1 0x40 MSTORE POP POP POP JUMP JUMPDEST PUSH0 PUSH2 0x2C9 PUSH2 0x249 JUMP JUMPDEST SWAP1 POP PUSH2 0x2D5 DUP3 DUP3 PUSH2 0x28F JUMP JUMPDEST SWAP2 SWAP1 POP JUMP JUMPDEST PUSH0 PUSH8 0xFFFFFFFFFFFFFFFF DUP3 GT ISZERO PUSH2 0x2F4 JUMPI PUSH2 0x2F3 PUSH2 0x262 JUMP JUMPDEST JUMPDEST PUSH2 0x2FD DUP3 PUSH2 0x1E1 JUMP JUMPDEST SWAP1 POP PUSH1 0x20 DUP2 ADD SWAP1 POP SWAP2 SWAP1 POP JUMP JUMPDEST DUP3 DUP2 DUP4 CALLDATACOPY PUSH0 DUP4 DUP4 ADD MSTORE POP POP POP JUMP JUMPDEST PUSH0 PUSH2 0x32A PUSH2 0x325 DUP5 PUSH2 0x2DA JUMP JUMPDEST PUSH2 0x2C0 JUMP JUMPDEST SWAP1 POP DUP3 DUP2 MSTORE PUSH1 0x20 DUP2 ADD DUP5 DUP5 DUP5 ADD GT ISZERO PUSH2 0x346 JUMPI PUSH2 0x345 PUSH2 0x25E JUMP JUMPDEST JUMPDEST PUSH2 0x351 DUP5 DUP3 DUP6 PUSH2 0x30A JUMP JUMPDEST POP SWAP4 SWAP3 POP POP POP JUMP JUMPDEST PUSH0 DUP3 PUSH1 0x1F DUP4 ADD SLT PUSH2 0x36D JUMPI PUSH2 0x36C PUSH2 0x25A JUMP JUMPDEST JUMPDEST DUP2 CALLDATALOAD PUSH2 0x37D DUP5 DUP3 PUSH1 0x20 DUP7 ADD PUSH2 0x318 JUMP JUMPDEST SWAP2 POP POP SWAP3 SWAP2 POP POP JUMP JUMPDEST PUSH0 DUP2 SWAP1 POP SWAP2 SWAP1 POP JUMP JUMPDEST PUSH2 0x398 DUP2 PUSH2 0x386 JUMP JUMPDEST DUP2 EQ PUSH2 0x3A2 JUMPI PUSH0 PUSH0 REVERT JUMPDEST POP JUMP JUMPDEST PUSH0 DUP2 CALLDATALOAD SWAP1 POP PUSH2 0x3B3 DUP2 PUSH2 0x38F JUMP JUMPDEST SWAP3 SWAP2 POP POP JUMP JUMPDEST PUSH0 PUSH0 PUSH0 PUSH1 0x60 DUP5 DUP7 SUB SLT ISZERO PUSH2 0x3D0 JUMPI PUSH2 0x3CF PUSH2 0x252 JUMP JUMPDEST JUMPDEST PUSH0 DUP5 ADD CALLDATALOAD PUSH8 0xFFFFFFFFFFFFFFFF DUP2 GT ISZERO PUSH2 0x3ED JUMPI PUSH2 0x3EC PUSH2 0x256 JUMP JUMPDEST JUMPDEST PUSH2 0x3F9 DUP7 DUP3 DUP8 ADD PUSH2 0x359 JUMP JUMPDEST SWAP4 POP POP PUSH1 0x20 PUSH2 0x40A DUP7 DUP3 DUP8 ADD PUSH2 0x3A5 JUMP JUMPDEST SWAP3 POP POP PUSH1 0x40 PUSH2 0x41B DUP7 DUP3 DUP8 ADD PUSH2 0x3A5 JUMP JUMPDEST SWAP2 POP POP SWAP3 POP SWAP3 POP SWAP3 JUMP JUMPDEST PUSH2 0x42E DUP2 PUSH2 0x386 JUMP JUMPDEST DUP3 MSTORE POP POP JUMP JUMPDEST PUSH0 PUSH1 0x20 DUP3 ADD SWAP1 POP PUSH2 0x447 PUSH0 DUP4 ADD DUP5 PUSH2 0x425 JUMP JUMPDEST SWAP3 SWAP2 POP POP JUMP JUMPDEST PUSH32 0x4E487B7100000000000000000000000000000000000000000000000000000000 PUSH0 MSTORE PUSH1 0x22 PUSH1 0x4 MSTORE PUSH1 0x24 PUSH0 REVERT JUMPDEST PUSH0 PUSH1 0x2 DUP3 DIV SWAP1 POP PUSH1 0x1 DUP3 AND DUP1 PUSH2 0x491 JUMPI PUSH1 0x7F DUP3 AND SWAP2 POP JUMPDEST PUSH1 0x20 DUP3 LT DUP2 SUB PUSH2 0x4A4 JUMPI PUSH2 0x4A3 PUSH2 0x44D JUMP JUMPDEST JUMPDEST POP SWAP2 SWAP1 POP JUMP JUMPDEST PUSH0 DUP2 SWAP1 POP DUP2 PUSH0 MSTORE PUSH1 0x20 PUSH0 KECCAK256 SWAP1 POP SWAP2 SWAP1 POP JUMP JUMPDEST PUSH0 PUSH1 0x20 PUSH1 0x1F DUP4 ADD DIV SWAP1 POP SWAP2 SWAP1 POP JUMP JUMPDEST PUSH0 DUP3 DUP3 SHL SWAP1 POP SWAP3 SWAP2 POP POP JUMP JUMPDEST PUSH0 PUSH1 0x8 DUP4 MUL PUSH2 0x506 PUSH32 0xFFFFFFFFFFFFFFFFFFFFFFFFFFFFFFFFFFFFFFFFFFFFFFFFFFFFFFFFFFFFFFFF DUP3 PUSH2 0x4CB JUMP JUMPDEST PUSH2 0x510 DUP7 DUP4 PUSH2 0x4CB JUMP JUMPDEST SWAP6 POP DUP1 NOT DUP5 AND SWAP4 POP DUP1 DUP7 AND DUP5 OR SWAP3 POP POP POP SWAP4 SWAP3 POP POP POP JUMP JUMPDEST PUSH0 DUP2 SWAP1 POP SWAP2 SWAP1 POP JUMP JUMPDEST PUSH0 PUSH2 0x54B PUSH2 0x546 PUSH2 0x541 DUP5 PUSH2 0x386 JUMP JUMPDEST PUSH2 0x528 JUMP JUMPDEST PUSH2 0x386 JUMP JUMPDEST SWAP1 POP SWAP2 SWAP1 POP JUMP JUMPDEST PUSH0 DUP2 SWAP1 POP SWAP2 SWAP1 POP JUMP JUMPDEST PUSH2 0x564 DUP4 PUSH2 0x531 JUMP JUMPDEST PUSH2 0x578 PUSH2 0x570 DUP3 PUSH2 0x552 JUMP JUMPDEST DUP5 DUP5 SLOAD PUSH2 0x4D7 JUMP JUMPDEST DUP3 SSTORE POP POP POP POP JUMP JUMPDEST PUSH0 PUSH0 SWAP1 POP SWAP1 JUMP JUMPDEST PUSH2 0x58F PUSH2 0x580 JUMP JUMPDEST PUSH2 0x59A DUP2 DUP5 DUP5 PUSH2 0x55B JUMP JUMPDEST POP POP POP JUMP JUMPDEST JUMPDEST DUP2 DUP2 LT ISZERO PUSH2 0x5BD JUMPI PUSH2 0x5B2 PUSH0 DUP3 PUSH2 0x587 JUMP JUMPDEST PUSH1 0x1 DUP2 ADD SWAP1 POP PUSH2 0x5A0 JUMP JUMPDEST POP POP JUMP JUMPDEST PUSH1 0x1F DUP3 GT ISZERO PUSH2 0x602 JUMPI PUSH2 0x5D3 DUP2 PUSH2 0x4AA JUMP JUMPDEST PUSH2 0x5DC DUP5 PUSH2 0x4BC JUMP JUMPDEST DUP2 ADD PUSH1 0x20 DUP6 LT ISZERO PUSH2 0x5EB JUMPI DUP2 SWAP1 POP JUMPDEST PUSH2 0x5FF PUSH2 0x5F7 DUP6 PUSH2 0x4BC JUMP JUMPDEST DUP4 ADD DUP3 PUSH2 0x59F JUMP JUMPDEST POP POP JUMPDEST POP POP POP JUMP JUMPDEST PUSH0 DUP3 DUP3 SHR SWAP1 POP SWAP3 SWAP2 POP POP JUMP JUMPDEST PUSH0 PUSH2 0x622 PUSH0 NOT DUP5 PUSH1 0x8 MUL PUSH2 0x607 JUMP JUMPDEST NOT DUP1 DUP4 AND SWAP2 POP POP SWAP3 SWAP2 POP POP JUMP JUMPDEST PUSH0 PUSH2 0x63A DUP4 DUP4 PUSH2 0x613 JUMP JUMPDEST SWAP2 POP DUP3 PUSH1 0x2 MUL DUP3 OR SWAP1 POP SWAP3 SWAP2 POP POP JUMP JUMPDEST PUSH2 0x653 DUP3 PUSH2 0x1B9 JUMP JUMPDEST PUSH8 0xFFFFFFFFFFFFFFFF DUP2 GT ISZERO PUSH2 0x66C JUMPI PUSH2 0x66B PUSH2 0x262 JUMP JUMPDEST JUMPDEST PUSH2 0x676 DUP3 SLOAD PUSH2 0x47A JUMP JUMPDEST PUSH2 0x681 DUP3 DUP3 DUP6 PUSH2 0x5C1 JUMP JUMPDEST PUSH0 PUSH1 0x20 SWAP1 POP PUSH1 0x1F DUP4 GT PUSH1 0x1 DUP2 EQ PUSH2 0x6B2 JUMPI PUSH0 DUP5 ISZERO PUSH2 0x6A0 JUMPI DUP3 DUP8 ADD MLOAD SWAP1 POP JUMPDEST PUSH2 0x6AA DUP6 DUP3 PUSH2 0x62F JUMP JUMPDEST DUP7 SSTORE POP PUSH2 0x711 JUMP JUMPDEST PUSH1 0x1F NOT DUP5 AND PUSH2 0x6C0 DUP7 PUSH2 0x4AA JUMP JUMPDEST PUSH0 JUMPDEST DUP3 DUP2 LT ISZERO PUSH2 0x6E7 JUMPI DUP5 DUP10 ADD MLOAD DUP3 SSTORE PUSH1 0x1 DUP3 ADD SWAP2 POP PUSH1 0x20 DUP6 ADD SWAP5 POP PUSH1 0x20 DUP2 ADD SWAP1 POP PUSH2 0x6C2 JUMP JUMPDEST DUP7 DUP4 LT ISZERO PUSH2 0x704 JUMPI DUP5 DUP10 ADD MLOAD PUSH2 0x700 PUSH1 0x1F DUP10 AND DUP3 PUSH2 0x613 JUMP JUMPDEST DUP4 SSTORE POP JUMPDEST PUSH1 0x1 PUSH1 0x2 DUP9 MUL ADD DUP9 SSTORE POP POP POP JUMPDEST POP POP POP POP POP POP JUMP JUMPDEST PUSH0 DUP2 SLOAD PUSH2 0x725 DUP2 PUSH2 0x47A JUMP JUMPDEST PUSH2 0x72F DUP2 DUP7 PUSH2 0x1C3 JUMP JUMPDEST SWAP5 POP PUSH1 0x1 DUP3 AND PUSH0 DUP2 EQ PUSH2 0x749 JUMPI PUSH1 0x1 DUP2 EQ PUSH2 0x75F JUMPI PUSH2 0x791 JUMP JUMPDEST PUSH1 0xFF NOT DUP4 AND DUP7 MSTORE DUP2 ISZERO ISZERO PUSH1 0x20 MUL DUP7 ADD SWAP4 POP PUSH2 0x791 JUMP JUMPDEST PUSH2 0x768 DUP6 PUSH2 0x4AA JUMP JUMPDEST PUSH0 JUMPDEST DUP4 DUP2 LT ISZERO PUSH2 0x789 JUMPI DUP2 SLOAD DUP2 DUP10 ADD MSTORE PUSH1 0x1 DUP3 ADD SWAP2 POP PUSH1 0x20 DUP2 ADD SWAP1 POP PUSH2 0x76A JUMP JUMPDEST DUP1 DUP9 ADD SWAP6 POP POP POP JUMPDEST POP POP POP SWAP3 SWAP2 POP POP JUMP JUMPDEST PUSH0 PUSH1 0x20 DUP3 ADD SWAP1 POP DUP2 DUP2 SUB PUSH0 DUP4 ADD MSTORE PUSH2 0x7B2 DUP2 DUP5 PUSH2 0x719 JUMP JUMPDEST SWAP1 POP SWAP3 SWAP2 POP POP JUMP INVALID LOG2 PUSH5 0x6970667358 0x22 SLT KECCAK256 DUP9 0x4B DUP13 STATICCALL PUSH21 0xE7E6B0CADE264A2817D3A6ACB74BF6E47BCFF59890 PUSH22 0xCC475B270364736F6C634300081E0033000000000000 "
				},
				"gasEstimates": {
					"creation": {
						"codeDepositCost": "406400",
						"executionCost": "441",
						"totalCost": "406841"
					},
					"external": {
						"className()": "infinite",
						"numberOfStudents()": "2447",
						"setClass(string,uint256,uint256)": "infinite",
						"year()": "2469"
					}
				},
				"methodIdentifiers": {
					"className()": "00c51f8c",
					"numberOfStudents()": "93199b09",
					"setClass(string,uint256,uint256)": "35bdf8b5",
					"year()": "f3269716"
				}
			},
			"storageLayout": {
				"storage": [
					{
						"astId": 3,
						"contract": "contracts/AdvancedContract.sol:AdvancedContract",
						"label": "className",
						"offset": 0,
						"slot": "0",
						"type": "t_string_storage"
					},
					{
						"astId": 5,
						"contract": "contracts/AdvancedContract.sol:AdvancedContract",
						"label": "numberOfStudents",
						"offset": 0,
						"slot": "1",
						"type": "t_uint256"
					},
					{
						"astId": 7,
						"contract": "contracts/AdvancedContract.sol:AdvancedContract",
						"label": "year",
						"offset": 0,
						"slot": "2",
						"type": "t_uint256"
					}
				],
				"types": {
					"t_string_storage": {
						"encoding": "bytes",
						"label": "string",
						"numberOfBytes": "32"
					},
					"t_uint256": {
						"encoding": "inplace",
						"label": "uint256",
						"numberOfBytes": "32"
					}
				}
			},
			"userdoc": {
				"kind": "user",
				"methods": {},
				"version": 1
			}
		}
	}
}