{
	"data": {
		"bytecode": {
			"linkReferences": {},
			"object": "6080604052348015600e575f5ffd5b506107128061001c5f395ff3fe608060405234801561000f575f5ffd5b5060043610610049575f3560e01c8062c51f8c1461004d57806335bdf8b51461006b57806393199b0914610087578063f3269716146100a5575b5f5ffd5b6100556100c3565b60405161006291906101ec565b60405180910390f35b6100856004803603810190610080919061037c565b61014e565b005b61008f610170565b60405161009c91906103f7565b60405180910390f35b6100ad610176565b6040516100ba91906103f7565b60405180910390f35b5f80546100cf9061043d565b80601f01602080910402602001604051908101604052809291908181526020018280546100fb9061043d565b80156101465780601f1061011d57610100808354040283529160200191610146565b820191905f5260205f20905b81548152906001019060200180831161012957829003601f168201915b505050505081565b825f908161015c919061060d565b508160018190555080600281905550505050565b60015481565b60025481565b5f81519050919050565b5f82825260208201905092915050565b8281835e5f83830152505050565b5f601f19601f8301169050919050565b5f6101be8261017c565b6101c88185610186565b93506101d8818560208601610196565b6101e1816101a4565b840191505092915050565b5f6020820190508181035f83015261020481846101b4565b905092915050565b5f604051905090565b5f5ffd5b5f5ffd5b5f5ffd5b5f5ffd5b7f4e487b71000000000000000000000000000000000000000000000000000000005f52604160045260245ffd5b61025b826101a4565b810181811067ffffffffffffffff8211171561027a57610279610225565b5b80604052505050565b5f61028c61020c565b90506102988282610252565b919050565b5f67ffffffffffffffff8211156102b7576102b6610225565b5b6102c0826101a4565b9050602081019050919050565b828183375f83830152505050565b5f6102ed6102e88461029d565b610283565b90508281526020810184848401111561030957610308610221565b5b6103148482856102cd565b509392505050565b5f82601f8301126103305761032f61021d565b5b81356103408482602086016102db565b91505092915050565b5f819050919050565b61035b81610349565b8114610365575f5ffd5b50565b5f8135905061037681610352565b92915050565b5f5f5f6060848603121561039357610392610215565b5b5f84013567ffffffffffffffff8111156103b0576103af610219565b5b6103bc8682870161031c565b93505060206103cd86828701610368565b92505060406103de86828701610368565b9150509250925092565b6103f181610349565b82525050565b5f60208201905061040a5f8301846103e8565b92915050565b7f4e487b71000000000000000000000000000000000000000000000000000000005f52602260045260245ffd5b5f600282049050600182168061045457607f821691505b60208210810361046757610466610410565b5b50919050565b5f819050815f5260205f209050919050565b5f6020601f8301049050919050565b5f82821b905092915050565b5f600883026104c97fffffffffffffffffffffffffffffffffffffffffffffffffffffffffffffffff8261048e565b6104d3868361048e565b95508019841693508086168417925050509392505050565b5f819050919050565b5f61050e61050961050484610349565b6104eb565b610349565b9050919050565b5f819050919050565b610527836104f4565b61053b61053382610515565b84845461049a565b825550505050565b5f5f905090565b610552610543565b61055d81848461051e565b505050565b5b81811015610580576105755f8261054a565b600181019050610563565b5050565b601f8211156105c5576105968161046d565b61059f8461047f565b810160208510156105ae578190505b6105c26105ba8561047f565b830182610562565b50505b505050565b5f82821c905092915050565b5f6105e55f19846008026105ca565b1980831691505092915050565b5f6105fd83836105d6565b9150826002028217905092915050565b6106168261017c565b67ffffffffffffffff81111561062f5761062e610225565b5b610639825461043d565b610644828285610584565b5f60209050601f831160018114610675575f8415610663578287015190505b61066d85826105f2565b8655506106d4565b601f1984166106838661046d565b5f5b828110156106aa57848901518255600182019150602085019450602081019050610685565b868310156106c757848901516106c3601f8916826105d6565b8355505b6001600288020188555050505b50505050505056fea2646970667358221220343be1962557c289f2022d9eb703c7fbd7794a1c536723157e040122575f7ba164736f6c634300081e0033",
			"opcodes": "PUSH1 0x80 PUSH1 0x40 MSTORE CALLVALUE DUP1 ISZERO PUSH1 0xE JUMPI PUSH0 PUSH0 REVERT JUMPDEST POP PUSH2 0x712 DUP1 PUSH2 0x1C PUSH0 CODECOPY PUSH0 RETURN INVALID PUSH1 0x80 PUSH1 0x40 MSTORE CALLVALUE DUP1 ISZERO PUSH2 0xF JUMPI PUSH0 PUSH0 REVERT JUMPDEST POP PUSH1 0x4 CALLDATASIZE LT PUSH2 0x49 JUMPI PUSH0 CALLDATALOAD PUSH1 0xE0 SHR DUP1 PUSH3 0xC51F8C EQ PUSH2 0x4D JUMPI DUP1 PUSH4 0x35BDF8B5 EQ PUSH2 0x6B JUMPI DUP1 PUSH4 0x93199B09 EQ PUSH2 0x87 JUMPI DUP1 PUSH4 0xF3269716 EQ PUSH2 0xA5 JUMPI JUMPDEST PUSH0 PUSH0 REVERT JUMPDEST PUSH2 0x55 PUSH2 0xC3 JUMP JUMPDEST PUSH1 0x40 MLOAD PUSH2 0x62 SWAP2 SWAP1 PUSH2 0x1EC JUMP JUMPDEST PUSH1 0x40 MLOAD DUP1 SWAP2 SUB SWAP1 RETURN JUMPDEST PUSH2 0x85 PUSH1 0x4 DUP1 CALLDATASIZE SUB DUP2 ADD SWAP1 PUSH2 0x80 SWAP2 SWAP1 PUSH2 0x37C JUMP JUMPDEST PUSH2 0x14E JUMP JUMPDEST STOP JUMPDEST PUSH2 0x8F PUSH2 0x170 JUMP JUMPDEST PUSH1 0x40 MLOAD PUSH2 0x9C SWAP2 SWAP1 PUSH2 0x3F7 JUMP JUMPDEST PUSH1 0x40 MLOAD DUP1 SWAP2 SUB SWAP1 RETURN JUMPDEST PUSH2 0xAD PUSH2 0x176 JUMP JUMPDEST PUSH1 0x40 MLOAD PUSH2 0xBA SWAP2 SWAP1 PUSH2 0x3F7 JUMP JUMPDEST PUSH1 0x40 MLOAD DUP1 SWAP2 SUB SWAP1 RETURN JUMPDEST PUSH0 DUP1 SLOAD PUSH2 0xCF SWAP1 PUSH2 0x43D JUMP JUMPDEST DUP1 PUSH1 0x1F ADD PUSH1 0x20 DUP1 SWAP2 DIV MUL PUSH1 0x20 ADD PUSH1 0x40 MLOAD SWAP1 DUP2 ADD PUSH1 0x40 MSTORE DUP1 SWAP3 SWAP2 SWAP1 DUP2 DUP2 MSTORE PUSH1 0x20 ADD DUP3 DUP1 SLOAD PUSH2 0xFB SWAP1 PUSH2 0x43D JUMP JUMPDEST DUP1 ISZERO PUSH2 0x146 JUMPI DUP1 PUSH1 0x1F LT PUSH2 0x11D JUMPI PUSH2 0x100 DUP1 DUP4 SLOAD DIV MUL DUP4 MSTORE SWAP2 PUSH1 0x20 ADD SWAP2 PUSH2 0x146 JUMP JUMPDEST DUP3 ADD SWAP2 SWAP1 PUSH0 MSTORE PUSH1 0x20 PUSH0 KECCAK256 SWAP1 JUMPDEST DUP2 SLOAD DUP2 MSTORE SWAP1 PUSH1 0x1 ADD SWAP1 PUSH1 0x20 ADD DUP1 DUP4 GT PUSH2 0x129 JUMPI DUP3 SWAP1 SUB PUSH1 0x1F AND DUP3 ADD SWAP2 JUMPDEST POP POP POP POP POP DUP2 JUMP JUMPDEST DUP3 PUSH0 SWAP1 DUP2 PUSH2 0x15C SWAP2 SWAP1 PUSH2 0x60D JUMP JUMPDEST POP DUP2 PUSH1 0x1 DUP2 SWAP1 SSTORE POP DUP1 PUSH1 0x2 DUP2 SWAP1 SSTORE POP POP POP POP JUMP JUMPDEST PUSH1 0x1 SLOAD DUP2 JUMP JUMPDEST PUSH1 0x2 SLOAD DUP2 JUMP JUMPDEST PUSH0 DUP2 MLOAD SWAP1 POP SWAP2 SWAP1 POP JUMP JUMPDEST PUSH0 DUP3 DUP3 MSTORE PUSH1 0x20 DUP3 ADD SWAP1 POP SWAP3 SWAP2 POP POP JUMP JUMPDEST DUP3 DUP2 DUP4 MCOPY PUSH0 DUP4 DUP4 ADD MSTORE POP POP POP JUMP JUMPDEST PUSH0 PUSH1 0x1F NOT PUSH1 0x1F DUP4 ADD AND SWAP1 POP SWAP2 SWAP1 POP JUMP JUMPDEST PUSH0 PUSH2 0x1BE DUP3 PUSH2 0x17C JUMP JUMPDEST PUSH2 0x1C8 DUP2 DUP6 PUSH2 0x186 JUMP JUMPDEST SWAP4 POP PUSH2 0x1D8 DUP2 DUP6 PUSH1 0x20 DUP7 ADD PUSH2 0x196 JUMP JUMPDEST PUSH2 0x1E1 DUP2 PUSH2 0x1A4 JUMP JUMPDEST DUP5 ADD SWAP2 POP POP SWAP3 SWAP2 POP POP JUMP JUMPDEST PUSH0 PUSH1 0x20 DUP3 ADD SWAP1 POP DUP2 DUP2 SUB PUSH0 DUP4 ADD MSTORE PUSH2 0x204 DUP2 DUP5 PUSH2 0x1B4 JUMP JUMPDEST SWAP1 POP SWAP3 SWAP2 POP POP JUMP JUMPDEST PUSH0 PUSH1 0x40 MLOAD SWAP1 POP SWAP1 JUMP JUMPDEST PUSH0 PUSH0 REVERT JUMPDEST PUSH0 PUSH0 REVERT JUMPDEST PUSH0 PUSH0 REVERT JUMPDEST PUSH0 PUSH0 REVERT JUMPDEST PUSH32 0x4E487B7100000000000000000000000000000000000000000000000000000000 PUSH0 MSTORE PUSH1 0x41 PUSH1 0x4 MSTORE PUSH1 0x24 PUSH0 REVERT JUMPDEST PUSH2 0x25B DUP3 PUSH2 0x1A4 JUMP JUMPDEST DUP2 ADD DUP2 DUP2 LT PUSH8 0xFFFFFFFFFFFFFFFF DUP3 GT OR ISZERO PUSH2 0x27A JUMPI PUSH2 0x279 PUSH2 0x225 JUMP JUMPDEST JUMPDEST DUP1 PUSH1 0x40 MSTORE POP POP POP JUMP JUMPDEST PUSH0 PUSH2 0x28C PUSH2 0x20C JUMP JUMPDEST SWAP1 POP PUSH2 0x298 DUP3 DUP3 PUSH2 0x252 JUMP JUMPDEST SWAP2 SWAP1 POP JUMP JUMPDEST PUSH0 PUSH8 0xFFFFFFFFFFFFFFFF DUP3 GT ISZERO PUSH2 0x2B7 JUMPI PUSH2 0x2B6 PUSH2 0x225 JUMP JUMPDEST JUMPDEST PUSH2 0x2C0 DUP3 PUSH2 0x1A4 JUMP JUMPDEST SWAP1 POP PUSH1 0x20 DUP2 ADD SWAP1 POP SWAP2 SWAP1 POP JUMP JUMPDEST DUP3 DUP2 DUP4 CALLDATACOPY PUSH0 DUP4 DUP4 ADD MSTORE POP POP POP JUMP JUMPDEST PUSH0 PUSH2 0x2ED PUSH2 0x2E8 DUP5 PUSH2 0x29D JUMP JUMPDEST PUSH2 0x283 JUMP JUMPDEST SWAP1 POP DUP3 DUP2 MSTORE PUSH1 0x20 DUP2 ADD DUP5 DUP5 DUP5 ADD GT ISZERO PUSH2 0x309 JUMPI PUSH2 0x308 PUSH2 0x221 JUMP JUMPDEST JUMPDEST PUSH2 0x314 DUP5 DUP3 DUP6 PUSH2 0x2CD JUMP JUMPDEST POP SWAP4 SWAP3 POP POP POP JUMP JUMPDEST PUSH0 DUP3 PUSH1 0x1F DUP4 ADD SLT PUSH2 0x330 JUMPI PUSH2 0x32F PUSH2 0x21D JUMP JUMPDEST JUMPDEST DUP2 CALLDATALOAD PUSH2 0x340 DUP5 DUP3 PUSH1 0x20 DUP7 ADD PUSH2 0x2DB JUMP JUMPDEST SWAP2 POP POP SWAP3 SWAP2 POP POP JUMP JUMPDEST PUSH0 DUP2 SWAP1 POP SWAP2 SWAP1 POP JUMP JUMPDEST PUSH2 0x35B DUP2 PUSH2 0x349 JUMP JUMPDEST DUP2 EQ PUSH2 0x365 JUMPI PUSH0 PUSH0 REVERT JUMPDEST POP JUMP JUMPDEST PUSH0 DUP2 CALLDATALOAD SWAP1 POP PUSH2 0x376 DUP2 PUSH2 0x352 JUMP JUMPDEST SWAP3 SWAP2 POP POP JUMP JUMPDEST PUSH0 PUSH0 PUSH0 PUSH1 0x60 DUP5 DUP7 SUB SLT ISZERO PUSH2 0x393 JUMPI PUSH2 0x392 PUSH2 0x215 JUMP JUMPDEST JUMPDEST PUSH0 DUP5 ADD CALLDATALOAD PUSH8 0xFFFFFFFFFFFFFFFF DUP2 GT ISZERO PUSH2 0x3B0 JUMPI PUSH2 0x3AF PUSH2 0x219 JUMP JUMPDEST JUMPDEST PUSH2 0x3BC DUP7 DUP3 DUP8 ADD PUSH2 0x31C JUMP JUMPDEST SWAP4 POP POP PUSH1 0x20 PUSH2 0x3CD DUP7 DUP3 DUP8 ADD PUSH2 0x368 JUMP JUMPDEST SWAP3 POP POP PUSH1 0x40 PUSH2 0x3DE DUP7 DUP3 DUP8 ADD PUSH2 0x368 JUMP JUMPDEST SWAP2 POP POP SWAP3 POP SWAP3 POP SWAP3 JUMP JUMPDEST PUSH2 0x3F1 DUP2 PUSH2 0x349 JUMP JUMPDEST DUP3 MSTORE POP POP JUMP JUMPDEST PUSH0 PUSH1 0x20 DUP3 ADD SWAP1 POP PUSH2 0x40A PUSH0 DUP4 ADD DUP5 PUSH2 0x3E8 JUMP JUMPDEST SWAP3 SWAP2 POP POP JUMP JUMPDEST PUSH32 0x4E487B7100000000000000000000000000000000000000000000000000000000 PUSH0 MSTORE PUSH1 0x22 PUSH1 0x4 MSTORE PUSH1 0x24 PUSH0 REVERT JUMPDEST PUSH0 PUSH1 0x2 DUP3 DIV SWAP1 POP PUSH1 0x1 DUP3 AND DUP1 PUSH2 0x454 JUMPI PUSH1 0x7F DUP3 AND SWAP2 POP JUMPDEST PUSH1 0x20 DUP3 LT DUP2 SUB PUSH2 0x467 JUMPI PUSH2 0x466 PUSH2 0x410 JUMP JUMPDEST JUMPDEST POP SWAP2 SWAP1 POP JUMP JUMPDEST PUSH0 DUP2 SWAP1 POP DUP2 PUSH0 MSTORE PUSH1 0x20 PUSH0 KECCAK256 SWAP1 POP SWAP2 SWAP1 POP JUMP JUMPDEST PUSH0 PUSH1 0x20 PUSH1 0x1F DUP4 ADD DIV SWAP1 POP SWAP2 SWAP1 POP JUMP JUMPDEST PUSH0 DUP3 DUP3 SHL SWAP1 POP SWAP3 SWAP2 POP POP JUMP JUMPDEST PUSH0 PUSH1 0x8 DUP4 MUL PUSH2 0x4C9 PUSH32 0xFFFFFFFFFFFFFFFFFFFFFFFFFFFFFFFFFFFFFFFFFFFFFFFFFFFFFFFFFFFFFFFF DUP3 PUSH2 0x48E JUMP JUMPDEST PUSH2 0x4D3 DUP7 DUP4 PUSH2 0x48E JUMP JUMPDEST SWAP6 POP DUP1 NOT DUP5 AND SWAP4 POP DUP1 DUP7 AND DUP5 OR SWAP3 POP POP POP SWAP4 SWAP3 POP POP POP JUMP JUMPDEST PUSH0 DUP2 SWAP1 POP SWAP2 SWAP1 POP JUMP JUMPDEST PUSH0 PUSH2 0x50E PUSH2 0x509 PUSH2 0x504 DUP5 PUSH2 0x349 JUMP JUMPDEST PUSH2 0x4EB JUMP JUMPDEST PUSH2 0x349 JUMP JUMPDEST SWAP1 POP SWAP2 SWAP1 POP JUMP JUMPDEST PUSH0 DUP2 SWAP1 POP SWAP2 SWAP1 POP JUMP JUMPDEST PUSH2 0x527 DUP4 PUSH2 0x4F4 JUMP JUMPDEST PUSH2 0x53B PUSH2 0x533 DUP3 PUSH2 0x515 JUMP JUMPDEST DUP5 DUP5 SLOAD PUSH2 0x49A JUMP JUMPDEST DUP3 SSTORE POP POP POP POP JUMP JUMPDEST PUSH0 PUSH0 SWAP1 POP SWAP1 JUMP JUMPDEST PUSH2 0x552 PUSH2 0x543 JUMP JUMPDEST PUSH2 0x55D DUP2 DUP5 DUP5 PUSH2 0x51E JUMP JUMPDEST POP POP POP JUMP JUMPDEST JUMPDEST DUP2 DUP2 LT ISZERO PUSH2 0x580 JUMPI PUSH2 0x575 PUSH0 DUP3 PUSH2 0x54A JUMP JUMPDEST PUSH1 0x1 DUP2 ADD SWAP1 POP PUSH2 0x563 JUMP JUMPDEST POP POP JUMP JUMPDEST PUSH1 0x1F DUP3 GT ISZERO PUSH2 0x5C5 JUMPI PUSH2 0x596 DUP2 PUSH2 0x46D JUMP JUMPDEST PUSH2 0x59F DUP5 PUSH2 0x47F JUMP JUMPDEST DUP2 ADD PUSH1 0x20 DUP6 LT ISZERO PUSH2 0x5AE JUMPI DUP2 SWAP1 POP JUMPDEST PUSH2 0x5C2 PUSH2 0x5BA DUP6 PUSH2 0x47F JUMP JUMPDEST DUP4 ADD DUP3 PUSH2 0x562 JUMP JUMPDEST POP POP JUMPDEST POP POP POP JUMP JUMPDEST PUSH0 DUP3 DUP3 SHR SWAP1 POP SWAP3 SWAP2 POP POP JUMP JUMPDEST PUSH0 PUSH2 0x5E5 PUSH0 NOT DUP5 PUSH1 0x8 MUL PUSH2 0x5CA JUMP JUMPDEST NOT DUP1 DUP4 AND SWAP2 POP POP SWAP3 SWAP2 POP POP JUMP JUMPDEST PUSH0 PUSH2 0x5FD DUP4 DUP4 PUSH2 0x5D6 JUMP JUMPDEST SWAP2 POP DUP3 PUSH1 0x2 MUL DUP3 OR SWAP1 POP SWAP3 SWAP2 POP POP JUMP JUMPDEST PUSH2 0x616 DUP3 PUSH2 0x17C JUMP JUMPDEST PUSH8 0xFFFFFFFFFFFFFFFF DUP2 GT ISZERO PUSH2 0x62F JUMPI PUSH2 0x62E PUSH2 0x225 JUMP JUMPDEST JUMPDEST PUSH2 0x639 DUP3 SLOAD PUSH2 0x43D JUMP JUMPDEST PUSH2 0x644 DUP3 DUP3 DUP6 PUSH2 0x584 JUMP JUMPDEST PUSH0 PUSH1 0x20 SWAP1 POP PUSH1 0x1F DUP4 GT PUSH1 0x1 DUP2 EQ PUSH2 0x675 JUMPI PUSH0 DUP5 ISZERO PUSH2 0x663 JUMPI DUP3 DUP8 ADD MLOAD SWAP1 POP JUMPDEST PUSH2 0x66D DUP6 DUP3 PUSH2 0x5F2 JUMP JUMPDEST DUP7 SSTORE POP PUSH2 0x6D4 JUMP JUMPDEST PUSH1 0x1F NOT DUP5 AND PUSH2 0x683 DUP7 PUSH2 0x46D JUMP JUMPDEST PUSH0 JUMPDEST DUP3 DUP2 LT ISZERO PUSH2 0x6AA JUMPI DUP5 DUP10 ADD MLOAD DUP3 SSTORE PUSH1 0x1 DUP3 ADD SWAP2 POP PUSH1 0x20 DUP6 ADD SWAP5 POP PUSH1 0x20 DUP2 ADD SWAP1 POP PUSH2 0x685 JUMP JUMPDEST DUP7 DUP4 LT ISZERO PUSH2 0x6C7 JUMPI DUP5 DUP10 ADD MLOAD PUSH2 0x6C3 PUSH1 0x1F DUP10 AND DUP3 PUSH2 0x5D6 JUMP JUMPDEST DUP4 SSTORE POP JUMPDEST PUSH1 0x1 PUSH1 0x2 DUP9 MUL ADD DUP9 SSTORE POP POP POP JUMPDEST POP POP POP POP POP POP JUMP INVALID LOG2 PUSH5 0x6970667358 0x22 SLT KECCAK256 CALLVALUE EXTCODESIZE RJUMPI 0x9625 JUMPI 0xC2 DUP10 CALLCODE MUL 0x2D SWAP15 0xB7 SUB 0xC7 EXTSTATICCALL 0xD7 PUSH26 0x4A1C536723157E040122575F7BA164736F6C634300081E003300 "
		},
		"gasEstimates": {
			"creation": {
				"codeDepositCost": "362000",
				"executionCost": "397",
				"totalCost": "362397"
			},
			"external": {
				"className()": "infinite",
				"numberOfStudents()": "2447",
				"setClass(string,uint256,uint256)": "infinite",
				"year()": "2469"
			}
		},
		"methodIdentifiers": {
			"className()": "00c51f8c",
			"numberOfStudents()": "93199b09",
			"setClass(string,uint256,uint256)": "35bdf8b5",
			"year()": "f3269716"
		}
	},
	"abi": [
		{
			"inputs": [],
			"name": "className",
			"outputs": [
				{
					"internalType": "string",
					"name": "",
					"type": "string"
				}
			],
			"stateMutability": "view",
			"type": "function"
		},
		{
			"inputs": [],
			"name": "numberOfStudents",
			"outputs": [
				{
					"internalType": "uint256",
					"name": "",
					"type": "uint256"
				}
			],
			"stateMutability": "view",
			"type": "function"
		},
		{
			"inputs": [
				{
					"internalType": "string",
					"name": "_name",
					"type": "string"
				},
				{
					"internalType": "uint256",
					"name": "_numberOfStudents",
					"type": "uint256"
				},
				{
					"internalType": "uint256",
					"name": "_year",
					"type": "uint256"
				}
			],
			"name": "setClass",
			"outputs": [],
			"stateMutability": "nonpayable",
			"type": "function"
		},
		{
			"inputs": [],
			"name": "year",
			"outputs": [
				{
					"internalType": "uint256",
					"name": "",
					"type": "uint256"
				}
			],
			"stateMutability": "view",
			"type": "function"
		}
	]
}